{
  "contractName": "Auction",
  "abi": [
    {
      "inputs": [
        {
          "internalType": "contract Hashima",
          "name": "_hashima",
          "type": "address"
        }
      ],
      "stateMutability": "nonpayable",
      "type": "constructor"
    },
    {
      "anonymous": false,
      "inputs": [
        {
          "indexed": false,
          "internalType": "address",
          "name": "winner",
          "type": "address"
        },
        {
          "indexed": false,
          "internalType": "uint256",
          "name": "amount",
          "type": "uint256"
        }
      ],
      "name": "AuctionEnded",
      "type": "event"
    },
    {
      "anonymous": false,
      "inputs": [
        {
          "indexed": false,
          "internalType": "address",
          "name": "bidder",
          "type": "address"
        },
        {
          "indexed": false,
          "internalType": "uint256",
          "name": "amount",
          "type": "uint256"
        }
      ],
      "name": "HighestBidIncreased",
      "type": "event"
    },
    {
      "inputs": [
        {
          "internalType": "uint256",
          "name": "tokenId",
          "type": "uint256"
        },
        {
          "internalType": "uint256",
          "name": "_tolerance",
          "type": "uint256"
        },
        {
          "internalType": "uint256",
          "name": "_minPrice",
          "type": "uint256"
        }
      ],
      "name": "NewAuction",
      "outputs": [],
      "stateMutability": "nonpayable",
      "type": "function"
    },
    {
      "inputs": [
        {
          "internalType": "uint256",
          "name": "tokenId",
          "type": "uint256"
        }
      ],
      "name": "bid",
      "outputs": [],
      "stateMutability": "payable",
      "type": "function",
      "payable": true
    },
    {
      "inputs": [],
      "name": "withdraw",
      "outputs": [
        {
          "internalType": "bool",
          "name": "",
          "type": "bool"
        }
      ],
      "stateMutability": "nonpayable",
      "type": "function"
    },
    {
      "inputs": [
        {
          "internalType": "uint256",
          "name": "tokenId",
          "type": "uint256"
        }
      ],
      "name": "auctionEnd",
      "outputs": [],
      "stateMutability": "nonpayable",
      "type": "function"
    },
    {
      "inputs": [
        {
          "internalType": "uint256",
          "name": "tokenID",
          "type": "uint256"
        }
      ],
      "name": "getMaxBid",
      "outputs": [
        {
          "internalType": "uint256",
          "name": "",
          "type": "uint256"
        }
      ],
      "stateMutability": "view",
      "type": "function",
      "constant": true
    },
    {
      "inputs": [
        {
          "internalType": "uint256",
          "name": "tokenID",
          "type": "uint256"
        }
      ],
      "name": "getMinPrice",
      "outputs": [
        {
          "internalType": "uint256",
          "name": "",
          "type": "uint256"
        }
      ],
      "stateMutability": "view",
      "type": "function",
      "constant": true
    },
    {
      "inputs": [
        {
          "internalType": "uint256",
          "name": "tokenID",
          "type": "uint256"
        }
      ],
      "name": "onAuction",
      "outputs": [
        {
          "internalType": "bool",
          "name": "",
          "type": "bool"
        }
      ],
      "stateMutability": "view",
      "type": "function",
      "constant": true
    },
    {
      "inputs": [
        {
          "internalType": "uint256",
          "name": "tokenID",
          "type": "uint256"
        }
      ],
      "name": "period",
      "outputs": [
        {
          "internalType": "uint256",
          "name": "",
          "type": "uint256"
        }
      ],
      "stateMutability": "view",
      "type": "function",
      "constant": true
    }
  ],
  "bytecode": "0x60806040523480156200001157600080fd5b5060405162001b3f38038062001b3f83398181016040528101906200003791906200009e565b600160008190555080600460006101000a81548173ffffffffffffffffffffffffffffffffffffffff021916908373ffffffffffffffffffffffffffffffffffffffff160217905550506200012c565b600081519050620000988162000112565b92915050565b600060208284031215620000b157600080fd5b6000620000c18482850162000087565b91505092915050565b6000620000d782620000f2565b9050919050565b6000620000eb82620000ca565b9050919050565b600073ffffffffffffffffffffffffffffffffffffffff82169050919050565b6200011d81620000de565b81146200012957600080fd5b50565b611a03806200013c6000396000f3fe60806040526004361061007b5760003560e01c80633ccfd60b1161004e5780633ccfd60b1461014c578063454a2ab314610177578063617fbce914610193578063d4b08aee146101d05761007b565b80630114aab7146100805780631b7e85a0146100a957806332246e9f146100e657806337eb130c1461010f575b600080fd5b34801561008c57600080fd5b506100a760048036038101906100a291906112d7565b61020d565b005b3480156100b557600080fd5b506100d060048036038101906100cb91906112ae565b61067d565b6040516100dd91906116a4565b60405180910390f35b3480156100f257600080fd5b5061010d600480360381019061010891906112ae565b61069d565b005b34801561011b57600080fd5b50610136600480360381019061013191906112ae565b610cd9565b6040516101439190611549565b60405180910390f35b34801561015857600080fd5b50610161610d03565b60405161016e9190611549565b60405180910390f35b610191600480360381019061018c91906112ae565b610e61565b005b34801561019f57600080fd5b506101ba60048036038101906101b591906112ae565b611210565b6040516101c791906116a4565b60405180910390f35b3480156101dc57600080fd5b506101f760048036038101906101f291906112ae565b611230565b60405161020491906116a4565b60405180910390f35b826000600460009054906101000a900473ffffffffffffffffffffffffffffffffffffffff1673ffffffffffffffffffffffffffffffffffffffff16636352211e836040518263ffffffff1660e01b815260040161026b91906116a4565b60206040518083038186803b15801561028357600080fd5b505afa158015610297573d6000803e3d6000fd5b505050506040513d601f19601f820116820180604052508101906102bb9190611285565b90503373ffffffffffffffffffffffffffffffffffffffff168173ffffffffffffffffffffffffffffffffffffffff161461032b576040517f08c379a000000000000000000000000000000000000000000000000000000000815260040161032290611564565b60405180910390fd5b60026000541415610371576040517f08c379a000000000000000000000000000000000000000000000000000000000815260040161036890611684565b60405180910390fd5b60026000819055506002600086815260200190815260200160002060009054906101000a900460ff16156103da576040517f08c379a00000000000000000000000000000000000000000000000000000000081526004016103d190611644565b60405180910390fd5b6064841161041d576040517f08c379a000000000000000000000000000000000000000000000000000000000815260040161041490611664565b60405180910390fd5b60008311610460576040517f08c379a000000000000000000000000000000000000000000000000000000000815260040161045790611584565b60405180910390fd5b60006040518060c00160405280864361047991906116db565b815260200185815260200160008152602001600073ffffffffffffffffffffffffffffffffffffffff1681526020013373ffffffffffffffffffffffffffffffffffffffff168152602001600115158152509050806003600088815260200190815260200160002060008201518160000155602082015181600101556040820151816002015560608201518160030160006101000a81548173ffffffffffffffffffffffffffffffffffffffff021916908373ffffffffffffffffffffffffffffffffffffffff16021790555060808201518160040160006101000a81548173ffffffffffffffffffffffffffffffffffffffff021916908373ffffffffffffffffffffffffffffffffffffffff16021790555060a08201518160040160146101000a81548160ff02191690831515021790555090505060016002600088815260200190815260200160002060006101000a81548160ff021916908315150217905550600460009054906101000a900473ffffffffffffffffffffffffffffffffffffffff1673ffffffffffffffffffffffffffffffffffffffff166323b872dd3330896040518463ffffffff1660e01b815260040161063b939291906114e9565b600060405180830381600087803b15801561065557600080fd5b505af1158015610669573d6000803e3d6000fd5b505050505060016000819055505050505050565b600060036000838152602001908152602001600020600101549050919050565b6000600360008381526020019081526020016000206040518060c00160405290816000820154815260200160018201548152602001600282015481526020016003820160009054906101000a900473ffffffffffffffffffffffffffffffffffffffff1673ffffffffffffffffffffffffffffffffffffffff1673ffffffffffffffffffffffffffffffffffffffff1681526020016004820160009054906101000a900473ffffffffffffffffffffffffffffffffffffffff1673ffffffffffffffffffffffffffffffffffffffff1673ffffffffffffffffffffffffffffffffffffffff1681526020016004820160149054906101000a900460ff161515151581525050905060008160600151905060008260800151905060008360400151905060008460000151905080431161080a576040517f08c379a0000000000000000000000000000000000000000000000000000000008152600401610801906115e4565b60405180910390fd5b8460a0015161084e576040517f08c379a000000000000000000000000000000000000000000000000000000000815260040161084590611624565b60405180910390fd5b600073ffffffffffffffffffffffffffffffffffffffff168473ffffffffffffffffffffffffffffffffffffffff161415610a725760008560a0019015159081151581525050846003600088815260200190815260200160002060008201518160000155602082015181600101556040820151816002015560608201518160030160006101000a81548173ffffffffffffffffffffffffffffffffffffffff021916908373ffffffffffffffffffffffffffffffffffffffff16021790555060808201518160040160006101000a81548173ffffffffffffffffffffffffffffffffffffffff021916908373ffffffffffffffffffffffffffffffffffffffff16021790555060a08201518160040160146101000a81548160ff02191690831515021790555090505060006002600088815260200190815260200160002060006101000a81548160ff021916908315150217905550600460009054906101000a900473ffffffffffffffffffffffffffffffffffffffff1673ffffffffffffffffffffffffffffffffffffffff166323b872dd3085896040518463ffffffff1660e01b8152600401610a02939291906114e9565b600060405180830381600087803b158015610a1c57600080fd5b505af1158015610a30573d6000803e3d6000fd5b505050507fdaec4582d5d9595688c8c98545fdd1c696d41c6aeaeb636737e84ed2f5c00eda8383604051610a65929190611520565b60405180910390a1610cd1565b60008373ffffffffffffffffffffffffffffffffffffffff1683604051610a98906114d4565b60006040518083038185875af1925050503d8060008114610ad5576040519150601f19603f3d011682016040523d82523d6000602084013e610ada565b606091505b505090508015610ccf5760008660a0019015159081151581525050856003600089815260200190815260200160002060008201518160000155602082015181600101556040820151816002015560608201518160030160006101000a81548173ffffffffffffffffffffffffffffffffffffffff021916908373ffffffffffffffffffffffffffffffffffffffff16021790555060808201518160040160006101000a81548173ffffffffffffffffffffffffffffffffffffffff021916908373ffffffffffffffffffffffffffffffffffffffff16021790555060a08201518160040160146101000a81548160ff02191690831515021790555090505060006002600089815260200190815260200160002060006101000a81548160ff021916908315150217905550600460009054906101000a900473ffffffffffffffffffffffffffffffffffffffff1673ffffffffffffffffffffffffffffffffffffffff166323b872dd30878a6040518463ffffffff1660e01b8152600401610c63939291906114e9565b600060405180830381600087803b158015610c7d57600080fd5b505af1158015610c91573d6000803e3d6000fd5b505050507fdaec4582d5d9595688c8c98545fdd1c696d41c6aeaeb636737e84ed2f5c00eda8584604051610cc6929190611520565b60405180910390a15b505b505050505050565b60006002600083815260200190815260200160002060009054906101000a900460ff169050919050565b600080600160003373ffffffffffffffffffffffffffffffffffffffff1673ffffffffffffffffffffffffffffffffffffffff1681526020019081526020016000205490506000811115610e58576000600160003373ffffffffffffffffffffffffffffffffffffffff1673ffffffffffffffffffffffffffffffffffffffff1681526020019081526020016000208190555060003373ffffffffffffffffffffffffffffffffffffffff1682604051610dbc906114d4565b60006040518083038185875af1925050503d8060008114610df9576040519150601f19603f3d011682016040523d82523d6000602084013e610dfe565b606091505b5050905080610e565781600160003373ffffffffffffffffffffffffffffffffffffffff1673ffffffffffffffffffffffffffffffffffffffff16815260200190815260200160002081905550600092505050610e5e565b505b60019150505b90565b6000600360008381526020019081526020016000206040518060c00160405290816000820154815260200160018201548152602001600282015481526020016003820160009054906101000a900473ffffffffffffffffffffffffffffffffffffffff1673ffffffffffffffffffffffffffffffffffffffff1673ffffffffffffffffffffffffffffffffffffffff1681526020016004820160009054906101000a900473ffffffffffffffffffffffffffffffffffffffff1673ffffffffffffffffffffffffffffffffffffffff1673ffffffffffffffffffffffffffffffffffffffff1681526020016004820160149054906101000a900460ff16151515158152505090506000816000015190506000826040015190506000836060015190508360a00151610fc7576040517f08c379a0000000000000000000000000000000000000000000000000000000008152600401610fbe90611604565b60405180910390fd5b8243111561100a576040517f08c379a0000000000000000000000000000000000000000000000000000000008152600401611001906115a4565b60405180910390fd5b81341161104c576040517f08c379a0000000000000000000000000000000000000000000000000000000008152600401611043906115c4565b60405180910390fd5b600082146110ab5781600160008373ffffffffffffffffffffffffffffffffffffffff1673ffffffffffffffffffffffffffffffffffffffff16815260200190815260200160002060008282546110a391906116db565b925050819055505b33846060019073ffffffffffffffffffffffffffffffffffffffff16908173ffffffffffffffffffffffffffffffffffffffff168152505034846040018181525050836003600087815260200190815260200160002060008201518160000155602082015181600101556040820151816002015560608201518160030160006101000a81548173ffffffffffffffffffffffffffffffffffffffff021916908373ffffffffffffffffffffffffffffffffffffffff16021790555060808201518160040160006101000a81548173ffffffffffffffffffffffffffffffffffffffff021916908373ffffffffffffffffffffffffffffffffffffffff16021790555060a08201518160040160146101000a81548160ff0219169083151502179055509050507ff4757a49b326036464bec6fe419a4ae38c8a02ce3e68bf0809674f6aab8ad3003334604051611201929190611520565b60405180910390a15050505050565b600060036000838152602001908152602001600020600201549050919050565b60004360036000848152602001908152602001600020600001546112549190611731565b9050919050565b60008151905061126a8161199f565b92915050565b60008135905061127f816119b6565b92915050565b60006020828403121561129757600080fd5b60006112a58482850161125b565b91505092915050565b6000602082840312156112c057600080fd5b60006112ce84828501611270565b91505092915050565b6000806000606084860312156112ec57600080fd5b60006112fa86828701611270565b935050602061130b86828701611270565b925050604061131c86828701611270565b9150509250925092565b61132f81611765565b82525050565b61133e81611777565b82525050565b6000611351600f836116ca565b915061135c826117dc565b602082019050919050565b60006113746017836116ca565b915061137f82611805565b602082019050919050565b60006113976015836116ca565b91506113a28261182e565b602082019050919050565b60006113ba601e836116ca565b91506113c582611857565b602082019050919050565b60006113dd6016836116ca565b91506113e882611880565b602082019050919050565b6000611400600c836116ca565b915061140b826118a9565b602082019050919050565b60006114236023836116ca565b915061142e826118d2565b604082019050919050565b60006114466016836116ca565b915061145182611921565b602082019050919050565b60006114696013836116ca565b91506114748261194a565b602082019050919050565b600061148c6000836116bf565b915061149782611973565b600082019050919050565b60006114af601f836116ca565b91506114ba82611976565b602082019050919050565b6114ce816117a3565b82525050565b60006114df8261147f565b9150819050919050565b60006060820190506114fe6000830186611326565b61150b6020830185611326565b61151860408301846114c5565b949350505050565b60006040820190506115356000830185611326565b61154260208301846114c5565b9392505050565b600060208201905061155e6000830184611335565b92915050565b6000602082019050818103600083015261157d81611344565b9050919050565b6000602082019050818103600083015261159d81611367565b9050919050565b600060208201905081810360008301526115bd8161138a565b9050919050565b600060208201905081810360008301526115dd816113ad565b9050919050565b600060208201905081810360008301526115fd816113d0565b9050919050565b6000602082019050818103600083015261161d816113f3565b9050919050565b6000602082019050818103600083015261163d81611416565b9050919050565b6000602082019050818103600083015261165d81611439565b9050919050565b6000602082019050818103600083015261167d8161145c565b9050919050565b6000602082019050818103600083015261169d816114a2565b9050919050565b60006020820190506116b960008301846114c5565b92915050565b600081905092915050565b600082825260208201905092915050565b60006116e6826117a3565b91506116f1836117a3565b9250827fffffffffffffffffffffffffffffffffffffffffffffffffffffffffffffffff03821115611726576117256117ad565b5b828201905092915050565b600061173c826117a3565b9150611747836117a3565b92508282101561175a576117596117ad565b5b828203905092915050565b600061177082611783565b9050919050565b60008115159050919050565b600073ffffffffffffffffffffffffffffffffffffffff82169050919050565b6000819050919050565b7f4e487b7100000000000000000000000000000000000000000000000000000000600052601160045260246000fd5b7f4f6e6c792068617368696f776e65720000000000000000000000000000000000600082015250565b7f50757420736f6d656e7468696e67206f6e207072696365000000000000000000600082015250565b7f41756374696f6e20616c726561647920656e6465640000000000000000000000600082015250565b7f546865726520616c7265616479206973206120686967686572206269642e0000600082015250565b7f41756374696f6e206e6f742079657420656e6465642e00000000000000000000600082015250565b7f4e6f742061637469766174650000000000000000000000000000000000000000600082015250565b7f61756374696f6e456e642068617320616c7265616479206265656e2063616c6c60008201527f65642e0000000000000000000000000000000000000000000000000000000000602082015250565b7f746869732068617368696d61206973206f6e2062696400000000000000000000600082015250565b7f4174206c656174732031303020626c6f636b7300000000000000000000000000600082015250565b50565b7f5265656e7472616e637947756172643a207265656e7472616e742063616c6c00600082015250565b6119a881611765565b81146119b357600080fd5b50565b6119bf816117a3565b81146119ca57600080fd5b5056fea2646970667358221220be8a7e7e13a0a3dd46ee879e970f24700678121ba45ee670b2aebd1c7d2bd5c764736f6c63430008030033",
  "immutableReferences": {},
  "source": "// SPDX-License-Identifier: MIT\npragma solidity ^0.8.0;\n\nimport './Hashima.sol';\nimport \"@openzeppelin/contracts/security/ReentrancyGuard.sol\";\n\n\ncontract Auction is ReentrancyGuard {\n  \n    // Allowed withdrawals of previous bids\n    mapping(address => uint) pendingReturns;\n\n    struct StructAuction {\n        uint256 periodoSubasta; //periodo de subasta en numero de bloques\n        uint256 minPrice;//en wei\n        uint256 nftHighestBid;//la apuesta mas grande \n        address nftHighestBidder;\n        address nftSeller;\n        bool active;\n\n    }\n\n    mapping(uint256=>bool) hashimaOnAction;\n    mapping(uint256=>StructAuction) auctions;\n\n    // Events that will be emitted on changes.\n    event HighestBidIncreased(address bidder, uint amount);\n    event AuctionEnded(address winner, uint amount);\n\n\n    Hashima private hashima;\n\n    constructor(Hashima _hashima){\n        hashima=_hashima;\n    }\n\n    modifier isHashimaOwner(uint256 tokenId){\n        address _owner=hashima.ownerOf(tokenId);\n        require(_owner==msg.sender,'Only hashiowner');\n        _;\n    }\n\n\n    function NewAuction(\n        uint256 tokenId,\n        uint256 _tolerance,\n        uint256 _minPrice)isHashimaOwner(tokenId) nonReentrant() public{\n\n        require(!hashimaOnAction[tokenId],'this hashima is on bid');\n        require(_tolerance>100,'At leats 100 blocks');\n        require(_minPrice>0,'Put somenthing on price');\n\n        StructAuction memory _newAuction=StructAuction(\n            block.number+_tolerance,//periodo de subasta\n            _minPrice,//precio minimo\n            0,//apuesta mas grande\n            address(0),//el que aposto mas\n            msg.sender,//nft seller\n            true//activate\n            );\n\n        auctions[tokenId]=_newAuction;\n        hashimaOnAction[tokenId]=true;\n\n        //First transfer ownership to this contract\n        //and then change the 'forSale' in case is on.\n        hashima.transferFrom(msg.sender, address(this), tokenId);\n\n        // bool forSale=hashima.getHashima(tokenId).forSale;\n        // if(forSale){\n        //     hashima.toggleForSale(tokenId,0);\n        // }\n        \n    }\n\n\n    function bid(uint256 tokenId) public payable {\n        StructAuction memory _auction=auctions[tokenId];\n        uint256 blockTime=_auction.periodoSubasta;\n        uint256 _highestBid=_auction.nftHighestBid;\n        address _high_bidder=_auction.nftHighestBidder;\n\n        require(_auction.active,'Not activate');\n        require(block.number <= blockTime,\"Auction already ended\");\n        require(msg.value > _highestBid,\"There already is a higher bid.\");\n\n        if (_highestBid != 0) {\n            pendingReturns[_high_bidder] += _highestBid;\n        }\n\n        _auction.nftHighestBidder = msg.sender;\n        _auction.nftHighestBid= msg.value;\n\n        auctions[tokenId]=_auction;\n        emit HighestBidIncreased(msg.sender, msg.value);\n    }\n\n    /// Withdraw a bid that was overbid.\n    function withdraw() public returns (bool) {\n        uint amount = pendingReturns[msg.sender];\n        if (amount > 0) {    \n            pendingReturns[msg.sender] = 0;\n            (bool _answer,)=payable(msg.sender).call{value:amount}(\"\");\n            if (!_answer) {\n                // No need to call throw here, just reset the amount owing\n                pendingReturns[msg.sender] = amount;\n                return false;\n            }\n        }\n        return true;\n    }\n\n    //esta funciona la llama el usuario al termionar el tiempo de subasta\n    function auctionEnd(uint256 tokenId) public{\n        StructAuction memory _auction=auctions[tokenId];\n        address _highestBidder=_auction.nftHighestBidder;\n        address _nftSeller=_auction.nftSeller;\n        uint256 _high_bid=_auction.nftHighestBid;\n        uint256 block_time=_auction.periodoSubasta;\n\n        require(block.number > block_time, \"Auction not yet ended.\");\n        require(_auction.active, \"auctionEnd has already been called.\");\n\n        if(_highestBidder==address(0)){\n            //nadie puso dinero, devolver al propietario\n           _auction.active=false;\n            auctions[tokenId]=_auction;\n            hashimaOnAction[tokenId]=false;\n            hashima.transferFrom(address(this), _nftSeller, tokenId);\n            emit AuctionEnded(_nftSeller, _high_bid);  \n        }else{        \n            (bool sent, ) = _nftSeller.call{value: _high_bid}(\"\");\n            if(sent){\n                _auction.active=false;\n                auctions[tokenId]=_auction;\n                hashimaOnAction[tokenId]=false;\n                hashima.transferFrom(address(this), _highestBidder, tokenId);\n                emit AuctionEnded(_highestBidder, _high_bid);\n            }\n        }\n         \n    }\n\n\n    function getMaxBid(uint256 tokenID)public view returns(uint256){\n        return auctions[tokenID].nftHighestBid;\n    }\n\n    function getMinPrice(uint256 tokenID)external view returns(uint256){\n        return auctions[tokenID].minPrice;\n    }\n\n    function onAuction(uint256 tokenID)external view returns(bool){\n        return hashimaOnAction[tokenID];\n    }\n\n\n    function period(uint256 tokenID)external view returns(uint256){\n        return auctions[tokenID].periodoSubasta-block.number;\n    }\n}",
  "sourcePath": "/Users/aarontolentino/Desktop/Contratos_1/hashima/contracts/Auction.sol",
  "compiler": {
    "name": "solc",
    "version": "0.8.3+commit.8d00100c.Emscripten.clang"
  },
  "schemaVersion": "3.4.1",
  "updatedAt": "2022-06-17T18:56:46.001Z",
  "networkType": "ethereum",
  "devdoc": {
    "kind": "dev",
    "methods": {},
    "version": 1
  },
  "userdoc": {
    "kind": "user",
    "methods": {
      "withdraw()": {
        "notice": "Withdraw a bid that was overbid."
      }
    },
    "version": 1
  }
}