{
  "contractName": "Dai",
  "abi": [
    {
      "inputs": [
        {
          "internalType": "uint256",
          "name": "initialSupply",
          "type": "uint256"
        }
      ],
      "stateMutability": "nonpayable",
      "type": "constructor"
    },
    {
      "anonymous": false,
      "inputs": [
        {
          "indexed": true,
          "internalType": "address",
          "name": "owner",
          "type": "address"
        },
        {
          "indexed": true,
          "internalType": "address",
          "name": "spender",
          "type": "address"
        },
        {
          "indexed": false,
          "internalType": "uint256",
          "name": "value",
          "type": "uint256"
        }
      ],
      "name": "Approval",
      "type": "event"
    },
    {
      "anonymous": false,
      "inputs": [
        {
          "indexed": true,
          "internalType": "address",
          "name": "from",
          "type": "address"
        },
        {
          "indexed": true,
          "internalType": "address",
          "name": "to",
          "type": "address"
        },
        {
          "indexed": false,
          "internalType": "uint256",
          "name": "value",
          "type": "uint256"
        }
      ],
      "name": "Transfer",
      "type": "event"
    },
    {
      "inputs": [
        {
          "internalType": "address",
          "name": "owner",
          "type": "address"
        },
        {
          "internalType": "address",
          "name": "spender",
          "type": "address"
        }
      ],
      "name": "allowance",
      "outputs": [
        {
          "internalType": "uint256",
          "name": "",
          "type": "uint256"
        }
      ],
      "stateMutability": "view",
      "type": "function",
      "constant": true
    },
    {
      "inputs": [
        {
          "internalType": "address",
          "name": "spender",
          "type": "address"
        },
        {
          "internalType": "uint256",
          "name": "amount",
          "type": "uint256"
        }
      ],
      "name": "approve",
      "outputs": [
        {
          "internalType": "bool",
          "name": "",
          "type": "bool"
        }
      ],
      "stateMutability": "nonpayable",
      "type": "function"
    },
    {
      "inputs": [
        {
          "internalType": "address",
          "name": "account",
          "type": "address"
        }
      ],
      "name": "balanceOf",
      "outputs": [
        {
          "internalType": "uint256",
          "name": "",
          "type": "uint256"
        }
      ],
      "stateMutability": "view",
      "type": "function",
      "constant": true
    },
    {
      "inputs": [],
      "name": "decimals",
      "outputs": [
        {
          "internalType": "uint8",
          "name": "",
          "type": "uint8"
        }
      ],
      "stateMutability": "view",
      "type": "function",
      "constant": true
    },
    {
      "inputs": [
        {
          "internalType": "address",
          "name": "spender",
          "type": "address"
        },
        {
          "internalType": "uint256",
          "name": "subtractedValue",
          "type": "uint256"
        }
      ],
      "name": "decreaseAllowance",
      "outputs": [
        {
          "internalType": "bool",
          "name": "",
          "type": "bool"
        }
      ],
      "stateMutability": "nonpayable",
      "type": "function"
    },
    {
      "inputs": [
        {
          "internalType": "address",
          "name": "spender",
          "type": "address"
        },
        {
          "internalType": "uint256",
          "name": "addedValue",
          "type": "uint256"
        }
      ],
      "name": "increaseAllowance",
      "outputs": [
        {
          "internalType": "bool",
          "name": "",
          "type": "bool"
        }
      ],
      "stateMutability": "nonpayable",
      "type": "function"
    },
    {
      "inputs": [],
      "name": "name",
      "outputs": [
        {
          "internalType": "string",
          "name": "",
          "type": "string"
        }
      ],
      "stateMutability": "view",
      "type": "function",
      "constant": true
    },
    {
      "inputs": [],
      "name": "symbol",
      "outputs": [
        {
          "internalType": "string",
          "name": "",
          "type": "string"
        }
      ],
      "stateMutability": "view",
      "type": "function",
      "constant": true
    },
    {
      "inputs": [],
      "name": "totalSupply",
      "outputs": [
        {
          "internalType": "uint256",
          "name": "",
          "type": "uint256"
        }
      ],
      "stateMutability": "view",
      "type": "function",
      "constant": true
    },
    {
      "inputs": [
        {
          "internalType": "address",
          "name": "recipient",
          "type": "address"
        },
        {
          "internalType": "uint256",
          "name": "amount",
          "type": "uint256"
        }
      ],
      "name": "transfer",
      "outputs": [
        {
          "internalType": "bool",
          "name": "",
          "type": "bool"
        }
      ],
      "stateMutability": "nonpayable",
      "type": "function"
    },
    {
      "inputs": [
        {
          "internalType": "address",
          "name": "sender",
          "type": "address"
        },
        {
          "internalType": "address",
          "name": "recipient",
          "type": "address"
        },
        {
          "internalType": "uint256",
          "name": "amount",
          "type": "uint256"
        }
      ],
      "name": "transferFrom",
      "outputs": [
        {
          "internalType": "bool",
          "name": "",
          "type": "bool"
        }
      ],
      "stateMutability": "nonpayable",
      "type": "function"
    },
    {
      "inputs": [],
      "name": "recive",
      "outputs": [],
      "stateMutability": "payable",
      "type": "function",
      "payable": true
    },
    {
      "inputs": [],
      "name": "contractBalance",
      "outputs": [
        {
          "internalType": "uint256",
          "name": "",
          "type": "uint256"
        }
      ],
      "stateMutability": "view",
      "type": "function",
      "constant": true
    }
  ],
  "bytecode": "0x60806040523480156200001157600080fd5b5060405162001a2e38038062001a2e83398181016040528101906200003791906200034f565b6040518060400160405280600381526020017f44616900000000000000000000000000000000000000000000000000000000008152506040518060400160405280600381526020017f44414900000000000000000000000000000000000000000000000000000000008152508160039080519060200190620000bb92919062000288565b508060049080519060200190620000d492919062000288565b505050620000fe33670de0b6b3a764000083620000f2919062000460565b6200010560201b60201c565b50620005a2565b600073ffffffffffffffffffffffffffffffffffffffff168273ffffffffffffffffffffffffffffffffffffffff16141562000178576040517f08c379a00000000000000000000000000000000000000000000000000000000081526004016200016f90620003b3565b60405180910390fd5b6200018c600083836200027e60201b60201c565b8060026000828254620001a0919062000403565b92505081905550806000808473ffffffffffffffffffffffffffffffffffffffff1673ffffffffffffffffffffffffffffffffffffffff1681526020019081526020016000206000828254620001f7919062000403565b925050819055508173ffffffffffffffffffffffffffffffffffffffff16600073ffffffffffffffffffffffffffffffffffffffff167fddf252ad1be2c89b69c2b068fc378daa952ba7f163c4a11628f55a4df523b3ef836040516200025e9190620003d5565b60405180910390a36200027a600083836200028360201b60201c565b5050565b505050565b505050565b8280546200029690620004cb565b90600052602060002090601f016020900481019282620002ba576000855562000306565b82601f10620002d557805160ff191683800117855562000306565b8280016001018555821562000306579182015b8281111562000305578251825591602001919060010190620002e8565b5b50905062000315919062000319565b5090565b5b80821115620003345760008160009055506001016200031a565b5090565b600081519050620003498162000588565b92915050565b6000602082840312156200036257600080fd5b6000620003728482850162000338565b91505092915050565b60006200038a601f83620003f2565b915062000397826200055f565b602082019050919050565b620003ad81620004c1565b82525050565b60006020820190508181036000830152620003ce816200037b565b9050919050565b6000602082019050620003ec6000830184620003a2565b92915050565b600082825260208201905092915050565b60006200041082620004c1565b91506200041d83620004c1565b9250827fffffffffffffffffffffffffffffffffffffffffffffffffffffffffffffffff0382111562000455576200045462000501565b5b828201905092915050565b60006200046d82620004c1565b91506200047a83620004c1565b9250817fffffffffffffffffffffffffffffffffffffffffffffffffffffffffffffffff0483118215151615620004b657620004b562000501565b5b828202905092915050565b6000819050919050565b60006002820490506001821680620004e457607f821691505b60208210811415620004fb57620004fa62000530565b5b50919050565b7f4e487b7100000000000000000000000000000000000000000000000000000000600052601160045260246000fd5b7f4e487b7100000000000000000000000000000000000000000000000000000000600052602260045260246000fd5b7f45524332303a206d696e7420746f20746865207a65726f206164647265737300600082015250565b6200059381620004c1565b81146200059f57600080fd5b50565b61147c80620005b26000396000f3fe6080604052600436106100c25760003560e01c8063395093511161007f57806395d89b411161005957806395d89b4114610271578063a457c2d71461029c578063a9059cbb146102d9578063dd62ed3e14610316576100c2565b806339509351146101cc57806370a08231146102095780638b7afe2e14610246576100c2565b806306fdde03146100c7578063095ea7b3146100f257806318160ddd1461012f57806323b872dd1461015a578063313ce5671461019757806335897cad146101c2575b600080fd5b3480156100d357600080fd5b506100dc610353565b6040516100e99190610f1c565b60405180910390f35b3480156100fe57600080fd5b5061011960048036038101906101149190610d6a565b6103e5565b6040516101269190610f01565b60405180910390f35b34801561013b57600080fd5b50610144610403565b604051610151919061101e565b60405180910390f35b34801561016657600080fd5b50610181600480360381019061017c9190610d1b565b61040d565b60405161018e9190610f01565b60405180910390f35b3480156101a357600080fd5b506101ac610505565b6040516101b99190611039565b60405180910390f35b6101ca61050e565b005b3480156101d857600080fd5b506101f360048036038101906101ee9190610d6a565b610510565b6040516102009190610f01565b60405180910390f35b34801561021557600080fd5b50610230600480360381019061022b9190610cb6565b6105bc565b60405161023d919061101e565b60405180910390f35b34801561025257600080fd5b5061025b610604565b604051610268919061101e565b60405180910390f35b34801561027d57600080fd5b5061028661060c565b6040516102939190610f1c565b60405180910390f35b3480156102a857600080fd5b506102c360048036038101906102be9190610d6a565b61069e565b6040516102d09190610f01565b60405180910390f35b3480156102e557600080fd5b5061030060048036038101906102fb9190610d6a565b610789565b60405161030d9190610f01565b60405180910390f35b34801561032257600080fd5b5061033d60048036038101906103389190610cdf565b6107a7565b60405161034a919061101e565b60405180910390f35b6060600380546103629061114e565b80601f016020809104026020016040519081016040528092919081815260200182805461038e9061114e565b80156103db5780601f106103b0576101008083540402835291602001916103db565b820191906000526020600020905b8154815290600101906020018083116103be57829003601f168201915b5050505050905090565b60006103f96103f261082e565b8484610836565b6001905092915050565b6000600254905090565b600061041a848484610a01565b6000600160008673ffffffffffffffffffffffffffffffffffffffff1673ffffffffffffffffffffffffffffffffffffffff168152602001908152602001600020600061046561082e565b73ffffffffffffffffffffffffffffffffffffffff1673ffffffffffffffffffffffffffffffffffffffff168152602001908152602001600020549050828110156104e5576040517f08c379a00000000000000000000000000000000000000000000000000000000081526004016104dc90610f9e565b60405180910390fd5b6104f9856104f161082e565b858403610836565b60019150509392505050565b60006012905090565b565b60006105b261051d61082e565b84846001600061052b61082e565b73ffffffffffffffffffffffffffffffffffffffff1673ffffffffffffffffffffffffffffffffffffffff16815260200190815260200160002060008873ffffffffffffffffffffffffffffffffffffffff1673ffffffffffffffffffffffffffffffffffffffff168152602001908152602001600020546105ad9190611070565b610836565b6001905092915050565b60008060008373ffffffffffffffffffffffffffffffffffffffff1673ffffffffffffffffffffffffffffffffffffffff168152602001908152602001600020549050919050565b600047905090565b60606004805461061b9061114e565b80601f01602080910402602001604051908101604052809291908181526020018280546106479061114e565b80156106945780601f1061066957610100808354040283529160200191610694565b820191906000526020600020905b81548152906001019060200180831161067757829003601f168201915b5050505050905090565b600080600160006106ad61082e565b73ffffffffffffffffffffffffffffffffffffffff1673ffffffffffffffffffffffffffffffffffffffff16815260200190815260200160002060008573ffffffffffffffffffffffffffffffffffffffff1673ffffffffffffffffffffffffffffffffffffffff1681526020019081526020016000205490508281101561076a576040517f08c379a000000000000000000000000000000000000000000000000000000000815260040161076190610ffe565b60405180910390fd5b61077e61077561082e565b85858403610836565b600191505092915050565b600061079d61079661082e565b8484610a01565b6001905092915050565b6000600160008473ffffffffffffffffffffffffffffffffffffffff1673ffffffffffffffffffffffffffffffffffffffff16815260200190815260200160002060008373ffffffffffffffffffffffffffffffffffffffff1673ffffffffffffffffffffffffffffffffffffffff16815260200190815260200160002054905092915050565b600033905090565b600073ffffffffffffffffffffffffffffffffffffffff168373ffffffffffffffffffffffffffffffffffffffff1614156108a6576040517f08c379a000000000000000000000000000000000000000000000000000000000815260040161089d90610fde565b60405180910390fd5b600073ffffffffffffffffffffffffffffffffffffffff168273ffffffffffffffffffffffffffffffffffffffff161415610916576040517f08c379a000000000000000000000000000000000000000000000000000000000815260040161090d90610f5e565b60405180910390fd5b80600160008573ffffffffffffffffffffffffffffffffffffffff1673ffffffffffffffffffffffffffffffffffffffff16815260200190815260200160002060008473ffffffffffffffffffffffffffffffffffffffff1673ffffffffffffffffffffffffffffffffffffffff168152602001908152602001600020819055508173ffffffffffffffffffffffffffffffffffffffff168373ffffffffffffffffffffffffffffffffffffffff167f8c5be1e5ebec7d5bd14f71427d1e84f3dd0314c0f7b2291e5b200ac8c7c3b925836040516109f4919061101e565b60405180910390a3505050565b600073ffffffffffffffffffffffffffffffffffffffff168373ffffffffffffffffffffffffffffffffffffffff161415610a71576040517f08c379a0000000000000000000000000000000000000000000000000000000008152600401610a6890610fbe565b60405180910390fd5b600073ffffffffffffffffffffffffffffffffffffffff168273ffffffffffffffffffffffffffffffffffffffff161415610ae1576040517f08c379a0000000000000000000000000000000000000000000000000000000008152600401610ad890610f3e565b60405180910390fd5b610aec838383610c82565b60008060008573ffffffffffffffffffffffffffffffffffffffff1673ffffffffffffffffffffffffffffffffffffffff16815260200190815260200160002054905081811015610b72576040517f08c379a0000000000000000000000000000000000000000000000000000000008152600401610b6990610f7e565b60405180910390fd5b8181036000808673ffffffffffffffffffffffffffffffffffffffff1673ffffffffffffffffffffffffffffffffffffffff16815260200190815260200160002081905550816000808573ffffffffffffffffffffffffffffffffffffffff1673ffffffffffffffffffffffffffffffffffffffff1681526020019081526020016000206000828254610c059190611070565b925050819055508273ffffffffffffffffffffffffffffffffffffffff168473ffffffffffffffffffffffffffffffffffffffff167fddf252ad1be2c89b69c2b068fc378daa952ba7f163c4a11628f55a4df523b3ef84604051610c69919061101e565b60405180910390a3610c7c848484610c87565b50505050565b505050565b505050565b600081359050610c9b81611418565b92915050565b600081359050610cb08161142f565b92915050565b600060208284031215610cc857600080fd5b6000610cd684828501610c8c565b91505092915050565b60008060408385031215610cf257600080fd5b6000610d0085828601610c8c565b9250506020610d1185828601610c8c565b9150509250929050565b600080600060608486031215610d3057600080fd5b6000610d3e86828701610c8c565b9350506020610d4f86828701610c8c565b9250506040610d6086828701610ca1565b9150509250925092565b60008060408385031215610d7d57600080fd5b6000610d8b85828601610c8c565b9250506020610d9c85828601610ca1565b9150509250929050565b610daf816110d8565b82525050565b6000610dc082611054565b610dca818561105f565b9350610dda81856020860161111b565b610de3816111de565b840191505092915050565b6000610dfb60238361105f565b9150610e06826111ef565b604082019050919050565b6000610e1e60228361105f565b9150610e298261123e565b604082019050919050565b6000610e4160268361105f565b9150610e4c8261128d565b604082019050919050565b6000610e6460288361105f565b9150610e6f826112dc565b604082019050919050565b6000610e8760258361105f565b9150610e928261132b565b604082019050919050565b6000610eaa60248361105f565b9150610eb58261137a565b604082019050919050565b6000610ecd60258361105f565b9150610ed8826113c9565b604082019050919050565b610eec81611104565b82525050565b610efb8161110e565b82525050565b6000602082019050610f166000830184610da6565b92915050565b60006020820190508181036000830152610f368184610db5565b905092915050565b60006020820190508181036000830152610f5781610dee565b9050919050565b60006020820190508181036000830152610f7781610e11565b9050919050565b60006020820190508181036000830152610f9781610e34565b9050919050565b60006020820190508181036000830152610fb781610e57565b9050919050565b60006020820190508181036000830152610fd781610e7a565b9050919050565b60006020820190508181036000830152610ff781610e9d565b9050919050565b6000602082019050818103600083015261101781610ec0565b9050919050565b60006020820190506110336000830184610ee3565b92915050565b600060208201905061104e6000830184610ef2565b92915050565b600081519050919050565b600082825260208201905092915050565b600061107b82611104565b915061108683611104565b9250827fffffffffffffffffffffffffffffffffffffffffffffffffffffffffffffffff038211156110bb576110ba611180565b5b828201905092915050565b60006110d1826110e4565b9050919050565b60008115159050919050565b600073ffffffffffffffffffffffffffffffffffffffff82169050919050565b6000819050919050565b600060ff82169050919050565b60005b8381101561113957808201518184015260208101905061111e565b83811115611148576000848401525b50505050565b6000600282049050600182168061116657607f821691505b6020821081141561117a576111796111af565b5b50919050565b7f4e487b7100000000000000000000000000000000000000000000000000000000600052601160045260246000fd5b7f4e487b7100000000000000000000000000000000000000000000000000000000600052602260045260246000fd5b6000601f19601f8301169050919050565b7f45524332303a207472616e7366657220746f20746865207a65726f206164647260008201527f6573730000000000000000000000000000000000000000000000000000000000602082015250565b7f45524332303a20617070726f766520746f20746865207a65726f20616464726560008201527f7373000000000000000000000000000000000000000000000000000000000000602082015250565b7f45524332303a207472616e7366657220616d6f756e742065786365656473206260008201527f616c616e63650000000000000000000000000000000000000000000000000000602082015250565b7f45524332303a207472616e7366657220616d6f756e742065786365656473206160008201527f6c6c6f77616e6365000000000000000000000000000000000000000000000000602082015250565b7f45524332303a207472616e736665722066726f6d20746865207a65726f20616460008201527f6472657373000000000000000000000000000000000000000000000000000000602082015250565b7f45524332303a20617070726f76652066726f6d20746865207a65726f2061646460008201527f7265737300000000000000000000000000000000000000000000000000000000602082015250565b7f45524332303a2064656372656173656420616c6c6f77616e63652062656c6f7760008201527f207a65726f000000000000000000000000000000000000000000000000000000602082015250565b611421816110c6565b811461142c57600080fd5b50565b61143881611104565b811461144357600080fd5b5056fea26469706673582212207e5d689d7c9b0190c798d23e97b6679d98f6c39c4564edb3ba22529cfb5a052964736f6c63430008030033",
  "immutableReferences": {},
  "source": "// SPDX-License-Identifier: MIT\npragma solidity >=0.4.22 <0.9.0;\nimport \"@openzeppelin/contracts/token/ERC20/ERC20.sol\";\n\ncontract Dai is ERC20 {\n\n    constructor(uint256 initialSupply) ERC20(\"Dai\", \"DAI\") {\n        _mint(msg.sender, initialSupply*10**18);\n    }\n\n    function recive()external payable{}\n\n\n    function contractBalance()public view returns(uint){\n        return address(this).balance;\n    }\n\n    \n}",
  "sourcePath": "/Users/aarontolentino/Desktop/hashima/contracts/Dai.sol",
  "compiler": {
    "name": "solc",
    "version": "0.8.3+commit.8d00100c.Emscripten.clang"
  },
  "schemaVersion": "3.4.1",
  "updatedAt": "2022-01-18T21:19:12.441Z",
  "networkType": "ethereum",
  "devdoc": {
    "kind": "dev",
    "methods": {
      "allowance(address,address)": {
        "details": "See {IERC20-allowance}."
      },
      "approve(address,uint256)": {
        "details": "See {IERC20-approve}. Requirements: - `spender` cannot be the zero address."
      },
      "balanceOf(address)": {
        "details": "See {IERC20-balanceOf}."
      },
      "decimals()": {
        "details": "Returns the number of decimals used to get its user representation. For example, if `decimals` equals `2`, a balance of `505` tokens should be displayed to a user as `5.05` (`505 / 10 ** 2`). Tokens usually opt for a value of 18, imitating the relationship between Ether and Wei. This is the value {ERC20} uses, unless this function is overridden; NOTE: This information is only used for _display_ purposes: it in no way affects any of the arithmetic of the contract, including {IERC20-balanceOf} and {IERC20-transfer}."
      },
      "decreaseAllowance(address,uint256)": {
        "details": "Atomically decreases the allowance granted to `spender` by the caller. This is an alternative to {approve} that can be used as a mitigation for problems described in {IERC20-approve}. Emits an {Approval} event indicating the updated allowance. Requirements: - `spender` cannot be the zero address. - `spender` must have allowance for the caller of at least `subtractedValue`."
      },
      "increaseAllowance(address,uint256)": {
        "details": "Atomically increases the allowance granted to `spender` by the caller. This is an alternative to {approve} that can be used as a mitigation for problems described in {IERC20-approve}. Emits an {Approval} event indicating the updated allowance. Requirements: - `spender` cannot be the zero address."
      },
      "name()": {
        "details": "Returns the name of the token."
      },
      "symbol()": {
        "details": "Returns the symbol of the token, usually a shorter version of the name."
      },
      "totalSupply()": {
        "details": "See {IERC20-totalSupply}."
      },
      "transfer(address,uint256)": {
        "details": "See {IERC20-transfer}. Requirements: - `recipient` cannot be the zero address. - the caller must have a balance of at least `amount`."
      },
      "transferFrom(address,address,uint256)": {
        "details": "See {IERC20-transferFrom}. Emits an {Approval} event indicating the updated allowance. This is not required by the EIP. See the note at the beginning of {ERC20}. Requirements: - `sender` and `recipient` cannot be the zero address. - `sender` must have a balance of at least `amount`. - the caller must have allowance for ``sender``'s tokens of at least `amount`."
      }
    },
    "version": 1
  },
  "userdoc": {
    "kind": "user",
    "methods": {},
    "version": 1
  }
}