{
  "contractName": "HashLock",
  "abi": [
    {
      "anonymous": false,
      "inputs": [
        {
          "indexed": true,
          "internalType": "bytes32",
          "name": "contractId",
          "type": "bytes32"
        },
        {
          "indexed": true,
          "internalType": "address",
          "name": "sender",
          "type": "address"
        },
        {
          "indexed": true,
          "internalType": "address",
          "name": "receiver",
          "type": "address"
        },
        {
          "indexed": false,
          "internalType": "address",
          "name": "tokenContract",
          "type": "address"
        },
        {
          "indexed": false,
          "internalType": "uint256",
          "name": "amount",
          "type": "uint256"
        },
        {
          "indexed": false,
          "internalType": "uint256",
          "name": "timelock",
          "type": "uint256"
        }
      ],
      "name": "HTLCERC20New",
      "type": "event"
    },
    {
      "anonymous": false,
      "inputs": [
        {
          "indexed": true,
          "internalType": "bytes32",
          "name": "contractId",
          "type": "bytes32"
        }
      ],
      "name": "HTLCERC20Refund",
      "type": "event"
    },
    {
      "anonymous": false,
      "inputs": [
        {
          "indexed": true,
          "internalType": "bytes32",
          "name": "contractId",
          "type": "bytes32"
        }
      ],
      "name": "HTLCERC20Withdraw",
      "type": "event"
    },
    {
      "inputs": [
        {
          "internalType": "address",
          "name": "_receiver",
          "type": "address"
        },
        {
          "internalType": "bytes32",
          "name": "_hashlock",
          "type": "bytes32"
        },
        {
          "internalType": "uint256",
          "name": "_timelock",
          "type": "uint256"
        },
        {
          "internalType": "address",
          "name": "_tokenContract",
          "type": "address"
        },
        {
          "internalType": "uint256",
          "name": "_amount",
          "type": "uint256"
        }
      ],
      "name": "newContract",
      "outputs": [
        {
          "internalType": "bytes32",
          "name": "contractId",
          "type": "bytes32"
        }
      ],
      "stateMutability": "nonpayable",
      "type": "function"
    },
    {
      "inputs": [
        {
          "internalType": "bytes32",
          "name": "_contractId",
          "type": "bytes32"
        },
        {
          "internalType": "bytes32",
          "name": "_preimage",
          "type": "bytes32"
        },
        {
          "internalType": "string",
          "name": "_firma",
          "type": "string"
        }
      ],
      "name": "withdraw",
      "outputs": [
        {
          "internalType": "bool",
          "name": "",
          "type": "bool"
        }
      ],
      "stateMutability": "nonpayable",
      "type": "function"
    },
    {
      "inputs": [
        {
          "internalType": "bytes32",
          "name": "_contractId",
          "type": "bytes32"
        }
      ],
      "name": "refund",
      "outputs": [
        {
          "internalType": "bool",
          "name": "",
          "type": "bool"
        }
      ],
      "stateMutability": "nonpayable",
      "type": "function"
    },
    {
      "inputs": [
        {
          "internalType": "bytes32",
          "name": "_contractId",
          "type": "bytes32"
        }
      ],
      "name": "getContract",
      "outputs": [
        {
          "internalType": "address",
          "name": "sender",
          "type": "address"
        },
        {
          "internalType": "address",
          "name": "receiver",
          "type": "address"
        },
        {
          "internalType": "address",
          "name": "tokenContract",
          "type": "address"
        },
        {
          "internalType": "uint256",
          "name": "amount",
          "type": "uint256"
        },
        {
          "internalType": "bytes32",
          "name": "hashlock",
          "type": "bytes32"
        },
        {
          "internalType": "uint256",
          "name": "timelock",
          "type": "uint256"
        },
        {
          "internalType": "bool",
          "name": "withdrawn",
          "type": "bool"
        },
        {
          "internalType": "bool",
          "name": "refunded",
          "type": "bool"
        },
        {
          "internalType": "bytes32",
          "name": "preimage",
          "type": "bytes32"
        }
      ],
      "stateMutability": "view",
      "type": "function",
      "constant": true
    },
    {
      "inputs": [
        {
          "internalType": "string",
          "name": "_input",
          "type": "string"
        }
      ],
      "name": "calcular",
      "outputs": [
        {
          "internalType": "bytes32",
          "name": "",
          "type": "bytes32"
        }
      ],
      "stateMutability": "pure",
      "type": "function",
      "constant": true
    },
    {
      "inputs": [
        {
          "internalType": "bytes32",
          "name": "_contractId",
          "type": "bytes32"
        },
        {
          "internalType": "string",
          "name": "_x",
          "type": "string"
        }
      ],
      "name": "checkHash",
      "outputs": [],
      "stateMutability": "view",
      "type": "function",
      "constant": true
    },
    {
      "inputs": [
        {
          "internalType": "address",
          "name": "_tokenContract",
          "type": "address"
        },
        {
          "internalType": "uint256",
          "name": "_amount",
          "type": "uint256"
        }
      ],
      "name": "aprovarGasto",
      "outputs": [],
      "stateMutability": "nonpayable",
      "type": "function"
    }
  ],
  "bytecode": "0x608060405234801561001057600080fd5b50611fdf806100206000396000f3fe608060405234801561001057600080fd5b506004361061007d5760003560e01c80637309ed361161005b5780637309ed3614610112578063b48dec4214610142578063e16c7d981461015e578063e180c850146101965761007d565b8063398a7a981461008257806354216f10146100b25780637249fbb6146100e2575b600080fd5b61009c600480360381019061009791906111b7565b6101b2565b6040516100a991906118ce565b60405180910390f35b6100cc60048036038101906100c791906112e5565b6106f1565b6040516100d991906118b3565b60405180910390f35b6100fc60048036038101906100f79190611293565b610a66565b60405161010991906118b3565b60405180910390f35b61012c600480360381019061012791906113a0565b610dc5565b60405161013991906118ce565b60405180910390f35b61015c6004803603810190610157919061122e565b610e3d565b005b61017860048036038101906101739190611293565b610ecf565b60405161018d9998979695949392919061178f565b60405180910390f35b6101b060048036038101906101ab919061134c565b611000565b005b6000823383600081116101fa576040517f08c379a00000000000000000000000000000000000000000000000000000000081526004016101f190611a8b565b60405180910390fd5b808373ffffffffffffffffffffffffffffffffffffffff1663dd62ed3e84306040518363ffffffff1660e01b8152600401610236929190611766565b60206040518083038186803b15801561024e57600080fd5b505afa158015610262573d6000803e3d6000fd5b505050506040513d601f19601f8201168201806040525081019061028691906113e1565b10156102c7576040517f08c379a00000000000000000000000000000000000000000000000000000000081526004016102be90611a0b565b60405180910390fd5b8642811161030a576040517f08c379a00000000000000000000000000000000000000000000000000000000081526004016103019061190b565b60405180910390fd5b6002338b89898d8d604051602001610327969594939291906116df565b604051602081830303815290604052604051610343919061174f565b602060405180830381855afa158015610360573d6000803e3d6000fd5b5050506040513d601f19601f8201168201806040525081019061038391906112bc565b945061038e85611063565b156103ce576040517f08c379a00000000000000000000000000000000000000000000000000000000081526004016103c59061198b565b60405180910390fd5b8673ffffffffffffffffffffffffffffffffffffffff166323b872dd3330896040518463ffffffff1660e01b815260040161040b9392919061181c565b602060405180830381600087803b15801561042557600080fd5b505af1158015610439573d6000803e3d6000fd5b505050506040513d601f19601f8201168201806040525081019061045d919061126a565b61049c576040517f08c379a0000000000000000000000000000000000000000000000000000000008152600401610493906119cb565b60405180910390fd5b6040518061012001604052803373ffffffffffffffffffffffffffffffffffffffff1681526020018b73ffffffffffffffffffffffffffffffffffffffff1681526020018873ffffffffffffffffffffffffffffffffffffffff1681526020018781526020018a81526020018981526020016000151581526020016000151581526020016000801b81525060008087815260200190815260200160002060008201518160000160006101000a81548173ffffffffffffffffffffffffffffffffffffffff021916908373ffffffffffffffffffffffffffffffffffffffff16021790555060208201518160010160006101000a81548173ffffffffffffffffffffffffffffffffffffffff021916908373ffffffffffffffffffffffffffffffffffffffff16021790555060408201518160020160006101000a81548173ffffffffffffffffffffffffffffffffffffffff021916908373ffffffffffffffffffffffffffffffffffffffff160217905550606082015181600301556080820151816004015560a0820151816005015560c08201518160060160006101000a81548160ff02191690831515021790555060e08201518160060160016101000a81548160ff02191690831515021790555061010082015181600701559050508973ffffffffffffffffffffffffffffffffffffffff163373ffffffffffffffffffffffffffffffffffffffff16867fc3890027c293c9637b3b50169e7df14ccb82bfaf1a65062c93c208f8e5aba36c8a8a8d6040516106dc9392919061187c565b60405180910390a45050505095945050505050565b6000836106fd81611063565b61073c576040517f08c379a00000000000000000000000000000000000000000000000000000000081526004016107339061194b565b60405180910390fd5b848361074781610dc5565b600080848152602001908152602001600020600401541461079d576040517f08c379a000000000000000000000000000000000000000000000000000000000815260040161079490611aab565b60405180910390fd5b863373ffffffffffffffffffffffffffffffffffffffff1660008083815260200190815260200160002060010160009054906101000a900473ffffffffffffffffffffffffffffffffffffffff1673ffffffffffffffffffffffffffffffffffffffff1614610841576040517f08c379a00000000000000000000000000000000000000000000000000000000081526004016108389061192b565b60405180910390fd5b6000151560008083815260200190815260200160002060060160009054906101000a900460ff161515146108aa576040517f08c379a00000000000000000000000000000000000000000000000000000000081526004016108a190611a2b565b60405180910390fd5b6000151560008083815260200190815260200160002060060160019054906101000a900460ff16151514610913576040517f08c379a000000000000000000000000000000000000000000000000000000000815260040161090a90611a4b565b60405180910390fd5b60008060008a8152602001908152602001600020905087816007018190555060018160060160006101000a81548160ff0219169083151502179055508060020160009054906101000a900473ffffffffffffffffffffffffffffffffffffffff1673ffffffffffffffffffffffffffffffffffffffff1663a9059cbb8260010160009054906101000a900473ffffffffffffffffffffffffffffffffffffffff1683600301546040518363ffffffff1660e01b81526004016109d6929190611853565b602060405180830381600087803b1580156109f057600080fd5b505af1158015610a04573d6000803e3d6000fd5b505050506040513d601f19601f82011682018060405250810190610a28919061126a565b50887f15a71365fee30a355046c80d10aab98a49c3558b2272658d6c551733203e9bbe60405160405180910390a26001955050505050509392505050565b600081610a7281611063565b610ab1576040517f08c379a0000000000000000000000000000000000000000000000000000000008152600401610aa89061194b565b60405180910390fd5b823373ffffffffffffffffffffffffffffffffffffffff1660008083815260200190815260200160002060000160009054906101000a900473ffffffffffffffffffffffffffffffffffffffff1673ffffffffffffffffffffffffffffffffffffffff1614610b55576040517f08c379a0000000000000000000000000000000000000000000000000000000008152600401610b4c90611a6b565b60405180910390fd5b6000151560008083815260200190815260200160002060060160019054906101000a900460ff16151514610bbe576040517f08c379a0000000000000000000000000000000000000000000000000000000008152600401610bb5906119eb565b60405180910390fd5b6000151560008083815260200190815260200160002060060160009054906101000a900460ff16151514610c27576040517f08c379a0000000000000000000000000000000000000000000000000000000008152600401610c1e9061196b565b60405180910390fd5b42600080838152602001908152602001600020600501541115610c7f576040517f08c379a0000000000000000000000000000000000000000000000000000000008152600401610c76906119ab565b60405180910390fd5b6000806000868152602001908152602001600020905060018160060160016101000a81548160ff0219169083151502179055508060020160009054906101000a900473ffffffffffffffffffffffffffffffffffffffff1673ffffffffffffffffffffffffffffffffffffffff1663a9059cbb8260000160009054906101000a900473ffffffffffffffffffffffffffffffffffffffff1683600301546040518363ffffffff1660e01b8152600401610d39929190611853565b602060405180830381600087803b158015610d5357600080fd5b505af1158015610d67573d6000803e3d6000fd5b505050506040513d601f19601f82011682018060405250810190610d8b919061126a565b50847ff97bb6718c3bf29e51d27c00a46276abc2cf35c7f1d5a1c71bec2c82421bb83060405160405180910390a260019350505050919050565b6000600282604051602001610dda91906118e9565b604051602081830303815290604052604051610df6919061174f565b602060405180830381855afa158015610e13573d6000803e3d6000fd5b5050506040513d601f19601f82011682018060405250810190610e3691906112bc565b9050919050565b8173ffffffffffffffffffffffffffffffffffffffff1663095ea7b330836040518363ffffffff1660e01b8152600401610e78929190611853565b602060405180830381600087803b158015610e9257600080fd5b505af1158015610ea6573d6000803e3d6000fd5b505050506040513d601f19601f82011682018060405250810190610eca919061126a565b505050565b6000806000806000806000806000801515610ee98b611063565b15151415610f225760008060008060008060008060008460001b94508060001b9050985098509850985098509850985098509850610ff3565b60008060008c815260200190815260200160002090508060000160009054906101000a900473ffffffffffffffffffffffffffffffffffffffff168160010160009054906101000a900473ffffffffffffffffffffffffffffffffffffffff168260020160009054906101000a900473ffffffffffffffffffffffffffffffffffffffff168360030154846004015485600501548660060160009054906101000a900460ff168760060160019054906101000a900460ff168860070154995099509950995099509950995099509950505b9193959799909294969850565b61100981610dc5565b600080848152602001908152602001600020600401541461105f576040517f08c379a000000000000000000000000000000000000000000000000000000000815260040161105690611aab565b60405180910390fd5b5050565b60008073ffffffffffffffffffffffffffffffffffffffff1660008084815260200190815260200160002060000160009054906101000a900473ffffffffffffffffffffffffffffffffffffffff1673ffffffffffffffffffffffffffffffffffffffff1614159050919050565b60006110e46110df84611af0565b611acb565b9050828152602081018484840111156110fc57600080fd5b611107848285611ba5565b509392505050565b60008135905061111e81611f4d565b92915050565b60008151905061113381611f64565b92915050565b60008135905061114881611f7b565b92915050565b60008151905061115d81611f7b565b92915050565b600082601f83011261117457600080fd5b81356111848482602086016110d1565b91505092915050565b60008135905061119c81611f92565b92915050565b6000815190506111b181611f92565b92915050565b600080600080600060a086880312156111cf57600080fd5b60006111dd8882890161110f565b95505060206111ee88828901611139565b94505060406111ff8882890161118d565b93505060606112108882890161110f565b92505060806112218882890161118d565b9150509295509295909350565b6000806040838503121561124157600080fd5b600061124f8582860161110f565b92505060206112608582860161118d565b9150509250929050565b60006020828403121561127c57600080fd5b600061128a84828501611124565b91505092915050565b6000602082840312156112a557600080fd5b60006112b384828501611139565b91505092915050565b6000602082840312156112ce57600080fd5b60006112dc8482850161114e565b91505092915050565b6000806000606084860312156112fa57600080fd5b600061130886828701611139565b935050602061131986828701611139565b925050604084013567ffffffffffffffff81111561133657600080fd5b61134286828701611163565b9150509250925092565b6000806040838503121561135f57600080fd5b600061136d85828601611139565b925050602083013567ffffffffffffffff81111561138a57600080fd5b61139685828601611163565b9150509250929050565b6000602082840312156113b257600080fd5b600082013567ffffffffffffffff8111156113cc57600080fd5b6113d884828501611163565b91505092915050565b6000602082840312156113f357600080fd5b6000611401848285016111a2565b91505092915050565b61141381611b53565b82525050565b61142a61142582611b53565b611c18565b82525050565b61143981611b65565b82525050565b61144881611b71565b82525050565b61145f61145a82611b71565b611c2a565b82525050565b600061147082611b21565b61147a8185611b37565b935061148a818560208601611bb4565b80840191505092915050565b60006114a182611b2c565b6114ab8185611b42565b93506114bb818560208601611bb4565b6114c481611c7f565b840191505092915050565b60006114dc602383611b42565b91506114e782611c9d565b604082019050919050565b60006114ff601a83611b42565b915061150a82611cec565b602082019050919050565b6000611522601983611b42565b915061152d82611d15565b602082019050919050565b6000611545601d83611b42565b915061155082611d3e565b602082019050919050565b6000611568601783611b42565b915061157382611d67565b602082019050919050565b600061158b602383611b42565b915061159682611d90565b604082019050919050565b60006115ae601983611b42565b91506115b982611ddf565b602082019050919050565b60006115d1601c83611b42565b91506115dc82611e08565b602082019050919050565b60006115f4602183611b42565b91506115ff82611e31565b604082019050919050565b6000611617601f83611b42565b915061162282611e80565b602082019050919050565b600061163a601e83611b42565b915061164582611ea9565b602082019050919050565b600061165d601683611b42565b915061166882611ed2565b602082019050919050565b6000611680601883611b42565b915061168b82611efb565b602082019050919050565b60006116a3601c83611b42565b91506116ae82611f24565b602082019050919050565b6116c281611b9b565b82525050565b6116d96116d482611b9b565b611c46565b82525050565b60006116eb8289611419565b6014820191506116fb8288611419565b60148201915061170b8287611419565b60148201915061171b82866116c8565b60208201915061172b828561144e565b60208201915061173b82846116c8565b602082019150819050979650505050505050565b600061175b8284611465565b915081905092915050565b600060408201905061177b600083018561140a565b611788602083018461140a565b9392505050565b6000610120820190506117a5600083018c61140a565b6117b2602083018b61140a565b6117bf604083018a61140a565b6117cc60608301896116b9565b6117d9608083018861143f565b6117e660a08301876116b9565b6117f360c0830186611430565b61180060e0830185611430565b61180e61010083018461143f565b9a9950505050505050505050565b6000606082019050611831600083018661140a565b61183e602083018561140a565b61184b60408301846116b9565b949350505050565b6000604082019050611868600083018561140a565b61187560208301846116b9565b9392505050565b6000606082019050611891600083018661140a565b61189e60208301856116b9565b6118ab60408301846116b9565b949350505050565b60006020820190506118c86000830184611430565b92915050565b60006020820190506118e3600083018461143f565b92915050565b600060208201905081810360008301526119038184611496565b905092915050565b60006020820190508181036000830152611924816114cf565b9050919050565b60006020820190508181036000830152611944816114f2565b9050919050565b6000602082019050818103600083015261196481611515565b9050919050565b6000602082019050818103600083015261198481611538565b9050919050565b600060208201905081810360008301526119a48161155b565b9050919050565b600060208201905081810360008301526119c48161157e565b9050919050565b600060208201905081810360008301526119e4816115a1565b9050919050565b60006020820190508181036000830152611a04816115c4565b9050919050565b60006020820190508181036000830152611a24816115e7565b9050919050565b60006020820190508181036000830152611a448161160a565b9050919050565b60006020820190508181036000830152611a648161162d565b9050919050565b60006020820190508181036000830152611a8481611650565b9050919050565b60006020820190508181036000830152611aa481611673565b9050919050565b60006020820190508181036000830152611ac481611696565b9050919050565b6000611ad5611ae6565b9050611ae18282611be7565b919050565b6000604051905090565b600067ffffffffffffffff821115611b0b57611b0a611c50565b5b611b1482611c7f565b9050602081019050919050565b600081519050919050565b600081519050919050565b600081905092915050565b600082825260208201905092915050565b6000611b5e82611b7b565b9050919050565b60008115159050919050565b6000819050919050565b600073ffffffffffffffffffffffffffffffffffffffff82169050919050565b6000819050919050565b82818337600083830152505050565b60005b83811015611bd2578082015181840152602081019050611bb7565b83811115611be1576000848401525b50505050565b611bf082611c7f565b810181811067ffffffffffffffff82111715611c0f57611c0e611c50565b5b80604052505050565b6000611c2382611c34565b9050919050565b6000819050919050565b6000611c3f82611c90565b9050919050565b6000819050919050565b7f4e487b7100000000000000000000000000000000000000000000000000000000600052604160045260246000fd5b6000601f19601f8301169050919050565b60008160601b9050919050565b7f74696d656c6f636b2074696d65206d75737420626520696e207468652066757460008201527f7572650000000000000000000000000000000000000000000000000000000000602082015250565b7f776974686472617761626c653a206e6f74207265636569766572000000000000600082015250565b7f636f6e7472616374496420646f6573206e6f7420657869737400000000000000600082015250565b7f726566756e6461626c653a20616c72656164792077697468647261776e000000600082015250565b7f436f6e747261637420616c726561647920657869737473000000000000000000600082015250565b7f726566756e6461626c653a2074696d656c6f636b206e6f74207965742070617360008201527f7365640000000000000000000000000000000000000000000000000000000000602082015250565b7f7472616e7366657246726f6d2073656e6465722066616c6c6f00000000000000600082015250565b7f726566756e6461626c653a20616c726561647920726566756e64656400000000600082015250565b7f746f6b656e20616c6c6f77616e6365206d757374206265203e3d20616d6f756e60008201527f7400000000000000000000000000000000000000000000000000000000000000602082015250565b7f776974686472617761626c653a20616c72656164792077697468647261776e00600082015250565b7f776974686472617761626c653a20616c726561647920726566756e6465640000600082015250565b7f726566756e6461626c653a206e6f742073656e64657200000000000000000000600082015250565b7f746f6b656e20616d6f756e74206d757374206265203e20300000000000000000600082015250565b7f686173686c6f636b206861736820646f6573206e6f74206d6174636800000000600082015250565b611f5681611b53565b8114611f6157600080fd5b50565b611f6d81611b65565b8114611f7857600080fd5b50565b611f8481611b71565b8114611f8f57600080fd5b50565b611f9b81611b9b565b8114611fa657600080fd5b5056fea26469706673582212201e10abac6cb45d505204d31a6b9cbf4c471d6a6bfc25fb1c1e291eb9c73acbd364736f6c63430008030033",
  "immutableReferences": {},
  "source": "// SPDX-License-Identifier: MIT\npragma solidity >=0.4.22 <0.9.0;\nimport \"@openzeppelin/contracts/token/ERC20/ERC20.sol\";\n\n\n/**\n* @title Hashed Timelock Contracts (HTLCs) on Ethereum ERC20 tokens.\n*\n* This contract provides a way to create and keep HTLCs for ERC20 tokens.\n*\n* See HashedTimelock.sol for a contract that provides the same functions\n* for the native ETH token.\n*\n* Protocol:\n*\n*  1) newContract(receiver, hashlock, timelock, tokenContract, amount) - a\n*      sender calls this to create a new HTLC on a given token (tokenContract)\n*       for a given amount. A 32 byte contract id is returned\n*  2) withdraw(contractId, preimage) - once the receiver knows the preimage of\n*      the hashlock hash they can claim the tokens with this function\n*  3) refund() - after timelock has expired and if the receiver did not\n*      withdraw the tokens the sender / creator of the HTLC can get their tokens\n*      back with this function.\n */\ncontract HashLock {\n    event HTLCERC20New(\n        bytes32 indexed contractId,\n        address indexed sender,\n        address indexed receiver,\n        address tokenContract,\n        uint256 amount,\n        uint256 timelock\n    );\n    event HTLCERC20Withdraw(bytes32 indexed contractId);\n    event HTLCERC20Refund(bytes32 indexed contractId);\n\n    struct LockContract {\n        address sender;\n        address receiver;\n        address tokenContract;\n        uint256 amount;\n        bytes32 hashlock;\n        // locked UNTIL this time. Unit depends on consensus algorithm.\n        // PoA, PoA and IBFT all use seconds. But Quorum Raft uses nano-seconds\n        uint256 timelock;\n        bool withdrawn;\n        bool refunded;\n        bytes32 preimage;\n    }\n\n    modifier tokensTransferable(address _token, address _sender, uint256 _amount) {\n        require(_amount > 0, \"token amount must be > 0\");\n        require(\n            ERC20(_token).allowance(_sender, address(this)) >= _amount,\n            \"token allowance must be >= amount\"\n        );\n        _;\n    }\n    modifier futureTimelock(uint256 _time) {\n        // only requirement is the timelock time is after the last blocktime (now).\n        // probably want something a bit further in the future then this.\n        // but this is still a useful sanity check:\n        require(_time > block.timestamp, \"timelock time must be in the future\");\n        _;\n    }\n    modifier contractExists(bytes32 _contractId) {\n        require(haveContract(_contractId), \"contractId does not exist\");\n        _;\n    }\n    modifier hashlockMatches(bytes32 _contractId, string memory _x) {\n        require(\n            contracts[_contractId].hashlock == calcular(_x),\n            \"hashlock hash does not match\"\n        );\n        _;\n    }\n    modifier withdrawable(bytes32 _contractId) {\n        require(contracts[_contractId].receiver == msg.sender, \"withdrawable: not receiver\");\n        require(contracts[_contractId].withdrawn == false, \"withdrawable: already withdrawn\");\n        // This check needs to be added if claims are allowed after timeout. That is, if the following timelock check is commented out\n        require(contracts[_contractId].refunded == false, \"withdrawable: already refunded\");\n        // if we want to disallow claim to be made after the timeout, uncomment the following line\n        // require(contracts[_contractId].timelock > now, \"withdrawable: timelock time must be in the future\");\n        _;\n    }\n    modifier refundable(bytes32 _contractId) {\n        require(contracts[_contractId].sender == msg.sender, \"refundable: not sender\");\n        require(contracts[_contractId].refunded == false, \"refundable: already refunded\");\n        require(contracts[_contractId].withdrawn == false, \"refundable: already withdrawn\");\n        require(contracts[_contractId].timelock <= block.timestamp, \"refundable: timelock not yet passed\");\n        _;\n    }\n\n    mapping (bytes32 => LockContract) contracts;\n\n    /**\n     * @dev Sender / Payer sets up a new hash time lock contract depositing the\n     * funds and providing the reciever and terms.\n     *\n     * NOTE: _receiver must first call approve() on the token contract.\n     *       See allowance check in tokensTransferable modifier.\n\n     * @param _receiver Receiver of the tokens.\n     * @param _hashlock A sha-2 sha256 hash hashlock.\n     * @param _timelock UNIX epoch seconds time that the lock expires at.\n     *                  Refunds can be made after this time.\n     * @param _tokenContract ERC20 Token contract address.\n     * @param _amount Amount of the token to lock up.\n     * @return contractId Id of the new HTLC. This is needed for subsequent\n     *                    calls.\n     */\n    function newContract(\n        address _receiver,\n        bytes32 _hashlock,\n        uint256 _timelock,\n        address _tokenContract,\n        uint256 _amount)\n        external\n        tokensTransferable(_tokenContract, msg.sender, _amount)\n        futureTimelock(_timelock)\n        returns (bytes32 contractId){\n        contractId = sha256(\n            abi.encodePacked(\n                msg.sender,\n                _receiver,\n                _tokenContract,\n                _amount,\n                _hashlock,\n                _timelock\n            )\n        );\n\n        // Reject if a contract already exists with the same parameters. The\n        // sender must change one of these parameters (ideally providing a\n        // different _hashlock).\n        if (haveContract(contractId))\n            revert(\"Contract already exists\");\n\n        // This contract becomes the temporary owner of the tokens\n        if (!ERC20(_tokenContract).transferFrom(msg.sender, address(this), _amount))\n            revert(\"transferFrom sender fallo\");\n\n        contracts[contractId] = LockContract(\n            msg.sender,\n            _receiver,\n            _tokenContract,\n            _amount,\n            _hashlock,\n            _timelock,\n            false,\n            false,\n            0x0\n        );\n\n        emit HTLCERC20New(\n            contractId,\n            msg.sender,\n            _receiver,\n            _tokenContract,\n            _amount,\n            _timelock\n        );\n    }\n\n    /**\n    * @dev Called by the receiver once they know the preimage of the hashlock.\n    * This will transfer ownership of the locked tokens to their address.\n    *\n    * @param _contractId Id of the HTLC.\n    * @param _preimage sha256(_preimage) should equal the contract hashlock.\n    * @return bool true on success\n     */\n    function withdraw(bytes32 _contractId, bytes32 _preimage,string memory _firma)\n        external\n        contractExists(_contractId)\n        hashlockMatches(_contractId, _firma)\n        withdrawable(_contractId)\n        returns (bool)\n    {\n        LockContract storage c = contracts[_contractId];\n        c.preimage = _preimage;\n        c.withdrawn = true;\n        ERC20(c.tokenContract).transfer(c.receiver, c.amount);\n        emit HTLCERC20Withdraw(_contractId);\n        return true;\n    }\n\n    /**\n     * @dev Called by the sender if there was no withdraw AND the time lock has\n     * expired. This will restore ownership of the tokens to the sender.\n     *\n     * @param _contractId Id of HTLC to refund from.\n     * @return bool true on success\n     */\n    function refund(bytes32 _contractId)\n        external\n        contractExists(_contractId)\n        refundable(_contractId)\n        returns (bool)\n    {\n        LockContract storage c = contracts[_contractId];\n        c.refunded = true;\n        ERC20(c.tokenContract).transfer(c.sender, c.amount);\n        emit HTLCERC20Refund(_contractId);\n        return true;\n    }\n\n    /*\n     * @dev Get contract details.\n     * @param _contractId HTLC contract id\n     * @return All parameters in struct LockContract for _contractId HTLC\n     */\n    function getContract(bytes32 _contractId)\n        public\n        view\n        returns (\n            address sender,\n            address receiver,\n            address tokenContract,\n            uint256 amount,\n            bytes32 hashlock,\n            uint256 timelock,\n            bool withdrawn,\n            bool refunded,\n            bytes32 preimage\n        )\n    {\n        if (haveContract(_contractId) == false)\n             return (address(0), address(0), address(0), 0, 0, 0, false, false, 0);\n        LockContract storage c = contracts[_contractId];\n        return (\n            c.sender,\n            c.receiver,\n            c.tokenContract,\n            c.amount,\n            c.hashlock,\n            c.timelock,\n            c.withdrawn,\n            c.refunded,\n            c.preimage\n        );\n    }\n\n    /**\n     * @dev Is there a contract with id _contractId.\n     * @param _contractId Id into contracts mapping.\n     */\n    function haveContract(bytes32 _contractId)\n        internal\n        view\n        returns (bool exists)\n    {\n        exists = (contracts[_contractId].sender != address(0));\n    }\n\n    function calcular(string memory _input)\n        public\n        pure\n        returns (bytes32)\n    {\n        return sha256(abi.encode((_input)));\n    }\n\n\n    function checkHash(bytes32 _contractId, string memory _x)external view{\n        require(\n            contracts[_contractId].hashlock == calcular(_x),\n            \"hashlock hash does not match\"\n            );\n        \n    }\n\n    function aprovarGasto(address _tokenContract,uint256 _amount)public{\n        ERC20(_tokenContract).approve(address(this),_amount);\n    }\n\n}",
  "sourcePath": "/Users/aarontolentino/Desktop/hashima/contracts/HashLock.sol",
  "compiler": {
    "name": "solc",
    "version": "0.8.3+commit.8d00100c.Emscripten.clang"
  },
  "schemaVersion": "3.4.1",
  "updatedAt": "2022-01-18T21:19:12.134Z",
  "networkType": "ethereum",
  "devdoc": {
    "kind": "dev",
    "methods": {
      "newContract(address,bytes32,uint256,address,uint256)": {
        "details": "Sender / Payer sets up a new hash time lock contract depositing the funds and providing the reciever and terms. NOTE: _receiver must first call approve() on the token contract.       See allowance check in tokensTransferable modifier.",
        "params": {
          "_amount": "Amount of the token to lock up.",
          "_hashlock": "A sha-2 sha256 hash hashlock.",
          "_receiver": "Receiver of the tokens.",
          "_timelock": "UNIX epoch seconds time that the lock expires at.                  Refunds can be made after this time.",
          "_tokenContract": "ERC20 Token contract address."
        },
        "returns": {
          "contractId": "Id of the new HTLC. This is needed for subsequent                    calls."
        }
      },
      "refund(bytes32)": {
        "details": "Called by the sender if there was no withdraw AND the time lock has expired. This will restore ownership of the tokens to the sender.",
        "params": {
          "_contractId": "Id of HTLC to refund from."
        },
        "returns": {
          "_0": "bool true on success"
        }
      },
      "withdraw(bytes32,bytes32,string)": {
        "details": "Called by the receiver once they know the preimage of the hashlock. This will transfer ownership of the locked tokens to their address.",
        "params": {
          "_contractId": "Id of the HTLC.",
          "_preimage": "sha256(_preimage) should equal the contract hashlock."
        },
        "returns": {
          "_0": "bool true on success"
        }
      }
    },
    "title": "Hashed Timelock Contracts (HTLCs) on Ethereum ERC20 tokens. This contract provides a way to create and keep HTLCs for ERC20 tokens. See HashedTimelock.sol for a contract that provides the same functions for the native ETH token. Protocol:  1) newContract(receiver, hashlock, timelock, tokenContract, amount) - a      sender calls this to create a new HTLC on a given token (tokenContract)       for a given amount. A 32 byte contract id is returned  2) withdraw(contractId, preimage) - once the receiver knows the preimage of      the hashlock hash they can claim the tokens with this function  3) refund() - after timelock has expired and if the receiver did not      withdraw the tokens the sender / creator of the HTLC can get their tokens      back with this function.",
    "version": 1
  },
  "userdoc": {
    "kind": "user",
    "methods": {},
    "version": 1
  }
}