{
  "contractName": "Hashima",
  "abi": [
    {
      "inputs": [],
      "stateMutability": "nonpayable",
      "type": "constructor"
    },
    {
      "anonymous": false,
      "inputs": [
        {
          "indexed": true,
          "internalType": "address",
          "name": "owner",
          "type": "address"
        },
        {
          "indexed": true,
          "internalType": "address",
          "name": "approved",
          "type": "address"
        },
        {
          "indexed": true,
          "internalType": "uint256",
          "name": "tokenId",
          "type": "uint256"
        }
      ],
      "name": "Approval",
      "type": "event"
    },
    {
      "anonymous": false,
      "inputs": [
        {
          "indexed": true,
          "internalType": "address",
          "name": "owner",
          "type": "address"
        },
        {
          "indexed": true,
          "internalType": "address",
          "name": "operator",
          "type": "address"
        },
        {
          "indexed": false,
          "internalType": "bool",
          "name": "approved",
          "type": "bool"
        }
      ],
      "name": "ApprovalForAll",
      "type": "event"
    },
    {
      "anonymous": false,
      "inputs": [
        {
          "indexed": false,
          "internalType": "uint256",
          "name": "_blocknumber",
          "type": "uint256"
        }
      ],
      "name": "GameStart",
      "type": "event"
    },
    {
      "anonymous": false,
      "inputs": [
        {
          "indexed": true,
          "internalType": "address",
          "name": "previousOwner",
          "type": "address"
        },
        {
          "indexed": true,
          "internalType": "address",
          "name": "newOwner",
          "type": "address"
        }
      ],
      "name": "OwnershipTransferred",
      "type": "event"
    },
    {
      "anonymous": false,
      "inputs": [
        {
          "indexed": true,
          "internalType": "address",
          "name": "from",
          "type": "address"
        },
        {
          "indexed": true,
          "internalType": "address",
          "name": "to",
          "type": "address"
        },
        {
          "indexed": true,
          "internalType": "uint256",
          "name": "tokenId",
          "type": "uint256"
        }
      ],
      "name": "Transfer",
      "type": "event"
    },
    {
      "inputs": [
        {
          "internalType": "string",
          "name": "",
          "type": "string"
        }
      ],
      "name": "_names",
      "outputs": [
        {
          "internalType": "bool",
          "name": "",
          "type": "bool"
        }
      ],
      "stateMutability": "view",
      "type": "function",
      "constant": true
    },
    {
      "inputs": [
        {
          "internalType": "address",
          "name": "to",
          "type": "address"
        },
        {
          "internalType": "uint256",
          "name": "tokenId",
          "type": "uint256"
        }
      ],
      "name": "approve",
      "outputs": [],
      "stateMutability": "nonpayable",
      "type": "function"
    },
    {
      "inputs": [
        {
          "internalType": "address",
          "name": "owner",
          "type": "address"
        }
      ],
      "name": "balanceOf",
      "outputs": [
        {
          "internalType": "uint256",
          "name": "",
          "type": "uint256"
        }
      ],
      "stateMutability": "view",
      "type": "function",
      "constant": true
    },
    {
      "inputs": [
        {
          "internalType": "uint256",
          "name": "tokenId",
          "type": "uint256"
        }
      ],
      "name": "getApproved",
      "outputs": [
        {
          "internalType": "address",
          "name": "",
          "type": "address"
        }
      ],
      "stateMutability": "view",
      "type": "function",
      "constant": true
    },
    {
      "inputs": [
        {
          "internalType": "address",
          "name": "owner",
          "type": "address"
        },
        {
          "internalType": "address",
          "name": "operator",
          "type": "address"
        }
      ],
      "name": "isApprovedForAll",
      "outputs": [
        {
          "internalType": "bool",
          "name": "",
          "type": "bool"
        }
      ],
      "stateMutability": "view",
      "type": "function",
      "constant": true
    },
    {
      "inputs": [],
      "name": "name",
      "outputs": [
        {
          "internalType": "string",
          "name": "",
          "type": "string"
        }
      ],
      "stateMutability": "view",
      "type": "function",
      "constant": true
    },
    {
      "inputs": [],
      "name": "owner",
      "outputs": [
        {
          "internalType": "address",
          "name": "",
          "type": "address"
        }
      ],
      "stateMutability": "view",
      "type": "function",
      "constant": true
    },
    {
      "inputs": [
        {
          "internalType": "uint256",
          "name": "tokenId",
          "type": "uint256"
        }
      ],
      "name": "ownerOf",
      "outputs": [
        {
          "internalType": "address",
          "name": "",
          "type": "address"
        }
      ],
      "stateMutability": "view",
      "type": "function",
      "constant": true
    },
    {
      "inputs": [],
      "name": "renounceOwnership",
      "outputs": [],
      "stateMutability": "nonpayable",
      "type": "function"
    },
    {
      "inputs": [
        {
          "internalType": "address",
          "name": "from",
          "type": "address"
        },
        {
          "internalType": "address",
          "name": "to",
          "type": "address"
        },
        {
          "internalType": "uint256",
          "name": "tokenId",
          "type": "uint256"
        }
      ],
      "name": "safeTransferFrom",
      "outputs": [],
      "stateMutability": "nonpayable",
      "type": "function"
    },
    {
      "inputs": [
        {
          "internalType": "address",
          "name": "from",
          "type": "address"
        },
        {
          "internalType": "address",
          "name": "to",
          "type": "address"
        },
        {
          "internalType": "uint256",
          "name": "tokenId",
          "type": "uint256"
        },
        {
          "internalType": "bytes",
          "name": "_data",
          "type": "bytes"
        }
      ],
      "name": "safeTransferFrom",
      "outputs": [],
      "stateMutability": "nonpayable",
      "type": "function"
    },
    {
      "inputs": [
        {
          "internalType": "address",
          "name": "operator",
          "type": "address"
        },
        {
          "internalType": "bool",
          "name": "approved",
          "type": "bool"
        }
      ],
      "name": "setApprovalForAll",
      "outputs": [],
      "stateMutability": "nonpayable",
      "type": "function"
    },
    {
      "inputs": [
        {
          "internalType": "bytes4",
          "name": "interfaceId",
          "type": "bytes4"
        }
      ],
      "name": "supportsInterface",
      "outputs": [
        {
          "internalType": "bool",
          "name": "",
          "type": "bool"
        }
      ],
      "stateMutability": "view",
      "type": "function",
      "constant": true
    },
    {
      "inputs": [],
      "name": "symbol",
      "outputs": [
        {
          "internalType": "string",
          "name": "",
          "type": "string"
        }
      ],
      "stateMutability": "view",
      "type": "function",
      "constant": true
    },
    {
      "inputs": [
        {
          "internalType": "uint256",
          "name": "tokenId",
          "type": "uint256"
        }
      ],
      "name": "tokenURI",
      "outputs": [
        {
          "internalType": "string",
          "name": "",
          "type": "string"
        }
      ],
      "stateMutability": "view",
      "type": "function",
      "constant": true
    },
    {
      "inputs": [
        {
          "internalType": "address",
          "name": "from",
          "type": "address"
        },
        {
          "internalType": "address",
          "name": "to",
          "type": "address"
        },
        {
          "internalType": "uint256",
          "name": "tokenId",
          "type": "uint256"
        }
      ],
      "name": "transferFrom",
      "outputs": [],
      "stateMutability": "nonpayable",
      "type": "function"
    },
    {
      "inputs": [
        {
          "internalType": "address",
          "name": "newOwner",
          "type": "address"
        }
      ],
      "name": "transferOwnership",
      "outputs": [],
      "stateMutability": "nonpayable",
      "type": "function"
    },
    {
      "inputs": [
        {
          "internalType": "uint256",
          "name": "_index",
          "type": "uint256"
        }
      ],
      "name": "getHashima",
      "outputs": [
        {
          "components": [
            {
              "internalType": "uint256",
              "name": "tokenId",
              "type": "uint256"
            },
            {
              "internalType": "string",
              "name": "tokenName",
              "type": "string"
            },
            {
              "internalType": "string",
              "name": "tokenURI",
              "type": "string"
            },
            {
              "internalType": "address payable",
              "name": "currentOwner",
              "type": "address"
            },
            {
              "internalType": "address payable",
              "name": "previousOwner",
              "type": "address"
            },
            {
              "internalType": "uint256",
              "name": "price",
              "type": "uint256"
            },
            {
              "internalType": "uint256",
              "name": "numberOfTransfers",
              "type": "uint256"
            },
            {
              "internalType": "bool",
              "name": "forSale",
              "type": "bool"
            },
            {
              "internalType": "uint256",
              "name": "stars",
              "type": "uint256"
            },
            {
              "internalType": "uint256",
              "name": "blockNumber",
              "type": "uint256"
            },
            {
              "internalType": "string",
              "name": "nonce",
              "type": "string"
            },
            {
              "internalType": "bool",
              "name": "sign",
              "type": "bool"
            }
          ],
          "internalType": "struct Hashima.Hashi",
          "name": "",
          "type": "tuple"
        }
      ],
      "stateMutability": "view",
      "type": "function",
      "constant": true
    },
    {
      "inputs": [],
      "name": "initGame",
      "outputs": [],
      "stateMutability": "nonpayable",
      "type": "function"
    },
    {
      "inputs": [
        {
          "internalType": "uint256",
          "name": "_estrellas",
          "type": "uint256"
        },
        {
          "internalType": "string",
          "name": "_hashID",
          "type": "string"
        },
        {
          "internalType": "string",
          "name": "_nonce",
          "type": "string"
        },
        {
          "internalType": "string",
          "name": "_uri",
          "type": "string"
        }
      ],
      "name": "check",
      "outputs": [
        {
          "internalType": "bool",
          "name": "",
          "type": "bool"
        },
        {
          "internalType": "bytes32",
          "name": "",
          "type": "bytes32"
        },
        {
          "internalType": "uint256",
          "name": "",
          "type": "uint256"
        }
      ],
      "stateMutability": "nonpayable",
      "type": "function"
    },
    {
      "inputs": [],
      "name": "checkGame",
      "outputs": [
        {
          "internalType": "uint256",
          "name": "",
          "type": "uint256"
        }
      ],
      "stateMutability": "view",
      "type": "function",
      "constant": true
    },
    {
      "inputs": [
        {
          "internalType": "uint256",
          "name": "_newtolerance",
          "type": "uint256"
        }
      ],
      "name": "setBlockTolerance",
      "outputs": [],
      "stateMutability": "nonpayable",
      "type": "function"
    },
    {
      "inputs": [
        {
          "internalType": "uint256",
          "name": "_tokenId",
          "type": "uint256"
        }
      ],
      "name": "buyToken",
      "outputs": [
        {
          "internalType": "bool",
          "name": "",
          "type": "bool"
        }
      ],
      "stateMutability": "payable",
      "type": "function",
      "payable": true
    },
    {
      "inputs": [
        {
          "internalType": "uint256",
          "name": "_tokenId",
          "type": "uint256"
        },
        {
          "internalType": "uint256",
          "name": "_newPrice",
          "type": "uint256"
        }
      ],
      "name": "changeTokenPrice",
      "outputs": [],
      "stateMutability": "nonpayable",
      "type": "function"
    },
    {
      "inputs": [
        {
          "internalType": "uint256",
          "name": "_tokenId",
          "type": "uint256"
        },
        {
          "internalType": "uint256",
          "name": "_newPrice",
          "type": "uint256"
        }
      ],
      "name": "toggleForSale",
      "outputs": [],
      "stateMutability": "nonpayable",
      "type": "function"
    },
    {
      "inputs": [],
      "name": "dameTotal",
      "outputs": [
        {
          "internalType": "uint256",
          "name": "",
          "type": "uint256"
        }
      ],
      "stateMutability": "view",
      "type": "function",
      "constant": true
    },
    {
      "inputs": [
        {
          "internalType": "uint256",
          "name": "_tokenId",
          "type": "uint256"
        }
      ],
      "name": "original",
      "outputs": [
        {
          "internalType": "bool",
          "name": "",
          "type": "bool"
        }
      ],
      "stateMutability": "view",
      "type": "function",
      "constant": true
    },
    {
      "inputs": [
        {
          "internalType": "string",
          "name": "_input",
          "type": "string"
        },
        {
          "internalType": "string",
          "name": "_nonce",
          "type": "string"
        }
      ],
      "name": "checkingHash",
      "outputs": [
        {
          "internalType": "bytes32",
          "name": "",
          "type": "bytes32"
        }
      ],
      "stateMutability": "pure",
      "type": "function",
      "constant": true
    }
  ],
  "bytecode": "0x608060405260646009553480156200001657600080fd5b506040518060400160405280600781526020017f48617368696d61000000000000000000000000000000000000000000000000008152506040518060400160405280600781526020017f48415348494d410000000000000000000000000000000000000000000000000081525081600090805190602001906200009b929190620001ab565b508060019080519060200190620000b4929190620001ab565b505050620000d7620000cb620000dd60201b60201c565b620000e560201b60201c565b620002c0565b600033905090565b6000600760009054906101000a900473ffffffffffffffffffffffffffffffffffffffff16905081600760006101000a81548173ffffffffffffffffffffffffffffffffffffffff021916908373ffffffffffffffffffffffffffffffffffffffff1602179055508173ffffffffffffffffffffffffffffffffffffffff168173ffffffffffffffffffffffffffffffffffffffff167f8be0079c531659141344cd1fd0a4f28419497f9722a3daafe3b4186f6b6457e060405160405180910390a35050565b828054620001b9906200025b565b90600052602060002090601f016020900481019282620001dd576000855562000229565b82601f10620001f857805160ff191683800117855562000229565b8280016001018555821562000229579182015b82811115620002285782518255916020019190600101906200020b565b5b5090506200023891906200023c565b5090565b5b80821115620002575760008160009055506001016200023d565b5090565b600060028204905060018216806200027457607f821691505b602082108114156200028b576200028a62000291565b5b50919050565b7f4e487b7100000000000000000000000000000000000000000000000000000000600052602260045260246000fd5b6158d280620002d06000396000f3fe6080604052600436106101b75760003560e01c8063715018a6116100ec578063c87b56dd1161008a578063d7a1aed211610064578063d7a1aed21461064b578063e985e9c514610674578063ec7d0c4e146106b1578063f2fde38b146106da576101b7565b8063c87b56dd14610594578063d1760fac146105d1578063d43525c31461060e576101b7565b806395d89b41116100c657806395d89b41146104ec578063a22cb46514610517578063b35a194e14610540578063b88d4fde1461056b576101b7565b8063715018a61461046d578063717eb03f146104845780638da5cb5b146104c1576101b7565b806332eb25641161015957806353d8bd2d1161013357806353d8bd2d1461038d57806362e8e8ac146103ca5780636352211e146103f357806370a0823114610430576101b7565b806332eb25641461030e57806333625d701461032557806342842e0e14610364576101b7565b8063081812fc11610195578063081812fc1461024f578063095ea7b31461028c57806323b872dd146102b55780632d296bf1146102de576101b7565b806301ffc9a7146101bc578063058c2ef5146101f957806306fdde0314610224575b600080fd5b3480156101c857600080fd5b506101e360048036038101906101de91906142c5565b610703565b6040516101f09190614b2c565b60405180910390f35b34801561020557600080fd5b5061020e6107e5565b60405161021b9190614e7d565b60405180910390f35b34801561023057600080fd5b506102396107f6565b6040516102469190614b99565b60405180910390f35b34801561025b57600080fd5b50610276600480360381019061027191906143c4565b610888565b6040516102839190614ac5565b60405180910390f35b34801561029857600080fd5b506102b360048036038101906102ae9190614260565b61090d565b005b3480156102c157600080fd5b506102dc60048036038101906102d7919061415a565b610a25565b005b6102f860048036038101906102f391906143c4565b610a85565b6040516103059190614b2c565b60405180910390f35b34801561031a57600080fd5b506103236110bd565b005b34801561033157600080fd5b5061034c600480360381019061034791906143ed565b611140565b60405161035b93929190614b47565b60405180910390f35b34801561037057600080fd5b5061038b6004803603810190610386919061415a565b61143b565b005b34801561039957600080fd5b506103b460048036038101906103af9190614358565b61145b565b6040516103c19190614b7e565b60405180910390f35b3480156103d657600080fd5b506103f160048036038101906103ec9190614498565b6114db565b005b3480156103ff57600080fd5b5061041a600480360381019061041591906143c4565b6119db565b6040516104279190614ac5565b60405180910390f35b34801561043c57600080fd5b50610457600480360381019061045291906140f5565b611a8d565b6040516104649190614e7d565b60405180910390f35b34801561047957600080fd5b50610482611b45565b005b34801561049057600080fd5b506104ab60048036038101906104a691906143c4565b611bcd565b6040516104b89190614b2c565b60405180910390f35b3480156104cd57600080fd5b506104d6611bfa565b6040516104e39190614ac5565b60405180910390f35b3480156104f857600080fd5b50610501611c24565b60405161050e9190614b99565b60405180910390f35b34801561052357600080fd5b5061053e60048036038101906105399190614224565b611cb6565b005b34801561054c57600080fd5b50610555611e37565b6040516105629190614e7d565b60405180910390f35b34801561057757600080fd5b50610592600480360381019061058d91906141a9565b611e7e565b005b3480156105a057600080fd5b506105bb60048036038101906105b691906143c4565b611ee0565b6040516105c89190614b99565b60405180910390f35b3480156105dd57600080fd5b506105f860048036038101906105f39190614317565b612032565b6040516106059190614b2c565b60405180910390f35b34801561061a57600080fd5b50610635600480360381019061063091906143c4565b612068565b6040516106429190614e5b565b60405180910390f35b34801561065757600080fd5b50610672600480360381019061066d9190614498565b612360565b005b34801561068057600080fd5b5061069b6004803603810190610696919061411e565b612892565b6040516106a89190614b2c565b60405180910390f35b3480156106bd57600080fd5b506106d860048036038101906106d391906143c4565b612926565b005b3480156106e657600080fd5b5061070160048036038101906106fc91906140f5565b6129ac565b005b60007f80ac58cd000000000000000000000000000000000000000000000000000000007bffffffffffffffffffffffffffffffffffffffffffffffffffffffff1916827bffffffffffffffffffffffffffffffffffffffffffffffffffffffff191614806107ce57507f5b5e139f000000000000000000000000000000000000000000000000000000007bffffffffffffffffffffffffffffffffffffffffffffffffffffffff1916827bffffffffffffffffffffffffffffffffffffffffffffffffffffffff1916145b806107de57506107dd82612aa4565b5b9050919050565b60006107f16008612b0e565b905090565b6060600080546108059061510b565b80601f01602080910402602001604051908101604052809291908181526020018280546108319061510b565b801561087e5780601f106108535761010080835404028352916020019161087e565b820191906000526020600020905b81548152906001019060200180831161086157829003601f168201915b5050505050905090565b600061089382612b1c565b6108d2576040517f08c379a00000000000000000000000000000000000000000000000000000000081526004016108c990614d5b565b60405180910390fd5b6004600083815260200190815260200160002060009054906101000a900473ffffffffffffffffffffffffffffffffffffffff169050919050565b6000610918826119db565b90508073ffffffffffffffffffffffffffffffffffffffff168373ffffffffffffffffffffffffffffffffffffffff161415610989576040517f08c379a000000000000000000000000000000000000000000000000000000000815260040161098090614dfb565b60405180910390fd5b8073ffffffffffffffffffffffffffffffffffffffff166109a8612b88565b73ffffffffffffffffffffffffffffffffffffffff1614806109d757506109d6816109d1612b88565b612892565b5b610a16576040517f08c379a0000000000000000000000000000000000000000000000000000000008152600401610a0d90614c7b565b60405180910390fd5b610a208383612b90565b505050565b610a36610a30612b88565b82612c49565b610a75576040517f08c379a0000000000000000000000000000000000000000000000000000000008152600401610a6c90614e1b565b60405180910390fd5b610a80838383612d27565b505050565b60008073ffffffffffffffffffffffffffffffffffffffff163373ffffffffffffffffffffffffffffffffffffffff161415610ac057600080fd5b610ac982612b1c565b610ad257600080fd5b6000610add836119db565b9050600073ffffffffffffffffffffffffffffffffffffffff168173ffffffffffffffffffffffffffffffffffffffff161415610b1957600080fd5b3373ffffffffffffffffffffffffffffffffffffffff168173ffffffffffffffffffffffffffffffffffffffff161415610b5257600080fd5b6000600c60008581526020019081526020016000206040518061018001604052908160008201548152602001600182018054610b8d9061510b565b80601f0160208091040260200160405190810160405280929190818152602001828054610bb99061510b565b8015610c065780601f10610bdb57610100808354040283529160200191610c06565b820191906000526020600020905b815481529060010190602001808311610be957829003601f168201915b50505050508152602001600282018054610c1f9061510b565b80601f0160208091040260200160405190810160405280929190818152602001828054610c4b9061510b565b8015610c985780601f10610c6d57610100808354040283529160200191610c98565b820191906000526020600020905b815481529060010190602001808311610c7b57829003601f168201915b505050505081526020016003820160009054906101000a900473ffffffffffffffffffffffffffffffffffffffff1673ffffffffffffffffffffffffffffffffffffffff1673ffffffffffffffffffffffffffffffffffffffff1681526020016004820160009054906101000a900473ffffffffffffffffffffffffffffffffffffffff1673ffffffffffffffffffffffffffffffffffffffff1673ffffffffffffffffffffffffffffffffffffffff16815260200160058201548152602001600682015481526020016007820160009054906101000a900460ff161515151581526020016008820154815260200160098201548152602001600a82018054610da09061510b565b80601f0160208091040260200160405190810160405280929190818152602001828054610dcc9061510b565b8015610e195780601f10610dee57610100808354040283529160200191610e19565b820191906000526020600020905b815481529060010190602001808311610dfc57829003601f168201915b50505050508152602001600b820160009054906101000a900460ff16151515158152505090508060a00151341015610e86576040517f08c379a0000000000000000000000000000000000000000000000000000000008152600401610e7d90614d9b565b60405180910390fd5b8060e00151610e9457600080fd5b610e9f823386612d27565b60008160600151905060008173ffffffffffffffffffffffffffffffffffffffff1634604051610ece90614ab0565b60006040518083038185875af1925050503d8060008114610f0b576040519150601f19603f3d011682016040523d82523d6000602084013e610f10565b606091505b5050905060018360c001818151610f279190614f7e565b9150818152505060008360e001901515908115158152505082600c6000888152602001908152602001600020600082015181600001556020820151816001019080519060200190610f79929190613e73565b506040820151816002019080519060200190610f96929190613e73565b5060608201518160030160006101000a81548173ffffffffffffffffffffffffffffffffffffffff021916908373ffffffffffffffffffffffffffffffffffffffff16021790555060808201518160040160006101000a81548173ffffffffffffffffffffffffffffffffffffffff021916908373ffffffffffffffffffffffffffffffffffffffff16021790555060a0820151816005015560c0820151816006015560e08201518160070160006101000a81548160ff0219169083151502179055506101008201518160080155610120820151816009015561014082015181600a01908051906020019061108c929190613e73565b5061016082015181600b0160006101000a81548160ff02191690831515021790555090505080945050505050919050565b600043905080600a60003373ffffffffffffffffffffffffffffffffffffffff1673ffffffffffffffffffffffffffffffffffffffff168152602001908152602001600020819055507fb5e8a4470f7bcac7f2c0f3e23471bd7016a9f6f049884cd27dfa8960f361287b816040516111359190614e7d565b60405180910390a150565b6000806000806000905043600954600a60003373ffffffffffffffffffffffffffffffffffffffff1673ffffffffffffffffffffffffffffffffffffffff168152602001908152602001600020546111989190614f7e565b116111d8576040517f08c379a00000000000000000000000000000000000000000000000000000000081526004016111cf90614cfb565b60405180910390fd5b60001515600b886040516111ec9190614a75565b908152602001604051809103902060009054906101000a900460ff1615151461124a576040517f08c379a000000000000000000000000000000000000000000000000000000000815260040161124190614e3b565b60405180910390fd5b6000600a60003373ffffffffffffffffffffffffffffffffffffffff1673ffffffffffffffffffffffffffffffffffffffff16815260200190815260200160002054141561129757600080fd5b600073ffffffffffffffffffffffffffffffffffffffff163373ffffffffffffffffffffffffffffffffffffffff1614156112d157600080fd5b6000600190506000600289896040516020016112ee929190614a8c565b60405160208183030381529060405260405161130a9190614a5e565b602060405180830381855afa158015611327573d6000803e3d6000fd5b5050506040513d601f19601f8201168201806040525081019061134a919061429c565b905060005b8a8110156113d857600060f81b828260208110611395577f4e487b7100000000000000000000000000000000000000000000000000000000600052603260045260246000fd5b1a60f81b7effffffffffffffffffffffffffffffffffffffffffffffffffffffffffffff1916146113c557600092505b80806113d09061516e565b91505061134f565b508115611425576001600b8a6040516113f19190614a75565b908152602001604051809103902060006101000a81548160ff021916908315150217905550611422878a8a8d612f83565b92505b8181849550955095505050509450945094915050565b61145683838360405180602001604052806000815250611e7e565b505050565b60008060028484604051602001611473929190614a8c565b60405160208183030381529060405260405161148f9190614a5e565b602060405180830381855afa1580156114ac573d6000803e3d6000fd5b5050506040513d601f19601f820116820180604052508101906114cf919061429c565b90508091505092915050565b600073ffffffffffffffffffffffffffffffffffffffff163373ffffffffffffffffffffffffffffffffffffffff16141561151557600080fd5b61151e82612b1c565b61152757600080fd5b6000611532836119db565b90503373ffffffffffffffffffffffffffffffffffffffff168173ffffffffffffffffffffffffffffffffffffffff161461156c57600080fd5b6000600c600085815260200190815260200160002060405180610180016040529081600082015481526020016001820180546115a79061510b565b80601f01602080910402602001604051908101604052809291908181526020018280546115d39061510b565b80156116205780601f106115f557610100808354040283529160200191611620565b820191906000526020600020905b81548152906001019060200180831161160357829003601f168201915b505050505081526020016002820180546116399061510b565b80601f01602080910402602001604051908101604052809291908181526020018280546116659061510b565b80156116b25780601f10611687576101008083540402835291602001916116b2565b820191906000526020600020905b81548152906001019060200180831161169557829003601f168201915b505050505081526020016003820160009054906101000a900473ffffffffffffffffffffffffffffffffffffffff1673ffffffffffffffffffffffffffffffffffffffff1673ffffffffffffffffffffffffffffffffffffffff1681526020016004820160009054906101000a900473ffffffffffffffffffffffffffffffffffffffff1673ffffffffffffffffffffffffffffffffffffffff1673ffffffffffffffffffffffffffffffffffffffff16815260200160058201548152602001600682015481526020016007820160009054906101000a900460ff161515151581526020016008820154815260200160098201548152602001600a820180546117ba9061510b565b80601f01602080910402602001604051908101604052809291908181526020018280546117e69061510b565b80156118335780601f1061180857610100808354040283529160200191611833565b820191906000526020600020905b81548152906001019060200180831161181657829003601f168201915b50505050508152602001600b820160009054906101000a900460ff1615151515815250509050828160a001818152505080600c600086815260200190815260200160002060008201518160000155602082015181600101908051906020019061189d929190613e73565b5060408201518160020190805190602001906118ba929190613e73565b5060608201518160030160006101000a81548173ffffffffffffffffffffffffffffffffffffffff021916908373ffffffffffffffffffffffffffffffffffffffff16021790555060808201518160040160006101000a81548173ffffffffffffffffffffffffffffffffffffffff021916908373ffffffffffffffffffffffffffffffffffffffff16021790555060a0820151816005015560c0820151816006015560e08201518160070160006101000a81548160ff0219169083151502179055506101008201518160080155610120820151816009015561014082015181600a0190805190602001906119b0929190613e73565b5061016082015181600b0160006101000a81548160ff02191690831515021790555090505050505050565b6000806002600084815260200190815260200160002060009054906101000a900473ffffffffffffffffffffffffffffffffffffffff169050600073ffffffffffffffffffffffffffffffffffffffff168173ffffffffffffffffffffffffffffffffffffffff161415611a84576040517f08c379a0000000000000000000000000000000000000000000000000000000008152600401611a7b90614cbb565b60405180910390fd5b80915050919050565b60008073ffffffffffffffffffffffffffffffffffffffff168273ffffffffffffffffffffffffffffffffffffffff161415611afe576040517f08c379a0000000000000000000000000000000000000000000000000000000008152600401611af590614c9b565b60405180910390fd5b600360008373ffffffffffffffffffffffffffffffffffffffff1673ffffffffffffffffffffffffffffffffffffffff168152602001908152602001600020549050919050565b611b4d612b88565b73ffffffffffffffffffffffffffffffffffffffff16611b6b611bfa565b73ffffffffffffffffffffffffffffffffffffffff1614611bc1576040517f08c379a0000000000000000000000000000000000000000000000000000000008152600401611bb890614d7b565b60405180910390fd5b611bcb600061320f565b565b6000600c6000838152602001908152602001600020600b0160009054906101000a900460ff169050919050565b6000600760009054906101000a900473ffffffffffffffffffffffffffffffffffffffff16905090565b606060018054611c339061510b565b80601f0160208091040260200160405190810160405280929190818152602001828054611c5f9061510b565b8015611cac5780601f10611c8157610100808354040283529160200191611cac565b820191906000526020600020905b815481529060010190602001808311611c8f57829003601f168201915b5050505050905090565b611cbe612b88565b73ffffffffffffffffffffffffffffffffffffffff168273ffffffffffffffffffffffffffffffffffffffff161415611d2c576040517f08c379a0000000000000000000000000000000000000000000000000000000008152600401611d2390614c3b565b60405180910390fd5b8060056000611d39612b88565b73ffffffffffffffffffffffffffffffffffffffff1673ffffffffffffffffffffffffffffffffffffffff16815260200190815260200160002060008473ffffffffffffffffffffffffffffffffffffffff1673ffffffffffffffffffffffffffffffffffffffff16815260200190815260200160002060006101000a81548160ff0219169083151502179055508173ffffffffffffffffffffffffffffffffffffffff16611de6612b88565b73ffffffffffffffffffffffffffffffffffffffff167f17307eab39ab6107e8899845ad3d59bd9653f200f220920489ca2b5937696c3183604051611e2b9190614b2c565b60405180910390a35050565b6000600a60003373ffffffffffffffffffffffffffffffffffffffff1673ffffffffffffffffffffffffffffffffffffffff16815260200190815260200160002054905090565b611e8f611e89612b88565b83612c49565b611ece576040517f08c379a0000000000000000000000000000000000000000000000000000000008152600401611ec590614e1b565b60405180910390fd5b611eda848484846132d5565b50505050565b6060611eeb82612b1c565b611f2a576040517f08c379a0000000000000000000000000000000000000000000000000000000008152600401611f2190614d3b565b60405180910390fd5b6000600660008481526020019081526020016000208054611f4a9061510b565b80601f0160208091040260200160405190810160405280929190818152602001828054611f769061510b565b8015611fc35780601f10611f9857610100808354040283529160200191611fc3565b820191906000526020600020905b815481529060010190602001808311611fa657829003601f168201915b505050505090506000611fd4613331565b9050600081511415611fea57819250505061202d565b60008251111561201f578082604051602001612007929190614a8c565b6040516020818303038152906040529250505061202d565b61202884613348565b925050505b919050565b600b818051602081018201805184825260208301602085012081835280955050505050506000915054906101000a900460ff1681565b612070613ef9565b600c600083815260200190815260200160002060405180610180016040529081600082015481526020016001820180546120a99061510b565b80601f01602080910402602001604051908101604052809291908181526020018280546120d59061510b565b80156121225780601f106120f757610100808354040283529160200191612122565b820191906000526020600020905b81548152906001019060200180831161210557829003601f168201915b5050505050815260200160028201805461213b9061510b565b80601f01602080910402602001604051908101604052809291908181526020018280546121679061510b565b80156121b45780601f10612189576101008083540402835291602001916121b4565b820191906000526020600020905b81548152906001019060200180831161219757829003601f168201915b505050505081526020016003820160009054906101000a900473ffffffffffffffffffffffffffffffffffffffff1673ffffffffffffffffffffffffffffffffffffffff1673ffffffffffffffffffffffffffffffffffffffff1681526020016004820160009054906101000a900473ffffffffffffffffffffffffffffffffffffffff1673ffffffffffffffffffffffffffffffffffffffff1673ffffffffffffffffffffffffffffffffffffffff16815260200160058201548152602001600682015481526020016007820160009054906101000a900460ff161515151581526020016008820154815260200160098201548152602001600a820180546122bc9061510b565b80601f01602080910402602001604051908101604052809291908181526020018280546122e89061510b565b80156123355780601f1061230a57610100808354040283529160200191612335565b820191906000526020600020905b81548152906001019060200180831161231857829003601f168201915b50505050508152602001600b820160009054906101000a900460ff1615151515815250509050919050565b600073ffffffffffffffffffffffffffffffffffffffff163373ffffffffffffffffffffffffffffffffffffffff16141561239a57600080fd5b6123a382612b1c565b6123ac57600080fd5b60006123b7836119db565b90503373ffffffffffffffffffffffffffffffffffffffff168173ffffffffffffffffffffffffffffffffffffffff16146123f157600080fd5b6000600c6000858152602001908152602001600020604051806101800160405290816000820154815260200160018201805461242c9061510b565b80601f01602080910402602001604051908101604052809291908181526020018280546124589061510b565b80156124a55780601f1061247a576101008083540402835291602001916124a5565b820191906000526020600020905b81548152906001019060200180831161248857829003601f168201915b505050505081526020016002820180546124be9061510b565b80601f01602080910402602001604051908101604052809291908181526020018280546124ea9061510b565b80156125375780601f1061250c57610100808354040283529160200191612537565b820191906000526020600020905b81548152906001019060200180831161251a57829003601f168201915b505050505081526020016003820160009054906101000a900473ffffffffffffffffffffffffffffffffffffffff1673ffffffffffffffffffffffffffffffffffffffff1673ffffffffffffffffffffffffffffffffffffffff1681526020016004820160009054906101000a900473ffffffffffffffffffffffffffffffffffffffff1673ffffffffffffffffffffffffffffffffffffffff1673ffffffffffffffffffffffffffffffffffffffff16815260200160058201548152602001600682015481526020016007820160009054906101000a900460ff161515151581526020016008820154815260200160098201548152602001600a8201805461263f9061510b565b80601f016020809104026020016040519081016040528092919081815260200182805461266b9061510b565b80156126b85780601f1061268d576101008083540402835291602001916126b8565b820191906000526020600020905b81548152906001019060200180831161269b57829003601f168201915b50505050508152602001600b820160009054906101000a900460ff16151515158152505090508060e00151156126fe5760008160e001901515908115158152505061271a565b60018160e0019015159081151581525050828160a00181815250505b80600c6000868152602001908152602001600020600082015181600001556020820151816001019080519060200190612754929190613e73565b506040820151816002019080519060200190612771929190613e73565b5060608201518160030160006101000a81548173ffffffffffffffffffffffffffffffffffffffff021916908373ffffffffffffffffffffffffffffffffffffffff16021790555060808201518160040160006101000a81548173ffffffffffffffffffffffffffffffffffffffff021916908373ffffffffffffffffffffffffffffffffffffffff16021790555060a0820151816005015560c0820151816006015560e08201518160070160006101000a81548160ff0219169083151502179055506101008201518160080155610120820151816009015561014082015181600a019080519060200190612867929190613e73565b5061016082015181600b0160006101000a81548160ff02191690831515021790555090505050505050565b6000600560008473ffffffffffffffffffffffffffffffffffffffff1673ffffffffffffffffffffffffffffffffffffffff16815260200190815260200160002060008373ffffffffffffffffffffffffffffffffffffffff1673ffffffffffffffffffffffffffffffffffffffff16815260200190815260200160002060009054906101000a900460ff16905092915050565b61292e612b88565b73ffffffffffffffffffffffffffffffffffffffff1661294c611bfa565b73ffffffffffffffffffffffffffffffffffffffff16146129a2576040517f08c379a000000000000000000000000000000000000000000000000000000000815260040161299990614d7b565b60405180910390fd5b8060098190555050565b6129b4612b88565b73ffffffffffffffffffffffffffffffffffffffff166129d2611bfa565b73ffffffffffffffffffffffffffffffffffffffff1614612a28576040517f08c379a0000000000000000000000000000000000000000000000000000000008152600401612a1f90614d7b565b60405180910390fd5b600073ffffffffffffffffffffffffffffffffffffffff168173ffffffffffffffffffffffffffffffffffffffff161415612a98576040517f08c379a0000000000000000000000000000000000000000000000000000000008152600401612a8f90614bdb565b60405180910390fd5b612aa18161320f565b50565b60007f01ffc9a7000000000000000000000000000000000000000000000000000000007bffffffffffffffffffffffffffffffffffffffffffffffffffffffff1916827bffffffffffffffffffffffffffffffffffffffffffffffffffffffff1916149050919050565b600081600001549050919050565b60008073ffffffffffffffffffffffffffffffffffffffff166002600084815260200190815260200160002060009054906101000a900473ffffffffffffffffffffffffffffffffffffffff1673ffffffffffffffffffffffffffffffffffffffff1614159050919050565b600033905090565b816004600083815260200190815260200160002060006101000a81548173ffffffffffffffffffffffffffffffffffffffff021916908373ffffffffffffffffffffffffffffffffffffffff160217905550808273ffffffffffffffffffffffffffffffffffffffff16612c03836119db565b73ffffffffffffffffffffffffffffffffffffffff167f8c5be1e5ebec7d5bd14f71427d1e84f3dd0314c0f7b2291e5b200ac8c7c3b92560405160405180910390a45050565b6000612c5482612b1c565b612c93576040517f08c379a0000000000000000000000000000000000000000000000000000000008152600401612c8a90614c5b565b60405180910390fd5b6000612c9e836119db565b90508073ffffffffffffffffffffffffffffffffffffffff168473ffffffffffffffffffffffffffffffffffffffff161480612d0d57508373ffffffffffffffffffffffffffffffffffffffff16612cf584610888565b73ffffffffffffffffffffffffffffffffffffffff16145b80612d1e5750612d1d8185612892565b5b91505092915050565b8273ffffffffffffffffffffffffffffffffffffffff16612d47826119db565b73ffffffffffffffffffffffffffffffffffffffff1614612d9d576040517f08c379a0000000000000000000000000000000000000000000000000000000008152600401612d9490614dbb565b60405180910390fd5b600073ffffffffffffffffffffffffffffffffffffffff168273ffffffffffffffffffffffffffffffffffffffff161415612e0d576040517f08c379a0000000000000000000000000000000000000000000000000000000008152600401612e0490614c1b565b60405180910390fd5b612e188383836133ef565b612e23600082612b90565b6001600360008573ffffffffffffffffffffffffffffffffffffffff1673ffffffffffffffffffffffffffffffffffffffff1681526020019081526020016000206000828254612e739190615005565b925050819055506001600360008473ffffffffffffffffffffffffffffffffffffffff1673ffffffffffffffffffffffffffffffffffffffff1681526020019081526020016000206000828254612eca9190614f7e565b92505081905550816002600083815260200190815260200160002060006101000a81548173ffffffffffffffffffffffffffffffffffffffff021916908373ffffffffffffffffffffffffffffffffffffffff160217905550808273ffffffffffffffffffffffffffffffffffffffff168473ffffffffffffffffffffffffffffffffffffffff167fddf252ad1be2c89b69c2b068fc378daa952ba7f163c4a11628f55a4df523b3ef60405160405180910390a4505050565b6000612f8f60086138c4565b6000612f9b6008612b0e565b9050612fa733826138da565b612fb18187613aa8565b60003373ffffffffffffffffffffffffffffffffffffffff16612fd2611bfa565b73ffffffffffffffffffffffffffffffffffffffff161415612ff357600190505b600060405180610180016040528061300b6008612b0e565b81526020018881526020018981526020013373ffffffffffffffffffffffffffffffffffffffff168152602001600073ffffffffffffffffffffffffffffffffffffffff1681526020016000815260200160008152602001600015158152602001868152602001438152602001878152602001831515815250905080600c60006130956008612b0e565b81526020019081526020016000206000820151816000015560208201518160010190805190602001906130c9929190613e73565b5060408201518160020190805190602001906130e6929190613e73565b5060608201518160030160006101000a81548173ffffffffffffffffffffffffffffffffffffffff021916908373ffffffffffffffffffffffffffffffffffffffff16021790555060808201518160040160006101000a81548173ffffffffffffffffffffffffffffffffffffffff021916908373ffffffffffffffffffffffffffffffffffffffff16021790555060a0820151816005015560c0820151816006015560e08201518160070160006101000a81548160ff0219169083151502179055506101008201518160080155610120820151816009015561014082015181600a0190805190602001906131dc929190613e73565b5061016082015181600b0160006101000a81548160ff021916908315150217905550905050829350505050949350505050565b6000600760009054906101000a900473ffffffffffffffffffffffffffffffffffffffff16905081600760006101000a81548173ffffffffffffffffffffffffffffffffffffffff021916908373ffffffffffffffffffffffffffffffffffffffff1602179055508173ffffffffffffffffffffffffffffffffffffffff168173ffffffffffffffffffffffffffffffffffffffff167f8be0079c531659141344cd1fd0a4f28419497f9722a3daafe3b4186f6b6457e060405160405180910390a35050565b6132e0848484612d27565b6132ec84848484613b1c565b61332b576040517f08c379a000000000000000000000000000000000000000000000000000000000815260040161332290614bbb565b60405180910390fd5b50505050565b606060405180602001604052806000815250905090565b606061335382612b1c565b613392576040517f08c379a000000000000000000000000000000000000000000000000000000000815260040161338990614ddb565b60405180910390fd5b600061339c613331565b905060008151116133bc57604051806020016040528060008152506133e7565b806133c684613cb3565b6040516020016133d7929190614a8c565b6040516020818303038152906040525b915050919050565b6000600c6000838152602001908152602001600020604051806101800160405290816000820154815260200160018201805461342a9061510b565b80601f01602080910402602001604051908101604052809291908181526020018280546134569061510b565b80156134a35780601f10613478576101008083540402835291602001916134a3565b820191906000526020600020905b81548152906001019060200180831161348657829003601f168201915b505050505081526020016002820180546134bc9061510b565b80601f01602080910402602001604051908101604052809291908181526020018280546134e89061510b565b80156135355780601f1061350a57610100808354040283529160200191613535565b820191906000526020600020905b81548152906001019060200180831161351857829003601f168201915b505050505081526020016003820160009054906101000a900473ffffffffffffffffffffffffffffffffffffffff1673ffffffffffffffffffffffffffffffffffffffff1673ffffffffffffffffffffffffffffffffffffffff1681526020016004820160009054906101000a900473ffffffffffffffffffffffffffffffffffffffff1673ffffffffffffffffffffffffffffffffffffffff1673ffffffffffffffffffffffffffffffffffffffff16815260200160058201548152602001600682015481526020016007820160009054906101000a900460ff161515151581526020016008820154815260200160098201548152602001600a8201805461363d9061510b565b80601f01602080910402602001604051908101604052809291908181526020018280546136699061510b565b80156136b65780601f1061368b576101008083540402835291602001916136b6565b820191906000526020600020905b81548152906001019060200180831161369957829003601f168201915b50505050508152602001600b820160009054906101000a900460ff161515151581525050905083816080019073ffffffffffffffffffffffffffffffffffffffff16908173ffffffffffffffffffffffffffffffffffffffff168152505082816060019073ffffffffffffffffffffffffffffffffffffffff16908173ffffffffffffffffffffffffffffffffffffffff168152505080600c6000848152602001908152602001600020600082015181600001556020820151816001019080519060200190613786929190613e73565b5060408201518160020190805190602001906137a3929190613e73565b5060608201518160030160006101000a81548173ffffffffffffffffffffffffffffffffffffffff021916908373ffffffffffffffffffffffffffffffffffffffff16021790555060808201518160040160006101000a81548173ffffffffffffffffffffffffffffffffffffffff021916908373ffffffffffffffffffffffffffffffffffffffff16021790555060a0820151816005015560c0820151816006015560e08201518160070160006101000a81548160ff0219169083151502179055506101008201518160080155610120820151816009015561014082015181600a019080519060200190613899929190613e73565b5061016082015181600b0160006101000a81548160ff02191690831515021790555090505050505050565b6001816000016000828254019250508190555050565b600073ffffffffffffffffffffffffffffffffffffffff168273ffffffffffffffffffffffffffffffffffffffff16141561394a576040517f08c379a000000000000000000000000000000000000000000000000000000000815260040161394190614d1b565b60405180910390fd5b61395381612b1c565b15613993576040517f08c379a000000000000000000000000000000000000000000000000000000000815260040161398a90614bfb565b60405180910390fd5b61399f600083836133ef565b6001600360008473ffffffffffffffffffffffffffffffffffffffff1673ffffffffffffffffffffffffffffffffffffffff16815260200190815260200160002060008282546139ef9190614f7e565b92505081905550816002600083815260200190815260200160002060006101000a81548173ffffffffffffffffffffffffffffffffffffffff021916908373ffffffffffffffffffffffffffffffffffffffff160217905550808273ffffffffffffffffffffffffffffffffffffffff16600073ffffffffffffffffffffffffffffffffffffffff167fddf252ad1be2c89b69c2b068fc378daa952ba7f163c4a11628f55a4df523b3ef60405160405180910390a45050565b613ab182612b1c565b613af0576040517f08c379a0000000000000000000000000000000000000000000000000000000008152600401613ae790614cdb565b60405180910390fd5b80600660008481526020019081526020016000209080519060200190613b17929190613e73565b505050565b6000613b3d8473ffffffffffffffffffffffffffffffffffffffff16613e60565b15613ca6578373ffffffffffffffffffffffffffffffffffffffff1663150b7a02613b66612b88565b8786866040518563ffffffff1660e01b8152600401613b889493929190614ae0565b602060405180830381600087803b158015613ba257600080fd5b505af1925050508015613bd357506040513d601f19601f82011682018060405250810190613bd091906142ee565b60015b613c56573d8060008114613c03576040519150601f19603f3d011682016040523d82523d6000602084013e613c08565b606091505b50600081511415613c4e576040517f08c379a0000000000000000000000000000000000000000000000000000000008152600401613c4590614bbb565b60405180910390fd5b805181602001fd5b63150b7a0260e01b7bffffffffffffffffffffffffffffffffffffffffffffffffffffffff1916817bffffffffffffffffffffffffffffffffffffffffffffffffffffffff191614915050613cab565b600190505b949350505050565b60606000821415613cfb576040518060400160405280600181526020017f30000000000000000000000000000000000000000000000000000000000000008152509050613e5b565b600082905060005b60008214613d2d578080613d169061516e565b915050600a82613d269190614fd4565b9150613d03565b60008167ffffffffffffffff811115613d6f577f4e487b7100000000000000000000000000000000000000000000000000000000600052604160045260246000fd5b6040519080825280601f01601f191660200182016040528015613da15781602001600182028036833780820191505090505b5090505b60008514613e5457600182613dba9190615005565b9150600a85613dc991906151b7565b6030613dd59190614f7e565b60f81b818381518110613e11577f4e487b7100000000000000000000000000000000000000000000000000000000600052603260045260246000fd5b60200101907effffffffffffffffffffffffffffffffffffffffffffffffffffffffffffff1916908160001a905350600a85613e4d9190614fd4565b9450613da5565b8093505050505b919050565b600080823b905060008111915050919050565b828054613e7f9061510b565b90600052602060002090601f016020900481019282613ea15760008555613ee8565b82601f10613eba57805160ff1916838001178555613ee8565b82800160010185558215613ee8579182015b82811115613ee7578251825591602001919060010190613ecc565b5b509050613ef59190613f8a565b5090565b604051806101800160405280600081526020016060815260200160608152602001600073ffffffffffffffffffffffffffffffffffffffff168152602001600073ffffffffffffffffffffffffffffffffffffffff16815260200160008152602001600081526020016000151581526020016000815260200160008152602001606081526020016000151581525090565b5b80821115613fa3576000816000905550600101613f8b565b5090565b6000613fba613fb584614ebd565b614e98565b905082815260208101848484011115613fd257600080fd5b613fdd8482856150c9565b509392505050565b6000613ff8613ff384614eee565b614e98565b90508281526020810184848401111561401057600080fd5b61401b8482856150c9565b509392505050565b60008135905061403281615829565b92915050565b60008135905061404781615840565b92915050565b60008151905061405c81615857565b92915050565b6000813590506140718161586e565b92915050565b6000815190506140868161586e565b92915050565b600082601f83011261409d57600080fd5b81356140ad848260208601613fa7565b91505092915050565b600082601f8301126140c757600080fd5b81356140d7848260208601613fe5565b91505092915050565b6000813590506140ef81615885565b92915050565b60006020828403121561410757600080fd5b600061411584828501614023565b91505092915050565b6000806040838503121561413157600080fd5b600061413f85828601614023565b925050602061415085828601614023565b9150509250929050565b60008060006060848603121561416f57600080fd5b600061417d86828701614023565b935050602061418e86828701614023565b925050604061419f868287016140e0565b9150509250925092565b600080600080608085870312156141bf57600080fd5b60006141cd87828801614023565b94505060206141de87828801614023565b93505060406141ef878288016140e0565b925050606085013567ffffffffffffffff81111561420c57600080fd5b6142188782880161408c565b91505092959194509250565b6000806040838503121561423757600080fd5b600061424585828601614023565b925050602061425685828601614038565b9150509250929050565b6000806040838503121561427357600080fd5b600061428185828601614023565b9250506020614292858286016140e0565b9150509250929050565b6000602082840312156142ae57600080fd5b60006142bc8482850161404d565b91505092915050565b6000602082840312156142d757600080fd5b60006142e584828501614062565b91505092915050565b60006020828403121561430057600080fd5b600061430e84828501614077565b91505092915050565b60006020828403121561432957600080fd5b600082013567ffffffffffffffff81111561434357600080fd5b61434f848285016140b6565b91505092915050565b6000806040838503121561436b57600080fd5b600083013567ffffffffffffffff81111561438557600080fd5b614391858286016140b6565b925050602083013567ffffffffffffffff8111156143ae57600080fd5b6143ba858286016140b6565b9150509250929050565b6000602082840312156143d657600080fd5b60006143e4848285016140e0565b91505092915050565b6000806000806080858703121561440357600080fd5b6000614411878288016140e0565b945050602085013567ffffffffffffffff81111561442e57600080fd5b61443a878288016140b6565b935050604085013567ffffffffffffffff81111561445757600080fd5b614463878288016140b6565b925050606085013567ffffffffffffffff81111561448057600080fd5b61448c878288016140b6565b91505092959194509250565b600080604083850312156144ab57600080fd5b60006144b9858286016140e0565b92505060206144ca858286016140e0565b9150509250929050565b6144dd8161504b565b82525050565b6144ec81615039565b82525050565b6144fb8161505d565b82525050565b61450a8161505d565b82525050565b61451981615069565b82525050565b600061452a82614f1f565b6145348185614f35565b93506145448185602086016150d8565b61454d816152a4565b840191505092915050565b600061456382614f1f565b61456d8185614f46565b935061457d8185602086016150d8565b80840191505092915050565b600061459482614f2a565b61459e8185614f51565b93506145ae8185602086016150d8565b6145b7816152a4565b840191505092915050565b60006145cd82614f2a565b6145d78185614f62565b93506145e78185602086016150d8565b6145f0816152a4565b840191505092915050565b600061460682614f2a565b6146108185614f73565b93506146208185602086016150d8565b80840191505092915050565b6000614639603283614f62565b9150614644826152b5565b604082019050919050565b600061465c602683614f62565b915061466782615304565b604082019050919050565b600061467f601c83614f62565b915061468a82615353565b602082019050919050565b60006146a2602483614f62565b91506146ad8261537c565b604082019050919050565b60006146c5601983614f62565b91506146d0826153cb565b602082019050919050565b60006146e8602c83614f62565b91506146f3826153f4565b604082019050919050565b600061470b603883614f62565b915061471682615443565b604082019050919050565b600061472e602a83614f62565b915061473982615492565b604082019050919050565b6000614751602983614f62565b915061475c826154e1565b604082019050919050565b6000614774602e83614f62565b915061477f82615530565b604082019050919050565b6000614797601383614f62565b91506147a28261557f565b602082019050919050565b60006147ba602083614f62565b91506147c5826155a8565b602082019050919050565b60006147dd603183614f62565b91506147e8826155d1565b604082019050919050565b6000614800602c83614f62565b915061480b82615620565b604082019050919050565b6000614823602083614f62565b915061482e8261566f565b602082019050919050565b6000614846601483614f62565b915061485182615698565b602082019050919050565b6000614869602983614f62565b9150614874826156c1565b604082019050919050565b600061488c602f83614f62565b915061489782615710565b604082019050919050565b60006148af602183614f62565b91506148ba8261575f565b604082019050919050565b60006148d2600083614f46565b91506148dd826157ae565b600082019050919050565b60006148f5603183614f62565b9150614900826157b1565b604082019050919050565b6000614918600c83614f62565b915061492382615800565b602082019050919050565b6000610180830160008301516149476000860182614a40565b506020830151848203602086015261495f8282614589565b915050604083015184820360408601526149798282614589565b915050606083015161498e60608601826144d4565b5060808301516149a160808601826144d4565b5060a08301516149b460a0860182614a40565b5060c08301516149c760c0860182614a40565b5060e08301516149da60e08601826144f2565b506101008301516149ef610100860182614a40565b50610120830151614a04610120860182614a40565b50610140830151848203610140860152614a1e8282614589565b915050610160830151614a356101608601826144f2565b508091505092915050565b614a49816150bf565b82525050565b614a58816150bf565b82525050565b6000614a6a8284614558565b915081905092915050565b6000614a8182846145fb565b915081905092915050565b6000614a9882856145fb565b9150614aa482846145fb565b91508190509392505050565b6000614abb826148c5565b9150819050919050565b6000602082019050614ada60008301846144e3565b92915050565b6000608082019050614af560008301876144e3565b614b0260208301866144e3565b614b0f6040830185614a4f565b8181036060830152614b21818461451f565b905095945050505050565b6000602082019050614b416000830184614501565b92915050565b6000606082019050614b5c6000830186614501565b614b696020830185614510565b614b766040830184614a4f565b949350505050565b6000602082019050614b936000830184614510565b92915050565b60006020820190508181036000830152614bb381846145c2565b905092915050565b60006020820190508181036000830152614bd48161462c565b9050919050565b60006020820190508181036000830152614bf48161464f565b9050919050565b60006020820190508181036000830152614c1481614672565b9050919050565b60006020820190508181036000830152614c3481614695565b9050919050565b60006020820190508181036000830152614c54816146b8565b9050919050565b60006020820190508181036000830152614c74816146db565b9050919050565b60006020820190508181036000830152614c94816146fe565b9050919050565b60006020820190508181036000830152614cb481614721565b9050919050565b60006020820190508181036000830152614cd481614744565b9050919050565b60006020820190508181036000830152614cf481614767565b9050919050565b60006020820190508181036000830152614d148161478a565b9050919050565b60006020820190508181036000830152614d34816147ad565b9050919050565b60006020820190508181036000830152614d54816147d0565b9050919050565b60006020820190508181036000830152614d74816147f3565b9050919050565b60006020820190508181036000830152614d9481614816565b9050919050565b60006020820190508181036000830152614db481614839565b9050919050565b60006020820190508181036000830152614dd48161485c565b9050919050565b60006020820190508181036000830152614df48161487f565b9050919050565b60006020820190508181036000830152614e14816148a2565b9050919050565b60006020820190508181036000830152614e34816148e8565b9050919050565b60006020820190508181036000830152614e548161490b565b9050919050565b60006020820190508181036000830152614e75818461492e565b905092915050565b6000602082019050614e926000830184614a4f565b92915050565b6000614ea2614eb3565b9050614eae828261513d565b919050565b6000604051905090565b600067ffffffffffffffff821115614ed857614ed7615275565b5b614ee1826152a4565b9050602081019050919050565b600067ffffffffffffffff821115614f0957614f08615275565b5b614f12826152a4565b9050602081019050919050565b600081519050919050565b600081519050919050565b600082825260208201905092915050565b600081905092915050565b600082825260208201905092915050565b600082825260208201905092915050565b600081905092915050565b6000614f89826150bf565b9150614f94836150bf565b9250827fffffffffffffffffffffffffffffffffffffffffffffffffffffffffffffffff03821115614fc957614fc86151e8565b5b828201905092915050565b6000614fdf826150bf565b9150614fea836150bf565b925082614ffa57614ff9615217565b5b828204905092915050565b6000615010826150bf565b915061501b836150bf565b92508282101561502e5761502d6151e8565b5b828203905092915050565b60006150448261509f565b9050919050565b60006150568261509f565b9050919050565b60008115159050919050565b6000819050919050565b60007fffffffff0000000000000000000000000000000000000000000000000000000082169050919050565b600073ffffffffffffffffffffffffffffffffffffffff82169050919050565b6000819050919050565b82818337600083830152505050565b60005b838110156150f65780820151818401526020810190506150db565b83811115615105576000848401525b50505050565b6000600282049050600182168061512357607f821691505b6020821081141561513757615136615246565b5b50919050565b615146826152a4565b810181811067ffffffffffffffff8211171561516557615164615275565b5b80604052505050565b6000615179826150bf565b91507fffffffffffffffffffffffffffffffffffffffffffffffffffffffffffffffff8214156151ac576151ab6151e8565b5b600182019050919050565b60006151c2826150bf565b91506151cd836150bf565b9250826151dd576151dc615217565b5b828206905092915050565b7f4e487b7100000000000000000000000000000000000000000000000000000000600052601160045260246000fd5b7f4e487b7100000000000000000000000000000000000000000000000000000000600052601260045260246000fd5b7f4e487b7100000000000000000000000000000000000000000000000000000000600052602260045260246000fd5b7f4e487b7100000000000000000000000000000000000000000000000000000000600052604160045260246000fd5b6000601f19601f8301169050919050565b7f4552433732313a207472616e7366657220746f206e6f6e20455243373231526560008201527f63656976657220696d706c656d656e7465720000000000000000000000000000602082015250565b7f4f776e61626c653a206e6577206f776e657220697320746865207a65726f206160008201527f6464726573730000000000000000000000000000000000000000000000000000602082015250565b7f4552433732313a20746f6b656e20616c7265616479206d696e74656400000000600082015250565b7f4552433732313a207472616e7366657220746f20746865207a65726f2061646460008201527f7265737300000000000000000000000000000000000000000000000000000000602082015250565b7f4552433732313a20617070726f766520746f2063616c6c657200000000000000600082015250565b7f4552433732313a206f70657261746f7220717565727920666f72206e6f6e657860008201527f697374656e7420746f6b656e0000000000000000000000000000000000000000602082015250565b7f4552433732313a20617070726f76652063616c6c6572206973206e6f74206f7760008201527f6e6572206e6f7220617070726f76656420666f7220616c6c0000000000000000602082015250565b7f4552433732313a2062616c616e636520717565727920666f7220746865207a6560008201527f726f206164647265737300000000000000000000000000000000000000000000602082015250565b7f4552433732313a206f776e657220717565727920666f72206e6f6e657869737460008201527f656e7420746f6b656e0000000000000000000000000000000000000000000000602082015250565b7f45524337323155524953746f726167653a2055524920736574206f66206e6f6e60008201527f6578697374656e7420746f6b656e000000000000000000000000000000000000602082015250565b7f746f6c6572616e63652069732065787069726500000000000000000000000000600082015250565b7f4552433732313a206d696e7420746f20746865207a65726f2061646472657373600082015250565b7f45524337323155524953746f726167653a2055524920717565727920666f722060008201527f6e6f6e6578697374656e7420746f6b656e000000000000000000000000000000602082015250565b7f4552433732313a20617070726f76656420717565727920666f72206e6f6e657860008201527f697374656e7420746f6b656e0000000000000000000000000000000000000000602082015250565b7f4f776e61626c653a2063616c6c6572206973206e6f7420746865206f776e6572600082015250565b7f70726963652068617320746f2062652068696768000000000000000000000000600082015250565b7f4552433732313a207472616e73666572206f6620746f6b656e2074686174206960008201527f73206e6f74206f776e0000000000000000000000000000000000000000000000602082015250565b7f4552433732314d657461646174613a2055524920717565727920666f72206e6f60008201527f6e6578697374656e7420746f6b656e0000000000000000000000000000000000602082015250565b7f4552433732313a20617070726f76616c20746f2063757272656e74206f776e6560008201527f7200000000000000000000000000000000000000000000000000000000000000602082015250565b50565b7f4552433732313a207472616e736665722063616c6c6572206973206e6f74206f60008201527f776e6572206e6f7220617070726f766564000000000000000000000000000000602082015250565b7f6e616d6520697320627573790000000000000000000000000000000000000000600082015250565b61583281615039565b811461583d57600080fd5b50565b6158498161505d565b811461585457600080fd5b50565b61586081615069565b811461586b57600080fd5b50565b61587781615073565b811461588257600080fd5b50565b61588e816150bf565b811461589957600080fd5b5056fea26469706673582212205b8e338fa762162a80cee4e5e49b72419c437f172ad160b87cbf7474104163fd64736f6c63430008030033",
  "immutableReferences": {},
  "source": "// SPDX-License-Identifier: MIT\npragma solidity ^0.8.0;\n\nimport \"@openzeppelin/contracts/token/ERC721/extensions/ERC721URIStorage.sol\";\n// import \"@openzeppelin/contracts/token/ERC721/extensions/ERC721Enumerable.sol\";\nimport \"@openzeppelin/contracts/utils/Counters.sol\";\nimport \"@openzeppelin/contracts/access/Ownable.sol\";\n\n\ncontract Hashima is ERC721URIStorage,Ownable{\n    using Counters for Counters.Counter;\n    Counters.Counter private _tokenIds;\n    uint256 BLOCK_TOLERANCE=100;\n\n    mapping(address=>uint256) private tolerance;\n    //check the string use by the user is not repeat\n    mapping(string=>bool)public _names;\n\n    constructor() ERC721(\"Hashima\", \"HASHIMA\") {}\n\n   struct Hashi {\n    uint256 tokenId;\n    string tokenName;\n    string tokenURI;\n    address payable currentOwner;\n    address payable previousOwner;\n    uint256 price;\n    uint256 numberOfTransfers;\n    bool forSale;\n    uint256 stars;\n    uint256 blockNumber;\n    string nonce;\n    bool sign;\n  }\n    \n    mapping(uint256=>Hashi) _hashis ;\n\n    function createHashimaItem(\n        string memory tokenURI,\n        string memory _data,\n        string memory _nonce,\n        uint256 _estrellas) private returns (uint256){\n\n        _tokenIds.increment();\n\n        uint256 newItemId = _tokenIds.current();\n        _mint(msg.sender, newItemId);\n        _setTokenURI(newItemId, tokenURI);\n\n    bool sign=false;\n    if(owner()==msg.sender){\n      sign=true;\n    }\n    Hashi memory newHashima= Hashi(\n    _tokenIds.current(),//token id of hashima\n    _data,//string pick by the miner\n    tokenURI,\n    payable(msg.sender),\n    payable(address(0)),\n    0,\n    0,\n    false,\n    _estrellas,\n    block.number,\n    _nonce,\n    sign\n\n    );\n    // add the token id and it's crypto boy to all crypto boys mapping\n    _hashis[_tokenIds.current()] = newHashima;\n\n    return newItemId;\n\n    }\n\n    function getHashima(uint256 _index)public view returns(Hashi memory){\n        return _hashis[_index];\n    }\n\n    function _beforeTokenTransfer(address from,address to,uint256 tokenId)internal override{\n\n          Hashi memory _hashima = _hashis[tokenId];\n          // update the token's previous owner\n          _hashima.previousOwner = payable(from);\n          // update the token's current owner\n          _hashima.currentOwner =payable(to);\n          _hashis[tokenId] = _hashima;\n\n    }\n  \n\n    event GameStart(uint256 _blocknumber);\n \n    function initGame()public{\n        uint256 _block=block.number;\n        tolerance[msg.sender]=_block;\n        emit GameStart(_block);\n    }\n\n\n    function check(\n        uint256 _estrellas,\n        string memory _hashID,\n        string memory _nonce,\n        string memory _uri)public returns(bool,bytes32,uint256) {\n\n        uint256 _id=0;\n        require(tolerance[msg.sender]+BLOCK_TOLERANCE>block.number,\"tolerance is expire\");\n        require(_names[_hashID]==false,\"name is busy\");\n        require(tolerance[msg.sender]!=0);\n        require(msg.sender != address(0));\n\n        bool respuesta=true;\n        bytes32 _hashFinal=sha256(abi.encodePacked(_hashID,_nonce));\n\n        for (uint256 index = 0; index < _estrellas; index++) {\n            \n           if (_hashFinal[index]!=0x00) {\n                respuesta=false;  \n            \n            }\n        \n        }\n        if (respuesta) {\n            //convierto la string utilizada a true para que no pueda ser utilizada.    \n            _names[_hashID]=true; \n            \n            _id=createHashimaItem(\n                _uri,\n                _hashID,\n                _nonce,\n                _estrellas);\n         \n        }\n        return(respuesta,_hashFinal,_id);\n        \n    }\n\n  function checkGame()public view returns(uint256){\n        return tolerance[msg.sender];\n    }\n  \n  function setBlockTolerance(uint256 _newtolerance)public onlyOwner{\n        BLOCK_TOLERANCE=_newtolerance;\n\n    }\n\n  function buyToken(uint256 _tokenId) public payable returns(bool){\n    // check if the function caller is not an zero account address\n    require(msg.sender != address(0));\n    // check if the token id of the token being bought exists or not\n    require(_exists(_tokenId));\n    // get the token's owner\n    address tokenOwner = ownerOf(_tokenId);\n    // token's owner should not be an zero address account\n    require(tokenOwner != address(0));\n    // the one who wants to buy the token should not be the token's owner\n    require(tokenOwner != msg.sender);\n    // get that token from all hashimas mapping and create a memory of it defined as (struct => Hashi)\n    Hashi memory _hashima = _hashis[_tokenId];\n    // price sent in to buy should be equal to or more than the token's price\n    require(msg.value >= _hashima.price,'price has to be high');\n    // hashima should be for sale\n    require(_hashima.forSale);\n    // transfer the token from owner to the caller of the function (buyer)\n    _transfer(tokenOwner, msg.sender, _tokenId);\n    // get owner of the token\n    address payable sendTo = _hashima.currentOwner;\n    // send token's worth of ethers to the owner\n    (bool sent, ) = sendTo.call{value: msg.value}(\"\");\n\n    // update the token's previous owner\n    // _hashima.previousOwner = _hashima.currentOwner;\n    // // update the token's current owner\n    // _hashima.currentOwner =payable(msg.sender);\n\n    // update the how many times this token was transfered\n    _hashima.numberOfTransfers += 1;\n    _hashima.forSale=false;\n    // set and update that token in the mapping\n    _hashis[_tokenId] = _hashima;\n\n    return sent;\n  }\n\n\n\n  function changeTokenPrice(uint256 _tokenId, uint256 _newPrice) public {\n    // require caller of the function is not an empty address\n    require(msg.sender != address(0));\n    // require that token should exist\n    require(_exists(_tokenId));\n    // get the token's owner\n    address tokenOwner = ownerOf(_tokenId);\n    // check that token's owner should be equal to the caller of the function\n    require(tokenOwner == msg.sender);\n\n    Hashi memory _hashima = _hashis[_tokenId];\n    // update token's price with new price\n    _hashima.price = _newPrice;\n    // set and update that token in the mapping\n    _hashis[_tokenId] = _hashima;\n  }\n\n  // switch between set for sale and set not for sale\n  function toggleForSale(uint256 _tokenId,uint256 _newPrice) public {\n    // require caller of the function is not an empty address\n    require(msg.sender != address(0));\n    // require that token should exist\n    require(_exists(_tokenId));\n    // get the token's owner\n    address tokenOwner = ownerOf(_tokenId);\n    // check that token's owner should be equal to the caller of the function\n    require(tokenOwner == msg.sender);\n    // get that token from all crypto boys mapping and create a memory of it defined as (struct => CryptoBoy)\n    Hashi memory _hashima = _hashis[_tokenId];\n\n    // if token's forSale is false make it true and vice versa\n    if(_hashima.forSale) {\n      _hashima.forSale = false;\n    } else {\n      _hashima.forSale = true;\n      _hashima.price = _newPrice;\n    }\n    // set and update that token in the mapping\n    _hashis[_tokenId] = _hashima;\n  }\n\n  function dameTotal()public view returns(uint256){\n      return(_tokenIds.current());\n  }\n\n  function original(uint256 _tokenId)public view returns(bool){\n    return _hashis[_tokenId].sign;\n  }\n\n  function checkingHash(string memory _input,string memory _nonce)public pure returns(bytes32){\n      bytes32 _hashFinal=sha256(abi.encodePacked(_input,_nonce));\n      return _hashFinal;\n\n  }\n\n}",
  "sourcePath": "/Users/aarontolentino/Desktop/hashima/contracts/Hashima.sol",
  "compiler": {
    "name": "solc",
    "version": "0.8.3+commit.8d00100c.Emscripten.clang"
  },
  "schemaVersion": "3.4.1",
  "updatedAt": "2022-01-18T21:19:12.123Z",
  "networkType": "ethereum",
  "devdoc": {
    "kind": "dev",
    "methods": {
      "approve(address,uint256)": {
        "details": "See {IERC721-approve}."
      },
      "balanceOf(address)": {
        "details": "See {IERC721-balanceOf}."
      },
      "getApproved(uint256)": {
        "details": "See {IERC721-getApproved}."
      },
      "isApprovedForAll(address,address)": {
        "details": "See {IERC721-isApprovedForAll}."
      },
      "name()": {
        "details": "See {IERC721Metadata-name}."
      },
      "owner()": {
        "details": "Returns the address of the current owner."
      },
      "ownerOf(uint256)": {
        "details": "See {IERC721-ownerOf}."
      },
      "renounceOwnership()": {
        "details": "Leaves the contract without owner. It will not be possible to call `onlyOwner` functions anymore. Can only be called by the current owner. NOTE: Renouncing ownership will leave the contract without an owner, thereby removing any functionality that is only available to the owner."
      },
      "safeTransferFrom(address,address,uint256)": {
        "details": "See {IERC721-safeTransferFrom}."
      },
      "safeTransferFrom(address,address,uint256,bytes)": {
        "details": "See {IERC721-safeTransferFrom}."
      },
      "setApprovalForAll(address,bool)": {
        "details": "See {IERC721-setApprovalForAll}."
      },
      "supportsInterface(bytes4)": {
        "details": "See {IERC165-supportsInterface}."
      },
      "symbol()": {
        "details": "See {IERC721Metadata-symbol}."
      },
      "tokenURI(uint256)": {
        "details": "See {IERC721Metadata-tokenURI}."
      },
      "transferFrom(address,address,uint256)": {
        "details": "See {IERC721-transferFrom}."
      },
      "transferOwnership(address)": {
        "details": "Transfers ownership of the contract to a new account (`newOwner`). Can only be called by the current owner."
      }
    },
    "version": 1
  },
  "userdoc": {
    "kind": "user",
    "methods": {},
    "version": 1
  }
}