{
  "contractName": "Hashi",
  "abi": [
    {
      "inputs": [
        {
          "internalType": "contract Hashima",
          "name": "_contrato",
          "type": "address"
        }
      ],
      "stateMutability": "nonpayable",
      "type": "constructor"
    },
    {
      "anonymous": false,
      "inputs": [
        {
          "indexed": true,
          "internalType": "address",
          "name": "owner",
          "type": "address"
        },
        {
          "indexed": true,
          "internalType": "address",
          "name": "spender",
          "type": "address"
        },
        {
          "indexed": false,
          "internalType": "uint256",
          "name": "value",
          "type": "uint256"
        }
      ],
      "name": "Approval",
      "type": "event"
    },
    {
      "anonymous": false,
      "inputs": [
        {
          "indexed": true,
          "internalType": "address",
          "name": "from",
          "type": "address"
        },
        {
          "indexed": true,
          "internalType": "address",
          "name": "to",
          "type": "address"
        },
        {
          "indexed": false,
          "internalType": "uint256",
          "name": "value",
          "type": "uint256"
        }
      ],
      "name": "Transfer",
      "type": "event"
    },
    {
      "inputs": [],
      "name": "REWARD_PER_BLOCK",
      "outputs": [
        {
          "internalType": "uint256",
          "name": "",
          "type": "uint256"
        }
      ],
      "stateMutability": "view",
      "type": "function",
      "constant": true
    },
    {
      "inputs": [
        {
          "internalType": "address",
          "name": "owner",
          "type": "address"
        },
        {
          "internalType": "address",
          "name": "spender",
          "type": "address"
        }
      ],
      "name": "allowance",
      "outputs": [
        {
          "internalType": "uint256",
          "name": "",
          "type": "uint256"
        }
      ],
      "stateMutability": "view",
      "type": "function",
      "constant": true
    },
    {
      "inputs": [
        {
          "internalType": "address",
          "name": "spender",
          "type": "address"
        },
        {
          "internalType": "uint256",
          "name": "amount",
          "type": "uint256"
        }
      ],
      "name": "approve",
      "outputs": [
        {
          "internalType": "bool",
          "name": "",
          "type": "bool"
        }
      ],
      "stateMutability": "nonpayable",
      "type": "function"
    },
    {
      "inputs": [
        {
          "internalType": "address",
          "name": "account",
          "type": "address"
        }
      ],
      "name": "balanceOf",
      "outputs": [
        {
          "internalType": "uint256",
          "name": "",
          "type": "uint256"
        }
      ],
      "stateMutability": "view",
      "type": "function",
      "constant": true
    },
    {
      "inputs": [
        {
          "internalType": "uint256",
          "name": "amount",
          "type": "uint256"
        }
      ],
      "name": "burn",
      "outputs": [],
      "stateMutability": "nonpayable",
      "type": "function"
    },
    {
      "inputs": [
        {
          "internalType": "address",
          "name": "account",
          "type": "address"
        },
        {
          "internalType": "uint256",
          "name": "amount",
          "type": "uint256"
        }
      ],
      "name": "burnFrom",
      "outputs": [],
      "stateMutability": "nonpayable",
      "type": "function"
    },
    {
      "inputs": [
        {
          "internalType": "address",
          "name": "",
          "type": "address"
        },
        {
          "internalType": "uint256",
          "name": "",
          "type": "uint256"
        }
      ],
      "name": "checkpoints",
      "outputs": [
        {
          "internalType": "uint256",
          "name": "",
          "type": "uint256"
        }
      ],
      "stateMutability": "view",
      "type": "function",
      "constant": true
    },
    {
      "inputs": [],
      "name": "decimals",
      "outputs": [
        {
          "internalType": "uint8",
          "name": "",
          "type": "uint8"
        }
      ],
      "stateMutability": "view",
      "type": "function",
      "constant": true
    },
    {
      "inputs": [
        {
          "internalType": "address",
          "name": "spender",
          "type": "address"
        },
        {
          "internalType": "uint256",
          "name": "subtractedValue",
          "type": "uint256"
        }
      ],
      "name": "decreaseAllowance",
      "outputs": [
        {
          "internalType": "bool",
          "name": "",
          "type": "bool"
        }
      ],
      "stateMutability": "nonpayable",
      "type": "function"
    },
    {
      "inputs": [
        {
          "internalType": "uint256",
          "name": "",
          "type": "uint256"
        }
      ],
      "name": "has_deposited",
      "outputs": [
        {
          "internalType": "bool",
          "name": "",
          "type": "bool"
        }
      ],
      "stateMutability": "view",
      "type": "function",
      "constant": true
    },
    {
      "inputs": [
        {
          "internalType": "address",
          "name": "spender",
          "type": "address"
        },
        {
          "internalType": "uint256",
          "name": "addedValue",
          "type": "uint256"
        }
      ],
      "name": "increaseAllowance",
      "outputs": [
        {
          "internalType": "bool",
          "name": "",
          "type": "bool"
        }
      ],
      "stateMutability": "nonpayable",
      "type": "function"
    },
    {
      "inputs": [],
      "name": "name",
      "outputs": [
        {
          "internalType": "string",
          "name": "",
          "type": "string"
        }
      ],
      "stateMutability": "view",
      "type": "function",
      "constant": true
    },
    {
      "inputs": [
        {
          "internalType": "uint256",
          "name": "",
          "type": "uint256"
        }
      ],
      "name": "staking_accounts",
      "outputs": [
        {
          "internalType": "address",
          "name": "",
          "type": "address"
        }
      ],
      "stateMutability": "view",
      "type": "function",
      "constant": true
    },
    {
      "inputs": [],
      "name": "symbol",
      "outputs": [
        {
          "internalType": "string",
          "name": "",
          "type": "string"
        }
      ],
      "stateMutability": "view",
      "type": "function",
      "constant": true
    },
    {
      "inputs": [],
      "name": "totalSupply",
      "outputs": [
        {
          "internalType": "uint256",
          "name": "",
          "type": "uint256"
        }
      ],
      "stateMutability": "view",
      "type": "function",
      "constant": true
    },
    {
      "inputs": [
        {
          "internalType": "address",
          "name": "recipient",
          "type": "address"
        },
        {
          "internalType": "uint256",
          "name": "amount",
          "type": "uint256"
        }
      ],
      "name": "transfer",
      "outputs": [
        {
          "internalType": "bool",
          "name": "",
          "type": "bool"
        }
      ],
      "stateMutability": "nonpayable",
      "type": "function"
    },
    {
      "inputs": [
        {
          "internalType": "address",
          "name": "sender",
          "type": "address"
        },
        {
          "internalType": "address",
          "name": "recipient",
          "type": "address"
        },
        {
          "internalType": "uint256",
          "name": "amount",
          "type": "uint256"
        }
      ],
      "name": "transferFrom",
      "outputs": [
        {
          "internalType": "bool",
          "name": "",
          "type": "bool"
        }
      ],
      "stateMutability": "nonpayable",
      "type": "function"
    },
    {
      "inputs": [
        {
          "internalType": "uint256",
          "name": "tokenId",
          "type": "uint256"
        }
      ],
      "name": "aprovar",
      "outputs": [],
      "stateMutability": "nonpayable",
      "type": "function"
    },
    {
      "inputs": [
        {
          "internalType": "uint256",
          "name": "tokenId",
          "type": "uint256"
        }
      ],
      "name": "deposit",
      "outputs": [],
      "stateMutability": "nonpayable",
      "type": "function"
    },
    {
      "inputs": [
        {
          "internalType": "uint256",
          "name": "tokenId",
          "type": "uint256"
        }
      ],
      "name": "withdraw",
      "outputs": [],
      "stateMutability": "nonpayable",
      "type": "function"
    },
    {
      "inputs": [
        {
          "internalType": "address",
          "name": "beneficiary",
          "type": "address"
        },
        {
          "internalType": "uint256",
          "name": "tokenId",
          "type": "uint256"
        }
      ],
      "name": "collect",
      "outputs": [],
      "stateMutability": "nonpayable",
      "type": "function"
    },
    {
      "inputs": [
        {
          "internalType": "uint256",
          "name": "tokenId",
          "type": "uint256"
        }
      ],
      "name": "hashimaOnStaking",
      "outputs": [
        {
          "internalType": "bool",
          "name": "",
          "type": "bool"
        }
      ],
      "stateMutability": "view",
      "type": "function",
      "constant": true
    },
    {
      "inputs": [
        {
          "internalType": "address",
          "name": "beneficiary",
          "type": "address"
        },
        {
          "internalType": "uint256",
          "name": "tokenId",
          "type": "uint256"
        }
      ],
      "name": "calculateReward",
      "outputs": [
        {
          "internalType": "uint256",
          "name": "",
          "type": "uint256"
        }
      ],
      "stateMutability": "view",
      "type": "function",
      "constant": true
    }
  ],
  "bytecode": "0x608060405260016008553480156200001657600080fd5b5060405162002e7738038062002e7783398181016040528101906200003c9190620001eb565b6040518060400160405280600581526020017f48617368690000000000000000000000000000000000000000000000000000008152506040518060400160405280600581526020017f48415348490000000000000000000000000000000000000000000000000000008152508160039080519060200190620000c092919062000124565b508060049080519060200190620000d992919062000124565b50505080600960006101000a81548173ffffffffffffffffffffffffffffffffffffffff021916908373ffffffffffffffffffffffffffffffffffffffff16021790555050620002de565b82805462000132906200025f565b90600052602060002090601f016020900481019282620001565760008555620001a2565b82601f106200017157805160ff1916838001178555620001a2565b82800160010185558215620001a2579182015b82811115620001a157825182559160200191906001019062000184565b5b509050620001b19190620001b5565b5090565b5b80821115620001d0576000816000905550600101620001b6565b5090565b600081519050620001e581620002c4565b92915050565b600060208284031215620001fe57600080fd5b60006200020e84828501620001d4565b91505092915050565b600062000224826200023f565b9050919050565b6000620002388262000217565b9050919050565b600073ffffffffffffffffffffffffffffffffffffffff82169050919050565b600060028204905060018216806200027857607f821691505b602082108114156200028f576200028e62000295565b5b50919050565b7f4e487b7100000000000000000000000000000000000000000000000000000000600052602260045260246000fd5b620002cf816200022b565b8114620002db57600080fd5b50565b612b8980620002ee6000396000f3fe608060405234801561001057600080fd5b506004361061014d5760003560e01c806357ddb1ed116100c3578063a457c2d71161007c578063a457c2d7146103c4578063a9059cbb146103f4578063af9d163214610424578063b6b55f2514610454578063dd62ed3e14610470578063e68039c6146104a05761014d565b806357ddb1ed146103045780636b8357ac1461032057806370a082311461033c57806379cc67901461036c57806395d89b4114610388578063975532dc146103a65761014d565b806323b872dd1161011557806323b872dd1461021e5780632e1a7d4d1461024e578063313ce5671461026a578063386082351461028857806339509351146102b857806342966c68146102e85761014d565b806306fdde0314610152578063095ea7b3146101705780630cdfebfa146101a057806318160ddd146101d05780631852e8d9146101ee575b600080fd5b61015a6104d0565b604051610167919061218b565b60405180910390f35b61018a60048036038101906101859190611dcd565b610562565b6040516101979190612170565b60405180910390f35b6101ba60048036038101906101b59190611dcd565b610580565b6040516101c7919061238d565b60405180910390f35b6101d86105a5565b6040516101e5919061238d565b60405180910390f35b61020860048036038101906102039190611dcd565b6105af565b604051610215919061238d565b60405180910390f35b61023860048036038101906102339190611d7e565b610743565b6040516102459190612170565b60405180910390f35b61026860048036038101906102639190611e4a565b61083b565b005b610272610a06565b60405161027f91906123a8565b60405180910390f35b6102a2600480360381019061029d9190611e4a565b610a0f565b6040516102af9190612170565b60405180910390f35b6102d260048036038101906102cd9190611dcd565b610a39565b6040516102df9190612170565b60405180910390f35b61030260048036038101906102fd9190611e4a565b610ae5565b005b61031e60048036038101906103199190611e4a565b610af9565b005b61033a60048036038101906103359190611dcd565b610b8b565b005b61035660048036038101906103519190611cf0565b610bfd565b604051610363919061238d565b60405180910390f35b61038660048036038101906103819190611dcd565b610c45565b005b610390610cc0565b60405161039d919061218b565b60405180910390f35b6103ae610d52565b6040516103bb919061238d565b60405180910390f35b6103de60048036038101906103d99190611dcd565b610d58565b6040516103eb9190612170565b60405180910390f35b61040e60048036038101906104099190611dcd565b610e43565b60405161041b9190612170565b60405180910390f35b61043e60048036038101906104399190611e4a565b610e61565b60405161044b9190612170565b60405180910390f35b61046e60048036038101906104699190611e4a565b610e81565b005b61048a60048036038101906104859190611d42565b6112af565b604051610497919061238d565b60405180910390f35b6104ba60048036038101906104b59190611e4a565b611336565b6040516104c791906120f5565b60405180910390f35b6060600380546104df906125e4565b80601f016020809104026020016040519081016040528092919081815260200182805461050b906125e4565b80156105585780601f1061052d57610100808354040283529160200191610558565b820191906000526020600020905b81548152906001019060200180831161053b57829003601f168201915b5050505050905090565b600061057661056f611369565b8484611371565b6001905092915050565b6005602052816000526040600020602052806000526040600020600091509150505481565b6000600254905090565b60006006600083815260200190815260200160002060009054906101000a900460ff166105df576000905061073d565b6000600960009054906101000a900473ffffffffffffffffffffffffffffffffffffffff1673ffffffffffffffffffffffffffffffffffffffff1663d43525c3846040518263ffffffff1660e01b815260040161063c919061238d565b60006040518083038186803b15801561065457600080fd5b505afa158015610668573d6000803e3d6000fd5b505050506040513d6000823e3d601f19601f820116820180604052508101906106919190611e09565b608001519050600081604061271084856106ab91906124bc565b6106b591906124bc565b6106bf919061248b565b6106c99190612516565b90506000600560008773ffffffffffffffffffffffffffffffffffffffff1673ffffffffffffffffffffffffffffffffffffffff1681526020019081526020016000206000868152602001908152602001600020549050804361072c9190612516565b8261073791906124bc565b93505050505b92915050565b600061075084848461153c565b6000600160008673ffffffffffffffffffffffffffffffffffffffff1673ffffffffffffffffffffffffffffffffffffffff168152602001908152602001600020600061079b611369565b73ffffffffffffffffffffffffffffffffffffffff1673ffffffffffffffffffffffffffffffffffffffff1681526020019081526020016000205490508281101561081b576040517f08c379a0000000000000000000000000000000000000000000000000000000008152600401610812906122ad565b60405180910390fd5b61082f85610827611369565b858403611371565b60019150509392505050565b6006600082815260200190815260200160002060009054906101000a900460ff1661089b576040517f08c379a00000000000000000000000000000000000000000000000000000000081526004016108929061222d565b60405180910390fd5b3373ffffffffffffffffffffffffffffffffffffffff166007600083815260200190815260200160002060009054906101000a900473ffffffffffffffffffffffffffffffffffffffff1673ffffffffffffffffffffffffffffffffffffffff161461093c576040517f08c379a0000000000000000000000000000000000000000000000000000000008152600401610933906121cd565b60405180910390fd5b6109463382610b8b565b600960009054906101000a900473ffffffffffffffffffffffffffffffffffffffff1673ffffffffffffffffffffffffffffffffffffffff166323b872dd3033846040518463ffffffff1660e01b81526004016109a593929190612110565b600060405180830381600087803b1580156109bf57600080fd5b505af11580156109d3573d6000803e3d6000fd5b5050505060006006600083815260200190815260200160002060006101000a81548160ff02191690831515021790555050565b60006012905090565b60006006600083815260200190815260200160002060009054906101000a900460ff169050919050565b6000610adb610a46611369565b848460016000610a54611369565b73ffffffffffffffffffffffffffffffffffffffff1673ffffffffffffffffffffffffffffffffffffffff16815260200190815260200160002060008873ffffffffffffffffffffffffffffffffffffffff1673ffffffffffffffffffffffffffffffffffffffff16815260200190815260200160002054610ad69190612435565b611371565b6001905092915050565b610af6610af0611369565b826117bd565b50565b600960009054906101000a900473ffffffffffffffffffffffffffffffffffffffff1673ffffffffffffffffffffffffffffffffffffffff1663095ea7b330836040518363ffffffff1660e01b8152600401610b56929190612147565b600060405180830381600087803b158015610b7057600080fd5b505af1158015610b84573d6000803e3d6000fd5b5050505050565b6000610b9783836105af565b905043600560008573ffffffffffffffffffffffffffffffffffffffff1673ffffffffffffffffffffffffffffffffffffffff168152602001908152602001600020600084815260200190815260200160002081905550610bf83382611994565b505050565b60008060008373ffffffffffffffffffffffffffffffffffffffff1673ffffffffffffffffffffffffffffffffffffffff168152602001908152602001600020549050919050565b6000610c5883610c53611369565b6112af565b905081811015610c9d576040517f08c379a0000000000000000000000000000000000000000000000000000000008152600401610c94906122cd565b60405180910390fd5b610cb183610ca9611369565b848403611371565b610cbb83836117bd565b505050565b606060048054610ccf906125e4565b80601f0160208091040260200160405190810160405280929190818152602001828054610cfb906125e4565b8015610d485780601f10610d1d57610100808354040283529160200191610d48565b820191906000526020600020905b815481529060010190602001808311610d2b57829003601f168201915b5050505050905090565b60085481565b60008060016000610d67611369565b73ffffffffffffffffffffffffffffffffffffffff1673ffffffffffffffffffffffffffffffffffffffff16815260200190815260200160002060008573ffffffffffffffffffffffffffffffffffffffff1673ffffffffffffffffffffffffffffffffffffffff16815260200190815260200160002054905082811015610e24576040517f08c379a0000000000000000000000000000000000000000000000000000000008152600401610e1b9061234d565b60405180910390fd5b610e38610e2f611369565b85858403611371565b600191505092915050565b6000610e57610e50611369565b848461153c565b6001905092915050565b60066020528060005260406000206000915054906101000a900460ff1681565b600960009054906101000a900473ffffffffffffffffffffffffffffffffffffffff1673ffffffffffffffffffffffffffffffffffffffff16636352211e826040518263ffffffff1660e01b8152600401610edc919061238d565b60206040518083038186803b158015610ef457600080fd5b505afa158015610f08573d6000803e3d6000fd5b505050506040513d601f19601f82011682018060405250810190610f2c9190611d19565b73ffffffffffffffffffffffffffffffffffffffff163373ffffffffffffffffffffffffffffffffffffffff1614610f99576040517f08c379a0000000000000000000000000000000000000000000000000000000008152600401610f909061224d565b60405180910390fd5b6006600082815260200190815260200160002060009054906101000a900460ff1615610ffa576040517f08c379a0000000000000000000000000000000000000000000000000000000008152600401610ff19061228d565b60405180910390fd5b43600560003373ffffffffffffffffffffffffffffffffffffffff1673ffffffffffffffffffffffffffffffffffffffff168152602001908152602001600020600083815260200190815260200160002081905550336007600083815260200190815260200160002060006101000a81548173ffffffffffffffffffffffffffffffffffffffff021916908373ffffffffffffffffffffffffffffffffffffffff16021790555060016006600083815260200190815260200160002060006101000a81548160ff021916908315150217905550600960009054906101000a900473ffffffffffffffffffffffffffffffffffffffff1673ffffffffffffffffffffffffffffffffffffffff166323b872dd3330846040518463ffffffff1660e01b815260040161112c93929190612110565b600060405180830381600087803b15801561114657600080fd5b505af115801561115a573d6000803e3d6000fd5b505050506000600960009054906101000a900473ffffffffffffffffffffffffffffffffffffffff1673ffffffffffffffffffffffffffffffffffffffff1663d43525c3836040518263ffffffff1660e01b81526004016111bb919061238d565b60006040518083038186803b1580156111d357600080fd5b505afa1580156111e7573d6000803e3d6000fd5b505050506040513d6000823e3d601f19601f820116820180604052508101906112109190611e09565b6101000151905080156112ab57600960009054906101000a900473ffffffffffffffffffffffffffffffffffffffff1673ffffffffffffffffffffffffffffffffffffffff1663a32018b9836040518263ffffffff1660e01b8152600401611278919061238d565b600060405180830381600087803b15801561129257600080fd5b505af11580156112a6573d6000803e3d6000fd5b505050505b5050565b6000600160008473ffffffffffffffffffffffffffffffffffffffff1673ffffffffffffffffffffffffffffffffffffffff16815260200190815260200160002060008373ffffffffffffffffffffffffffffffffffffffff1673ffffffffffffffffffffffffffffffffffffffff16815260200190815260200160002054905092915050565b60076020528060005260406000206000915054906101000a900473ffffffffffffffffffffffffffffffffffffffff1681565b600033905090565b600073ffffffffffffffffffffffffffffffffffffffff168373ffffffffffffffffffffffffffffffffffffffff1614156113e1576040517f08c379a00000000000000000000000000000000000000000000000000000000081526004016113d89061232d565b60405180910390fd5b600073ffffffffffffffffffffffffffffffffffffffff168273ffffffffffffffffffffffffffffffffffffffff161415611451576040517f08c379a00000000000000000000000000000000000000000000000000000000081526004016114489061220d565b60405180910390fd5b80600160008573ffffffffffffffffffffffffffffffffffffffff1673ffffffffffffffffffffffffffffffffffffffff16815260200190815260200160002060008473ffffffffffffffffffffffffffffffffffffffff1673ffffffffffffffffffffffffffffffffffffffff168152602001908152602001600020819055508173ffffffffffffffffffffffffffffffffffffffff168373ffffffffffffffffffffffffffffffffffffffff167f8c5be1e5ebec7d5bd14f71427d1e84f3dd0314c0f7b2291e5b200ac8c7c3b9258360405161152f919061238d565b60405180910390a3505050565b600073ffffffffffffffffffffffffffffffffffffffff168373ffffffffffffffffffffffffffffffffffffffff1614156115ac576040517f08c379a00000000000000000000000000000000000000000000000000000000081526004016115a39061230d565b60405180910390fd5b600073ffffffffffffffffffffffffffffffffffffffff168273ffffffffffffffffffffffffffffffffffffffff16141561161c576040517f08c379a0000000000000000000000000000000000000000000000000000000008152600401611613906121ad565b60405180910390fd5b611627838383611af4565b60008060008573ffffffffffffffffffffffffffffffffffffffff1673ffffffffffffffffffffffffffffffffffffffff168152602001908152602001600020549050818110156116ad576040517f08c379a00000000000000000000000000000000000000000000000000000000081526004016116a49061226d565b60405180910390fd5b8181036000808673ffffffffffffffffffffffffffffffffffffffff1673ffffffffffffffffffffffffffffffffffffffff16815260200190815260200160002081905550816000808573ffffffffffffffffffffffffffffffffffffffff1673ffffffffffffffffffffffffffffffffffffffff16815260200190815260200160002060008282546117409190612435565b925050819055508273ffffffffffffffffffffffffffffffffffffffff168473ffffffffffffffffffffffffffffffffffffffff167fddf252ad1be2c89b69c2b068fc378daa952ba7f163c4a11628f55a4df523b3ef846040516117a4919061238d565b60405180910390a36117b7848484611af9565b50505050565b600073ffffffffffffffffffffffffffffffffffffffff168273ffffffffffffffffffffffffffffffffffffffff16141561182d576040517f08c379a0000000000000000000000000000000000000000000000000000000008152600401611824906122ed565b60405180910390fd5b61183982600083611af4565b60008060008473ffffffffffffffffffffffffffffffffffffffff1673ffffffffffffffffffffffffffffffffffffffff168152602001908152602001600020549050818110156118bf576040517f08c379a00000000000000000000000000000000000000000000000000000000081526004016118b6906121ed565b60405180910390fd5b8181036000808573ffffffffffffffffffffffffffffffffffffffff1673ffffffffffffffffffffffffffffffffffffffff1681526020019081526020016000208190555081600260008282546119169190612516565b92505081905550600073ffffffffffffffffffffffffffffffffffffffff168373ffffffffffffffffffffffffffffffffffffffff167fddf252ad1be2c89b69c2b068fc378daa952ba7f163c4a11628f55a4df523b3ef8460405161197b919061238d565b60405180910390a361198f83600084611af9565b505050565b600073ffffffffffffffffffffffffffffffffffffffff168273ffffffffffffffffffffffffffffffffffffffff161415611a04576040517f08c379a00000000000000000000000000000000000000000000000000000000081526004016119fb9061236d565b60405180910390fd5b611a1060008383611af4565b8060026000828254611a229190612435565b92505081905550806000808473ffffffffffffffffffffffffffffffffffffffff1673ffffffffffffffffffffffffffffffffffffffff1681526020019081526020016000206000828254611a779190612435565b925050819055508173ffffffffffffffffffffffffffffffffffffffff16600073ffffffffffffffffffffffffffffffffffffffff167fddf252ad1be2c89b69c2b068fc378daa952ba7f163c4a11628f55a4df523b3ef83604051611adc919061238d565b60405180910390a3611af060008383611af9565b5050565b505050565b505050565b6000611b11611b0c846123e8565b6123c3565b905082815260208101848484011115611b2957600080fd5b611b348482856125b1565b509392505050565b600081359050611b4b81612af7565b92915050565b600081519050611b6081612af7565b92915050565b600081519050611b7581612b0e565b92915050565b600081519050611b8a81612b25565b92915050565b600082601f830112611ba157600080fd5b8151611bb1848260208601611afe565b91505092915050565b60006101208284031215611bcd57600080fd5b611bd86101206123c3565b90506000611be884828501611cdb565b600083015250602082015167ffffffffffffffff811115611c0857600080fd5b611c1484828501611b90565b6020830152506040611c2884828501611b66565b6040830152506060611c3c84828501611b66565b6060830152506080611c5084828501611cdb565b60808301525060a0611c6484828501611cdb565b60a08301525060c082015167ffffffffffffffff811115611c8457600080fd5b611c9084828501611b90565b60c08301525060e0611ca484828501611cdb565b60e083015250610100611cb984828501611b7b565b6101008301525092915050565b600081359050611cd581612b3c565b92915050565b600081519050611cea81612b3c565b92915050565b600060208284031215611d0257600080fd5b6000611d1084828501611b3c565b91505092915050565b600060208284031215611d2b57600080fd5b6000611d3984828501611b51565b91505092915050565b60008060408385031215611d5557600080fd5b6000611d6385828601611b3c565b9250506020611d7485828601611b3c565b9150509250929050565b600080600060608486031215611d9357600080fd5b6000611da186828701611b3c565b9350506020611db286828701611b3c565b9250506040611dc386828701611cc6565b9150509250925092565b60008060408385031215611de057600080fd5b6000611dee85828601611b3c565b9250506020611dff85828601611cc6565b9150509250929050565b600060208284031215611e1b57600080fd5b600082015167ffffffffffffffff811115611e3557600080fd5b611e4184828501611bba565b91505092915050565b600060208284031215611e5c57600080fd5b6000611e6a84828501611cc6565b91505092915050565b611e7c8161254a565b82525050565b611e8b8161256e565b82525050565b6000611e9c82612419565b611ea68185612424565b9350611eb68185602086016125b1565b611ebf81612703565b840191505092915050565b6000611ed7602383612424565b9150611ee282612714565b604082019050919050565b6000611efa600f83612424565b9150611f0582612763565b602082019050919050565b6000611f1d602283612424565b9150611f288261278c565b604082019050919050565b6000611f40602283612424565b9150611f4b826127db565b604082019050919050565b6000611f63601583612424565b9150611f6e8261282a565b602082019050919050565b6000611f86601483612424565b9150611f9182612853565b602082019050919050565b6000611fa9602683612424565b9150611fb48261287c565b604082019050919050565b6000611fcc601883612424565b9150611fd7826128cb565b602082019050919050565b6000611fef602883612424565b9150611ffa826128f4565b604082019050919050565b6000612012602483612424565b915061201d82612943565b604082019050919050565b6000612035602183612424565b915061204082612992565b604082019050919050565b6000612058602583612424565b9150612063826129e1565b604082019050919050565b600061207b602483612424565b915061208682612a30565b604082019050919050565b600061209e602583612424565b91506120a982612a7f565b604082019050919050565b60006120c1601f83612424565b91506120cc82612ace565b602082019050919050565b6120e08161259a565b82525050565b6120ef816125a4565b82525050565b600060208201905061210a6000830184611e73565b92915050565b60006060820190506121256000830186611e73565b6121326020830185611e73565b61213f60408301846120d7565b949350505050565b600060408201905061215c6000830185611e73565b61216960208301846120d7565b9392505050565b60006020820190506121856000830184611e82565b92915050565b600060208201905081810360008301526121a58184611e91565b905092915050565b600060208201905081810360008301526121c681611eca565b9050919050565b600060208201905081810360008301526121e681611eed565b9050919050565b6000602082019050818103600083015261220681611f10565b9050919050565b6000602082019050818103600083015261222681611f33565b9050919050565b6000602082019050818103600083015261224681611f56565b9050919050565b6000602082019050818103600083015261226681611f79565b9050919050565b6000602082019050818103600083015261228681611f9c565b9050919050565b600060208201905081810360008301526122a681611fbf565b9050919050565b600060208201905081810360008301526122c681611fe2565b9050919050565b600060208201905081810360008301526122e681612005565b9050919050565b6000602082019050818103600083015261230681612028565b9050919050565b600060208201905081810360008301526123268161204b565b9050919050565b600060208201905081810360008301526123468161206e565b9050919050565b6000602082019050818103600083015261236681612091565b9050919050565b60006020820190508181036000830152612386816120b4565b9050919050565b60006020820190506123a260008301846120d7565b92915050565b60006020820190506123bd60008301846120e6565b92915050565b60006123cd6123de565b90506123d98282612616565b919050565b6000604051905090565b600067ffffffffffffffff821115612403576124026126d4565b5b61240c82612703565b9050602081019050919050565b600081519050919050565b600082825260208201905092915050565b60006124408261259a565b915061244b8361259a565b9250827fffffffffffffffffffffffffffffffffffffffffffffffffffffffffffffffff038211156124805761247f612647565b5b828201905092915050565b60006124968261259a565b91506124a18361259a565b9250826124b1576124b0612676565b5b828204905092915050565b60006124c78261259a565b91506124d28361259a565b9250817fffffffffffffffffffffffffffffffffffffffffffffffffffffffffffffffff048311821515161561250b5761250a612647565b5b828202905092915050565b60006125218261259a565b915061252c8361259a565b92508282101561253f5761253e612647565b5b828203905092915050565b60006125558261257a565b9050919050565b60006125678261257a565b9050919050565b60008115159050919050565b600073ffffffffffffffffffffffffffffffffffffffff82169050919050565b6000819050919050565b600060ff82169050919050565b60005b838110156125cf5780820151818401526020810190506125b4565b838111156125de576000848401525b50505050565b600060028204905060018216806125fc57607f821691505b602082108114156126105761260f6126a5565b5b50919050565b61261f82612703565b810181811067ffffffffffffffff8211171561263e5761263d6126d4565b5b80604052505050565b7f4e487b7100000000000000000000000000000000000000000000000000000000600052601160045260246000fd5b7f4e487b7100000000000000000000000000000000000000000000000000000000600052601260045260246000fd5b7f4e487b7100000000000000000000000000000000000000000000000000000000600052602260045260246000fd5b7f4e487b7100000000000000000000000000000000000000000000000000000000600052604160045260246000fd5b6000601f19601f8301169050919050565b7f45524332303a207472616e7366657220746f20746865207a65726f206164647260008201527f6573730000000000000000000000000000000000000000000000000000000000602082015250565b7f4f6e6c7920746865205374616b65720000000000000000000000000000000000600082015250565b7f45524332303a206275726e20616d6f756e7420657863656564732062616c616e60008201527f6365000000000000000000000000000000000000000000000000000000000000602082015250565b7f45524332303a20617070726f766520746f20746865207a65726f20616464726560008201527f7373000000000000000000000000000000000000000000000000000000000000602082015250565b7f4e6f20746f6b656e7320746f2077697468646172770000000000000000000000600082015250565b7f53656e646572206d757374206265206f776e6572000000000000000000000000600082015250565b7f45524332303a207472616e7366657220616d6f756e742065786365656473206260008201527f616c616e63650000000000000000000000000000000000000000000000000000602082015250565b7f53656e64657220616c7265616479206465706f73697465640000000000000000600082015250565b7f45524332303a207472616e7366657220616d6f756e742065786365656473206160008201527f6c6c6f77616e6365000000000000000000000000000000000000000000000000602082015250565b7f45524332303a206275726e20616d6f756e74206578636565647320616c6c6f7760008201527f616e636500000000000000000000000000000000000000000000000000000000602082015250565b7f45524332303a206275726e2066726f6d20746865207a65726f2061646472657360008201527f7300000000000000000000000000000000000000000000000000000000000000602082015250565b7f45524332303a207472616e736665722066726f6d20746865207a65726f20616460008201527f6472657373000000000000000000000000000000000000000000000000000000602082015250565b7f45524332303a20617070726f76652066726f6d20746865207a65726f2061646460008201527f7265737300000000000000000000000000000000000000000000000000000000602082015250565b7f45524332303a2064656372656173656420616c6c6f77616e63652062656c6f7760008201527f207a65726f000000000000000000000000000000000000000000000000000000602082015250565b7f45524332303a206d696e7420746f20746865207a65726f206164647265737300600082015250565b612b008161254a565b8114612b0b57600080fd5b50565b612b178161255c565b8114612b2257600080fd5b50565b612b2e8161256e565b8114612b3957600080fd5b50565b612b458161259a565b8114612b5057600080fd5b5056fea26469706673582212202710d79d2cc44f5571e29a73b90dd6c90e895df68e11f54af7da708e413e5d4364736f6c63430008030033",
  "immutableReferences": {},
  "source": "// SPDX-License-Identifier: MIT\npragma solidity ^0.8.0;\n\nimport '@openzeppelin/contracts/token/ERC20/extensions/ERC20Burnable.sol';\nimport \"@openzeppelin/contracts/token/ERC721/ERC721.sol\";\nimport \"./Hashima.sol\";\n\ncontract Hashi is ERC20Burnable{\n    mapping(address => mapping(uint256=>uint256)) public checkpoints;\n    mapping(uint256 => bool) public has_deposited;\n    mapping(uint256 => address) public staking_accounts;\n\n\n    uint public REWARD_PER_BLOCK = 1;\n\n    Hashima private hashimaContract;\n\n    constructor(Hashima _contrato) ERC20(\"Hashi\", \"HASHI\"){\n        hashimaContract = Hashima(_contrato);\n\n    }\n\n    function aprovar(uint256 tokenId)external{\n        hashimaContract.approve(address(this), tokenId);\n    }\n\n    function deposit(uint256 tokenId) external{\n        require (msg.sender == hashimaContract.ownerOf(tokenId), 'Sender must be owner');\n        require (!has_deposited[tokenId], 'Sender already deposited');\n        \n        //La altura del bloque de partida\n        checkpoints[msg.sender][tokenId] = block.number;\n        staking_accounts[tokenId]=msg.sender;\n        has_deposited[tokenId]=true;\n        \n        hashimaContract.transferFrom(msg.sender, address(this), tokenId);\n        bool forSale=hashimaContract.getHashima(tokenId).forSale;\n        \n        if(forSale){\n            hashimaContract.toggleForSale(tokenId);\n        }\n        \n   }\n\n    function withdraw(uint256 tokenId) external{\n        require(has_deposited[tokenId], 'No tokens to withdarw');\n        require(staking_accounts[tokenId]==msg.sender,'Only the Staker');\n        collect(msg.sender,tokenId);\n        hashimaContract.transferFrom(address(this), msg.sender, tokenId);\n        \n        has_deposited[tokenId]=false;\n    }\n\n    function collect(address beneficiary,uint256 tokenId) public{\n        uint256 reward = calculateReward(beneficiary,tokenId);\n        checkpoints[beneficiary][tokenId] = block.number;      \n        _mint(msg.sender, reward);\n    }\n\n    function hashimaOnStaking(uint256 tokenId)public view returns(bool){\n        return has_deposited[tokenId];\n    }\n\n    function calculateReward(address beneficiary,uint256 tokenId) public view returns(uint256){\n        if(!has_deposited[tokenId])\n        {\n            return 0;\n        }\n        uint256 _stars=hashimaContract.getHashima(tokenId).stars;\n        uint256 pesoEstrella=_stars*_stars*10000/64-_stars;\n        uint256 checkpoint = checkpoints[beneficiary][tokenId];\n        return pesoEstrella*(block.number-checkpoint);\n    }\n}",
  "sourcePath": "/Users/aarontolentino/Desktop/Contratos_1/hashima/contracts/Hashi.sol",
  "compiler": {
    "name": "solc",
    "version": "0.8.3+commit.8d00100c.Emscripten.clang"
  },
  "schemaVersion": "3.4.1",
  "updatedAt": "2022-06-17T18:56:46.008Z",
  "networkType": "ethereum",
  "devdoc": {
    "kind": "dev",
    "methods": {
      "allowance(address,address)": {
        "details": "See {IERC20-allowance}."
      },
      "approve(address,uint256)": {
        "details": "See {IERC20-approve}. Requirements: - `spender` cannot be the zero address."
      },
      "balanceOf(address)": {
        "details": "See {IERC20-balanceOf}."
      },
      "burn(uint256)": {
        "details": "Destroys `amount` tokens from the caller. See {ERC20-_burn}."
      },
      "burnFrom(address,uint256)": {
        "details": "Destroys `amount` tokens from `account`, deducting from the caller's allowance. See {ERC20-_burn} and {ERC20-allowance}. Requirements: - the caller must have allowance for ``accounts``'s tokens of at least `amount`."
      },
      "decimals()": {
        "details": "Returns the number of decimals used to get its user representation. For example, if `decimals` equals `2`, a balance of `505` tokens should be displayed to a user as `5.05` (`505 / 10 ** 2`). Tokens usually opt for a value of 18, imitating the relationship between Ether and Wei. This is the value {ERC20} uses, unless this function is overridden; NOTE: This information is only used for _display_ purposes: it in no way affects any of the arithmetic of the contract, including {IERC20-balanceOf} and {IERC20-transfer}."
      },
      "decreaseAllowance(address,uint256)": {
        "details": "Atomically decreases the allowance granted to `spender` by the caller. This is an alternative to {approve} that can be used as a mitigation for problems described in {IERC20-approve}. Emits an {Approval} event indicating the updated allowance. Requirements: - `spender` cannot be the zero address. - `spender` must have allowance for the caller of at least `subtractedValue`."
      },
      "increaseAllowance(address,uint256)": {
        "details": "Atomically increases the allowance granted to `spender` by the caller. This is an alternative to {approve} that can be used as a mitigation for problems described in {IERC20-approve}. Emits an {Approval} event indicating the updated allowance. Requirements: - `spender` cannot be the zero address."
      },
      "name()": {
        "details": "Returns the name of the token."
      },
      "symbol()": {
        "details": "Returns the symbol of the token, usually a shorter version of the name."
      },
      "totalSupply()": {
        "details": "See {IERC20-totalSupply}."
      },
      "transfer(address,uint256)": {
        "details": "See {IERC20-transfer}. Requirements: - `recipient` cannot be the zero address. - the caller must have a balance of at least `amount`."
      },
      "transferFrom(address,address,uint256)": {
        "details": "See {IERC20-transferFrom}. Emits an {Approval} event indicating the updated allowance. This is not required by the EIP. See the note at the beginning of {ERC20}. Requirements: - `sender` and `recipient` cannot be the zero address. - `sender` must have a balance of at least `amount`. - the caller must have allowance for ``sender``'s tokens of at least `amount`."
      }
    },
    "version": 1
  },
  "userdoc": {
    "kind": "user",
    "methods": {},
    "version": 1
  }
}