{
  "contractName": "NoHashima",
  "abi": [
    {
      "inputs": [],
      "stateMutability": "nonpayable",
      "type": "constructor"
    },
    {
      "anonymous": false,
      "inputs": [
        {
          "indexed": true,
          "internalType": "address",
          "name": "owner",
          "type": "address"
        },
        {
          "indexed": true,
          "internalType": "address",
          "name": "approved",
          "type": "address"
        },
        {
          "indexed": true,
          "internalType": "uint256",
          "name": "tokenId",
          "type": "uint256"
        }
      ],
      "name": "Approval",
      "type": "event"
    },
    {
      "anonymous": false,
      "inputs": [
        {
          "indexed": true,
          "internalType": "address",
          "name": "owner",
          "type": "address"
        },
        {
          "indexed": true,
          "internalType": "address",
          "name": "operator",
          "type": "address"
        },
        {
          "indexed": false,
          "internalType": "bool",
          "name": "approved",
          "type": "bool"
        }
      ],
      "name": "ApprovalForAll",
      "type": "event"
    },
    {
      "anonymous": false,
      "inputs": [
        {
          "indexed": false,
          "internalType": "uint256",
          "name": "_blocknumber",
          "type": "uint256"
        }
      ],
      "name": "GameStart",
      "type": "event"
    },
    {
      "anonymous": false,
      "inputs": [
        {
          "indexed": false,
          "internalType": "bool",
          "name": "respuesta",
          "type": "bool"
        },
        {
          "indexed": false,
          "internalType": "bytes32",
          "name": "hashResultado",
          "type": "bytes32"
        },
        {
          "indexed": false,
          "internalType": "uint256",
          "name": "id",
          "type": "uint256"
        }
      ],
      "name": "Minted",
      "type": "event"
    },
    {
      "anonymous": false,
      "inputs": [
        {
          "indexed": true,
          "internalType": "address",
          "name": "from",
          "type": "address"
        },
        {
          "indexed": true,
          "internalType": "address",
          "name": "to",
          "type": "address"
        },
        {
          "indexed": true,
          "internalType": "uint256",
          "name": "tokenId",
          "type": "uint256"
        }
      ],
      "name": "Transfer",
      "type": "event"
    },
    {
      "inputs": [],
      "name": "Init",
      "outputs": [
        {
          "internalType": "uint256",
          "name": "",
          "type": "uint256"
        }
      ],
      "stateMutability": "nonpayable",
      "type": "function"
    },
    {
      "inputs": [
        {
          "internalType": "uint256",
          "name": "_stars",
          "type": "uint256"
        },
        {
          "internalType": "string",
          "name": "_data",
          "type": "string"
        },
        {
          "internalType": "string",
          "name": "_nonce",
          "type": "string"
        },
        {
          "internalType": "string",
          "name": "_uri",
          "type": "string"
        },
        {
          "internalType": "uint256",
          "name": "_price",
          "type": "uint256"
        },
        {
          "internalType": "bool",
          "name": "_forSale",
          "type": "bool"
        }
      ],
      "name": "Mint",
      "outputs": [],
      "stateMutability": "nonpayable",
      "type": "function"
    },
    {
      "inputs": [
        {
          "internalType": "string",
          "name": "",
          "type": "string"
        }
      ],
      "name": "_names",
      "outputs": [
        {
          "internalType": "bool",
          "name": "",
          "type": "bool"
        }
      ],
      "stateMutability": "view",
      "type": "function"
    },
    {
      "inputs": [
        {
          "internalType": "address",
          "name": "to",
          "type": "address"
        },
        {
          "internalType": "uint256",
          "name": "tokenId",
          "type": "uint256"
        }
      ],
      "name": "approve",
      "outputs": [],
      "stateMutability": "nonpayable",
      "type": "function"
    },
    {
      "inputs": [
        {
          "internalType": "address",
          "name": "owner",
          "type": "address"
        }
      ],
      "name": "balanceOf",
      "outputs": [
        {
          "internalType": "uint256",
          "name": "",
          "type": "uint256"
        }
      ],
      "stateMutability": "view",
      "type": "function"
    },
    {
      "inputs": [
        {
          "internalType": "uint256",
          "name": "_tokenId",
          "type": "uint256"
        }
      ],
      "name": "buyToken",
      "outputs": [
        {
          "internalType": "bool",
          "name": "",
          "type": "bool"
        }
      ],
      "stateMutability": "payable",
      "type": "function"
    },
    {
      "inputs": [
        {
          "internalType": "uint256",
          "name": "_tokenId",
          "type": "uint256"
        },
        {
          "internalType": "uint256",
          "name": "_newPrice",
          "type": "uint256"
        }
      ],
      "name": "changePrice",
      "outputs": [],
      "stateMutability": "nonpayable",
      "type": "function"
    },
    {
      "inputs": [],
      "name": "checkTolerance",
      "outputs": [
        {
          "internalType": "uint256",
          "name": "",
          "type": "uint256"
        }
      ],
      "stateMutability": "view",
      "type": "function"
    },
    {
      "inputs": [
        {
          "internalType": "uint256",
          "name": "tokenId",
          "type": "uint256"
        }
      ],
      "name": "getApproved",
      "outputs": [
        {
          "internalType": "address",
          "name": "",
          "type": "address"
        }
      ],
      "stateMutability": "view",
      "type": "function"
    },
    {
      "inputs": [],
      "name": "getBlockTolerance",
      "outputs": [
        {
          "internalType": "uint256",
          "name": "",
          "type": "uint256"
        }
      ],
      "stateMutability": "view",
      "type": "function"
    },
    {
      "inputs": [
        {
          "internalType": "uint256",
          "name": "_index",
          "type": "uint256"
        }
      ],
      "name": "getHashima",
      "outputs": [
        {
          "components": [
            {
              "internalType": "uint256",
              "name": "tokenId",
              "type": "uint256"
            },
            {
              "internalType": "string",
              "name": "data",
              "type": "string"
            },
            {
              "internalType": "address payable",
              "name": "currentOwner",
              "type": "address"
            },
            {
              "internalType": "address payable",
              "name": "previousOwner",
              "type": "address"
            },
            {
              "internalType": "uint256",
              "name": "stars",
              "type": "uint256"
            },
            {
              "internalType": "uint256",
              "name": "blockTolerance",
              "type": "uint256"
            },
            {
              "internalType": "string",
              "name": "nonce",
              "type": "string"
            },
            {
              "internalType": "uint256",
              "name": "price",
              "type": "uint256"
            },
            {
              "internalType": "bool",
              "name": "forSale",
              "type": "bool"
            }
          ],
          "internalType": "struct IHashima.Hashi",
          "name": "",
          "type": "tuple"
        }
      ],
      "stateMutability": "view",
      "type": "function"
    },
    {
      "inputs": [
        {
          "internalType": "uint256",
          "name": "_index",
          "type": "uint256"
        }
      ],
      "name": "getProofOfWorkData",
      "outputs": [
        {
          "internalType": "string",
          "name": "",
          "type": "string"
        },
        {
          "internalType": "uint256",
          "name": "",
          "type": "uint256"
        },
        {
          "internalType": "string",
          "name": "",
          "type": "string"
        },
        {
          "internalType": "uint256",
          "name": "",
          "type": "uint256"
        }
      ],
      "stateMutability": "view",
      "type": "function"
    },
    {
      "inputs": [
        {
          "internalType": "uint256",
          "name": "_index",
          "type": "uint256"
        }
      ],
      "name": "getStars",
      "outputs": [
        {
          "internalType": "uint256",
          "name": "",
          "type": "uint256"
        }
      ],
      "stateMutability": "view",
      "type": "function"
    },
    {
      "inputs": [],
      "name": "getTotal",
      "outputs": [
        {
          "internalType": "uint256",
          "name": "",
          "type": "uint256"
        }
      ],
      "stateMutability": "view",
      "type": "function"
    },
    {
      "inputs": [
        {
          "internalType": "address",
          "name": "owner",
          "type": "address"
        },
        {
          "internalType": "address",
          "name": "operator",
          "type": "address"
        }
      ],
      "name": "isApprovedForAll",
      "outputs": [
        {
          "internalType": "bool",
          "name": "",
          "type": "bool"
        }
      ],
      "stateMutability": "view",
      "type": "function"
    },
    {
      "inputs": [],
      "name": "name",
      "outputs": [
        {
          "internalType": "string",
          "name": "",
          "type": "string"
        }
      ],
      "stateMutability": "view",
      "type": "function"
    },
    {
      "inputs": [
        {
          "internalType": "uint256",
          "name": "tokenId",
          "type": "uint256"
        }
      ],
      "name": "ownerOf",
      "outputs": [
        {
          "internalType": "address",
          "name": "",
          "type": "address"
        }
      ],
      "stateMutability": "view",
      "type": "function"
    },
    {
      "inputs": [
        {
          "internalType": "address",
          "name": "from",
          "type": "address"
        },
        {
          "internalType": "address",
          "name": "to",
          "type": "address"
        },
        {
          "internalType": "uint256",
          "name": "tokenId",
          "type": "uint256"
        }
      ],
      "name": "safeTransferFrom",
      "outputs": [],
      "stateMutability": "nonpayable",
      "type": "function"
    },
    {
      "inputs": [
        {
          "internalType": "address",
          "name": "from",
          "type": "address"
        },
        {
          "internalType": "address",
          "name": "to",
          "type": "address"
        },
        {
          "internalType": "uint256",
          "name": "tokenId",
          "type": "uint256"
        },
        {
          "internalType": "bytes",
          "name": "_data",
          "type": "bytes"
        }
      ],
      "name": "safeTransferFrom",
      "outputs": [],
      "stateMutability": "nonpayable",
      "type": "function"
    },
    {
      "inputs": [
        {
          "internalType": "address",
          "name": "operator",
          "type": "address"
        },
        {
          "internalType": "bool",
          "name": "approved",
          "type": "bool"
        }
      ],
      "name": "setApprovalForAll",
      "outputs": [],
      "stateMutability": "nonpayable",
      "type": "function"
    },
    {
      "inputs": [
        {
          "internalType": "bytes4",
          "name": "interfaceId",
          "type": "bytes4"
        }
      ],
      "name": "supportsInterface",
      "outputs": [
        {
          "internalType": "bool",
          "name": "",
          "type": "bool"
        }
      ],
      "stateMutability": "view",
      "type": "function"
    },
    {
      "inputs": [],
      "name": "symbol",
      "outputs": [
        {
          "internalType": "string",
          "name": "",
          "type": "string"
        }
      ],
      "stateMutability": "view",
      "type": "function"
    },
    {
      "inputs": [
        {
          "internalType": "uint256",
          "name": "_tokenId",
          "type": "uint256"
        }
      ],
      "name": "toggleForSale",
      "outputs": [],
      "stateMutability": "nonpayable",
      "type": "function"
    },
    {
      "inputs": [
        {
          "internalType": "uint256",
          "name": "tokenId",
          "type": "uint256"
        }
      ],
      "name": "tokenURI",
      "outputs": [
        {
          "internalType": "string",
          "name": "",
          "type": "string"
        }
      ],
      "stateMutability": "view",
      "type": "function"
    },
    {
      "inputs": [
        {
          "internalType": "address",
          "name": "from",
          "type": "address"
        },
        {
          "internalType": "address",
          "name": "to",
          "type": "address"
        },
        {
          "internalType": "uint256",
          "name": "tokenId",
          "type": "uint256"
        }
      ],
      "name": "transferFrom",
      "outputs": [],
      "stateMutability": "nonpayable",
      "type": "function"
    }
  ],
  "bytecode": "0x608060405260c86009553480156200001657600080fd5b506040518060400160405280600a81526020017f4e6f7448617368696d61000000000000000000000000000000000000000000008152506040518060400160405280600a81526020017f4e4f5448415348494d410000000000000000000000000000000000000000000081525081600090805190602001906200009b929190620000c5565b508060019080519060200190620000b4929190620000c5565b5050506001600781905550620001da565b828054620000d39062000175565b90600052602060002090601f016020900481019282620000f7576000855562000143565b82601f106200011257805160ff191683800117855562000143565b8280016001018555821562000143579182015b828111156200014257825182559160200191906001019062000125565b5b50905062000152919062000156565b5090565b5b808211156200017157600081600090555060010162000157565b5090565b600060028204905060018216806200018e57607f821691505b60208210811415620001a557620001a4620001ab565b5b50919050565b7f4e487b7100000000000000000000000000000000000000000000000000000000600052602260045260246000fd5b61539c80620001ea6000396000f3fe6080604052600436106101665760003560e01c806370a08231116100d1578063adf04f201161008a578063c87b56dd11610064578063c87b56dd14610556578063d1760fac14610593578063d43525c3146105d0578063e985e9c51461060d57610166565b8063adf04f20146104c7578063b3de019c14610504578063b88d4fde1461052d57610166565b806370a08231146103b9578063775a25e3146103f657806395d89b41146104215780639f7691361461044c578063a22cb46514610475578063a32018b91461049e57610166565b80632d296bf1116101235780632d296bf11461028d57806342842e0e146102bd57806350395073146102e657806357a86f7d146103115780635c95f4fa1461033c5780636352211e1461037c57610166565b806301ffc9a71461016b57806306fdde03146101a8578063081812fc146101d3578063095ea7b3146102105780630972543b1461023957806323b872dd14610264575b600080fd5b34801561017757600080fd5b50610192600480360381019061018d9190613d00565b61064a565b60405161019f9190614552565b60405180910390f35b3480156101b457600080fd5b506101bd61072c565b6040516101ca91906145a4565b60405180910390f35b3480156101df57600080fd5b506101fa60048036038101906101f59190613d93565b6107be565b60405161020791906144eb565b60405180910390f35b34801561021c57600080fd5b5061023760048036038101906102329190613c9b565b610843565b005b34801561024557600080fd5b5061024e61095b565b60405161025b919061491b565b60405180910390f35b34801561027057600080fd5b5061028b60048036038101906102869190613b95565b6109a2565b005b6102a760048036038101906102a29190613d93565b610a02565b6040516102b49190614552565b60405180910390f35b3480156102c957600080fd5b506102e460048036038101906102df9190613b95565b610f95565b005b3480156102f257600080fd5b506102fb610fb5565b604051610308919061491b565b60405180910390f35b34801561031d57600080fd5b50610326610fbf565b604051610333919061491b565b60405180910390f35b34801561034857600080fd5b50610363600480360381019061035e9190613d93565b611047565b60405161037394939291906145c6565b60405180910390f35b34801561038857600080fd5b506103a3600480360381019061039e9190613d93565b6111e1565b6040516103b091906144eb565b60405180910390f35b3480156103c557600080fd5b506103e060048036038101906103db9190613b30565b611293565b6040516103ed919061491b565b60405180910390f35b34801561040257600080fd5b5061040b61134b565b604051610418919061491b565b60405180910390f35b34801561042d57600080fd5b5061043661135c565b60405161044391906145a4565b60405180910390f35b34801561045857600080fd5b50610473600480360381019061046e9190613dbc565b6113ee565b005b34801561048157600080fd5b5061049c60048036038101906104979190613c5f565b61186a565b005b3480156104aa57600080fd5b506104c560048036038101906104c09190613d93565b6119eb565b005b3480156104d357600080fd5b506104ee60048036038101906104e99190613d93565b611e4a565b6040516104fb919061491b565b60405180910390f35b34801561051057600080fd5b5061052b60048036038101906105269190613e8d565b611e6a565b005b34801561053957600080fd5b50610554600480360381019061054f9190613be4565b61229f565b005b34801561056257600080fd5b5061057d60048036038101906105789190613d93565b612301565b60405161058a91906145a4565b60405180910390f35b34801561059f57600080fd5b506105ba60048036038101906105b59190613d52565b612453565b6040516105c79190614552565b60405180910390f35b3480156105dc57600080fd5b506105f760048036038101906105f29190613d93565b612489565b60405161060491906148f9565b60405180910390f35b34801561061957600080fd5b50610634600480360381019061062f9190613b59565b6126ca565b6040516106419190614552565b60405180910390f35b60007f80ac58cd000000000000000000000000000000000000000000000000000000007bffffffffffffffffffffffffffffffffffffffffffffffffffffffff1916827bffffffffffffffffffffffffffffffffffffffffffffffffffffffff1916148061071557507f5b5e139f000000000000000000000000000000000000000000000000000000007bffffffffffffffffffffffffffffffffffffffffffffffffffffffff1916827bffffffffffffffffffffffffffffffffffffffffffffffffffffffff1916145b8061072557506107248261275e565b5b9050919050565b60606000805461073b90614ba9565b80601f016020809104026020016040519081016040528092919081815260200182805461076790614ba9565b80156107b45780601f10610789576101008083540402835291602001916107b4565b820191906000526020600020905b81548152906001019060200180831161079757829003601f168201915b5050505050905090565b60006107c9826127c8565b610808576040517f08c379a00000000000000000000000000000000000000000000000000000000081526004016107ff906147d9565b60405180910390fd5b6004600083815260200190815260200160002060009054906101000a900473ffffffffffffffffffffffffffffffffffffffff169050919050565b600061084e826111e1565b90508073ffffffffffffffffffffffffffffffffffffffff168373ffffffffffffffffffffffffffffffffffffffff1614156108bf576040517f08c379a00000000000000000000000000000000000000000000000000000000081526004016108b690614879565b60405180910390fd5b8073ffffffffffffffffffffffffffffffffffffffff166108de612834565b73ffffffffffffffffffffffffffffffffffffffff16148061090d575061090c81610907612834565b6126ca565b5b61094c576040517f08c379a0000000000000000000000000000000000000000000000000000000008152600401610943906146f9565b60405180910390fd5b610956838361283c565b505050565b6000600a60003373ffffffffffffffffffffffffffffffffffffffff1673ffffffffffffffffffffffffffffffffffffffff16815260200190815260200160002054905090565b6109b36109ad612834565b826128f5565b6109f2576040517f08c379a00000000000000000000000000000000000000000000000000000000081526004016109e990614899565b60405180910390fd5b6109fd8383836129d3565b505050565b60008073ffffffffffffffffffffffffffffffffffffffff163373ffffffffffffffffffffffffffffffffffffffff161415610a3d57600080fd5b610a46826127c8565b610a4f57600080fd5b6000610a5a836111e1565b9050600073ffffffffffffffffffffffffffffffffffffffff168173ffffffffffffffffffffffffffffffffffffffff161415610a9657600080fd5b3373ffffffffffffffffffffffffffffffffffffffff168173ffffffffffffffffffffffffffffffffffffffff161415610acf57600080fd5b6000600c60008581526020019081526020016000206040518061012001604052908160008201548152602001600182018054610b0a90614ba9565b80601f0160208091040260200160405190810160405280929190818152602001828054610b3690614ba9565b8015610b835780601f10610b5857610100808354040283529160200191610b83565b820191906000526020600020905b815481529060010190602001808311610b6657829003601f168201915b505050505081526020016002820160009054906101000a900473ffffffffffffffffffffffffffffffffffffffff1673ffffffffffffffffffffffffffffffffffffffff1673ffffffffffffffffffffffffffffffffffffffff1681526020016003820160009054906101000a900473ffffffffffffffffffffffffffffffffffffffff1673ffffffffffffffffffffffffffffffffffffffff1673ffffffffffffffffffffffffffffffffffffffff1681526020016004820154815260200160058201548152602001600682018054610c5c90614ba9565b80601f0160208091040260200160405190810160405280929190818152602001828054610c8890614ba9565b8015610cd55780601f10610caa57610100808354040283529160200191610cd5565b820191906000526020600020905b815481529060010190602001808311610cb857829003601f168201915b50505050508152602001600782015481526020016008820160009054906101000a900460ff16151515158152505090508060e00151341015610d4c576040517f08c379a0000000000000000000000000000000000000000000000000000000008152600401610d43906147f9565b60405180910390fd5b806101000151610d5b57600080fd5b610d668233866129d3565b60008160400151905060008173ffffffffffffffffffffffffffffffffffffffff1634604051610d95906144d6565b60006040518083038185875af1925050503d8060008114610dd2576040519150601f19603f3d011682016040523d82523d6000602084013e610dd7565b606091505b505090508260400151836060019073ffffffffffffffffffffffffffffffffffffffff16908173ffffffffffffffffffffffffffffffffffffffff168152505033836040019073ffffffffffffffffffffffffffffffffffffffff16908173ffffffffffffffffffffffffffffffffffffffff168152505060008361010001901515908115158152505082600c6000888152602001908152602001600020600082015181600001556020820151816001019080519060200190610e9b9291906138c5565b5060408201518160020160006101000a81548173ffffffffffffffffffffffffffffffffffffffff021916908373ffffffffffffffffffffffffffffffffffffffff16021790555060608201518160030160006101000a81548173ffffffffffffffffffffffffffffffffffffffff021916908373ffffffffffffffffffffffffffffffffffffffff1602179055506080820151816004015560a0820151816005015560c0820151816006019080519060200190610f5a9291906138c5565b5060e082015181600701556101008201518160080160006101000a81548160ff02191690831515021790555090505080945050505050919050565b610fb08383836040518060200160405280600081525061229f565b505050565b6000600954905090565b60008043905080600a60003373ffffffffffffffffffffffffffffffffffffffff1673ffffffffffffffffffffffffffffffffffffffff168152602001908152602001600020819055507fb5e8a4470f7bcac7f2c0f3e23471bd7016a9f6f049884cd27dfa8960f361287b81604051611038919061491b565b60405180910390a18091505090565b606060006060600080600c6000878152602001908152602001600020600101805461107190614ba9565b80601f016020809104026020016040519081016040528092919081815260200182805461109d90614ba9565b80156110ea5780601f106110bf576101008083540402835291602001916110ea565b820191906000526020600020905b8154815290600101906020018083116110cd57829003601f168201915b505050505090506000600c60008881526020019081526020016000206004015490506000600c60008981526020019081526020016000206005015490506000600c60008a8152602001908152602001600020600601805461114a90614ba9565b80601f016020809104026020016040519081016040528092919081815260200182805461117690614ba9565b80156111c35780601f10611198576101008083540402835291602001916111c3565b820191906000526020600020905b8154815290600101906020018083116111a657829003601f168201915b50505050509050838382849750975097509750505050509193509193565b6000806002600084815260200190815260200160002060009054906101000a900473ffffffffffffffffffffffffffffffffffffffff169050600073ffffffffffffffffffffffffffffffffffffffff168173ffffffffffffffffffffffffffffffffffffffff16141561128a576040517f08c379a000000000000000000000000000000000000000000000000000000000815260040161128190614739565b60405180910390fd5b80915050919050565b60008073ffffffffffffffffffffffffffffffffffffffff168273ffffffffffffffffffffffffffffffffffffffff161415611304576040517f08c379a00000000000000000000000000000000000000000000000000000000081526004016112fb90614719565b60405180910390fd5b600360008373ffffffffffffffffffffffffffffffffffffffff1673ffffffffffffffffffffffffffffffffffffffff168152602001908152602001600020549050919050565b60006113576008612c2f565b905090565b60606001805461136b90614ba9565b80601f016020809104026020016040519081016040528092919081815260200182805461139790614ba9565b80156113e45780601f106113b9576101008083540402835291602001916113e4565b820191906000526020600020905b8154815290600101906020018083116113c757829003601f168201915b5050505050905090565b60026007541415611434576040517f08c379a000000000000000000000000000000000000000000000000000000000815260040161142b906148d9565b60405180910390fd5b600260078190555043600954600a60003373ffffffffffffffffffffffffffffffffffffffff1673ffffffffffffffffffffffffffffffffffffffff1681526020019081526020016000205461148a9190614a1c565b116114ca576040517f08c379a00000000000000000000000000000000000000000000000000000000081526004016114c190614779565b60405180910390fd5b60001515600b866040516114de919061446a565b908152602001604051809103902060009054906101000a900460ff1615151461153c576040517f08c379a0000000000000000000000000000000000000000000000000000000008152600401611533906148b9565b60405180910390fd5b6000600a60003373ffffffffffffffffffffffffffffffffffffffff1673ffffffffffffffffffffffffffffffffffffffff1681526020019081526020016000205414156115bf576040517f08c379a00000000000000000000000000000000000000000000000000000000081526004016115b690614619565b60405180910390fd5b600073ffffffffffffffffffffffffffffffffffffffff163373ffffffffffffffffffffffffffffffffffffffff1614156115f957600080fd5b6000861161163c576040517f08c379a000000000000000000000000000000000000000000000000000000000815260040161163390614839565b60405180910390fd5b60006001905060008060028888611691600a60003373ffffffffffffffffffffffffffffffffffffffff1673ffffffffffffffffffffffffffffffffffffffff16815260200190815260200160002054612c3d565b6040516020016116a3939291906144a5565b6040516020818303038152906040526040516116bf9190614453565b602060405180830381855afa1580156116dc573d6000803e3d6000fd5b5050506040513d601f19601f820116820180604052508101906116ff9190613cd7565b905060005b8981101561178d57600060f81b82826020811061174a577f4e487b7100000000000000000000000000000000000000000000000000000000600052603260045260246000fd5b1a60f81b7effffffffffffffffffffffffffffffffffffffffffffffffffffffffffffff19161461177a57600093505b808061178590614c0c565b915050611704565b50821561181c576001600b896040516117a6919061446a565b908152602001604051809103902060006101000a81548160ff021916908315150217905550611819600a60003373ffffffffffffffffffffffffffffffffffffffff1673ffffffffffffffffffffffffffffffffffffffff1681526020019081526020016000205489898c8a8a8a612dea565b91505b7f01d0069b9880a524301482c295b7feddc589c44e51fa3562982c4eb090719d0783828460405161184f9392919061456d565b60405180910390a15050506001600781905550505050505050565b611872612834565b73ffffffffffffffffffffffffffffffffffffffff168273ffffffffffffffffffffffffffffffffffffffff1614156118e0576040517f08c379a00000000000000000000000000000000000000000000000000000000081526004016118d7906146b9565b60405180910390fd5b80600560006118ed612834565b73ffffffffffffffffffffffffffffffffffffffff1673ffffffffffffffffffffffffffffffffffffffff16815260200190815260200160002060008473ffffffffffffffffffffffffffffffffffffffff1673ffffffffffffffffffffffffffffffffffffffff16815260200190815260200160002060006101000a81548160ff0219169083151502179055508173ffffffffffffffffffffffffffffffffffffffff1661199a612834565b73ffffffffffffffffffffffffffffffffffffffff167f17307eab39ab6107e8899845ad3d59bd9653f200f220920489ca2b5937696c31836040516119df9190614552565b60405180910390a35050565b600073ffffffffffffffffffffffffffffffffffffffff163373ffffffffffffffffffffffffffffffffffffffff161415611a2557600080fd5b611a2e816127c8565b611a3757600080fd5b6000611a42826111e1565b90503373ffffffffffffffffffffffffffffffffffffffff168173ffffffffffffffffffffffffffffffffffffffff1614611ab2576040517f08c379a0000000000000000000000000000000000000000000000000000000008152600401611aa990614679565b60405180910390fd5b6000600c60008481526020019081526020016000206040518061012001604052908160008201548152602001600182018054611aed90614ba9565b80601f0160208091040260200160405190810160405280929190818152602001828054611b1990614ba9565b8015611b665780601f10611b3b57610100808354040283529160200191611b66565b820191906000526020600020905b815481529060010190602001808311611b4957829003601f168201915b505050505081526020016002820160009054906101000a900473ffffffffffffffffffffffffffffffffffffffff1673ffffffffffffffffffffffffffffffffffffffff1673ffffffffffffffffffffffffffffffffffffffff1681526020016003820160009054906101000a900473ffffffffffffffffffffffffffffffffffffffff1673ffffffffffffffffffffffffffffffffffffffff1673ffffffffffffffffffffffffffffffffffffffff1681526020016004820154815260200160058201548152602001600682018054611c3f90614ba9565b80601f0160208091040260200160405190810160405280929190818152602001828054611c6b90614ba9565b8015611cb85780601f10611c8d57610100808354040283529160200191611cb8565b820191906000526020600020905b815481529060010190602001808311611c9b57829003601f168201915b50505050508152602001600782015481526020016008820160009054906101000a900460ff161515151581525050905080610100015115611d0a57600081610100019015159081151581525050611d1d565b6001816101000190151590811515815250505b80600c6000858152602001908152602001600020600082015181600001556020820151816001019080519060200190611d579291906138c5565b5060408201518160020160006101000a81548173ffffffffffffffffffffffffffffffffffffffff021916908373ffffffffffffffffffffffffffffffffffffffff16021790555060608201518160030160006101000a81548173ffffffffffffffffffffffffffffffffffffffff021916908373ffffffffffffffffffffffffffffffffffffffff1602179055506080820151816004015560a0820151816005015560c0820151816006019080519060200190611e169291906138c5565b5060e082015181600701556101008201518160080160006101000a81548160ff021916908315150217905550905050505050565b6000600c6000838152602001908152602001600020600401549050919050565b600073ffffffffffffffffffffffffffffffffffffffff163373ffffffffffffffffffffffffffffffffffffffff161415611ea457600080fd5b611ead826127c8565b611eb657600080fd5b6000611ec1836111e1565b90503373ffffffffffffffffffffffffffffffffffffffff168173ffffffffffffffffffffffffffffffffffffffff1614611f31576040517f08c379a0000000000000000000000000000000000000000000000000000000008152600401611f2890614679565b60405180910390fd5b6000600c60008581526020019081526020016000206040518061012001604052908160008201548152602001600182018054611f6c90614ba9565b80601f0160208091040260200160405190810160405280929190818152602001828054611f9890614ba9565b8015611fe55780601f10611fba57610100808354040283529160200191611fe5565b820191906000526020600020905b815481529060010190602001808311611fc857829003601f168201915b505050505081526020016002820160009054906101000a900473ffffffffffffffffffffffffffffffffffffffff1673ffffffffffffffffffffffffffffffffffffffff1673ffffffffffffffffffffffffffffffffffffffff1681526020016003820160009054906101000a900473ffffffffffffffffffffffffffffffffffffffff1673ffffffffffffffffffffffffffffffffffffffff1673ffffffffffffffffffffffffffffffffffffffff16815260200160048201548152602001600582015481526020016006820180546120be90614ba9565b80601f01602080910402602001604051908101604052809291908181526020018280546120ea90614ba9565b80156121375780601f1061210c57610100808354040283529160200191612137565b820191906000526020600020905b81548152906001019060200180831161211a57829003601f168201915b50505050508152602001600782015481526020016008820160009054906101000a900460ff1615151515815250509050828160e001818152505080600c60008681526020019081526020016000206000820151816000015560208201518160010190805190602001906121ab9291906138c5565b5060408201518160020160006101000a81548173ffffffffffffffffffffffffffffffffffffffff021916908373ffffffffffffffffffffffffffffffffffffffff16021790555060608201518160030160006101000a81548173ffffffffffffffffffffffffffffffffffffffff021916908373ffffffffffffffffffffffffffffffffffffffff1602179055506080820151816004015560a0820151816005015560c082015181600601908051906020019061226a9291906138c5565b5060e082015181600701556101008201518160080160006101000a81548160ff02191690831515021790555090505050505050565b6122b06122aa612834565b836128f5565b6122ef576040517f08c379a00000000000000000000000000000000000000000000000000000000081526004016122e690614899565b60405180910390fd5b6122fb84848484612fcc565b50505050565b606061230c826127c8565b61234b576040517f08c379a0000000000000000000000000000000000000000000000000000000008152600401612342906147b9565b60405180910390fd5b600060066000848152602001908152602001600020805461236b90614ba9565b80601f016020809104026020016040519081016040528092919081815260200182805461239790614ba9565b80156123e45780601f106123b9576101008083540402835291602001916123e4565b820191906000526020600020905b8154815290600101906020018083116123c757829003601f168201915b5050505050905060006123f5613028565b905060008151141561240b57819250505061244e565b600082511115612440578082604051602001612428929190614481565b6040516020818303038152906040529250505061244e565b6124498461303f565b925050505b919050565b600b818051602081018201805184825260208301602085012081835280955050505050506000915054906101000a900460ff1681565b61249161394b565b600c600083815260200190815260200160002060405180610120016040529081600082015481526020016001820180546124ca90614ba9565b80601f01602080910402602001604051908101604052809291908181526020018280546124f690614ba9565b80156125435780601f1061251857610100808354040283529160200191612543565b820191906000526020600020905b81548152906001019060200180831161252657829003601f168201915b505050505081526020016002820160009054906101000a900473ffffffffffffffffffffffffffffffffffffffff1673ffffffffffffffffffffffffffffffffffffffff1673ffffffffffffffffffffffffffffffffffffffff1681526020016003820160009054906101000a900473ffffffffffffffffffffffffffffffffffffffff1673ffffffffffffffffffffffffffffffffffffffff1673ffffffffffffffffffffffffffffffffffffffff168152602001600482015481526020016005820154815260200160068201805461261c90614ba9565b80601f016020809104026020016040519081016040528092919081815260200182805461264890614ba9565b80156126955780601f1061266a57610100808354040283529160200191612695565b820191906000526020600020905b81548152906001019060200180831161267857829003601f168201915b50505050508152602001600782015481526020016008820160009054906101000a900460ff1615151515815250509050919050565b6000600560008473ffffffffffffffffffffffffffffffffffffffff1673ffffffffffffffffffffffffffffffffffffffff16815260200190815260200160002060008373ffffffffffffffffffffffffffffffffffffffff1673ffffffffffffffffffffffffffffffffffffffff16815260200190815260200160002060009054906101000a900460ff16905092915050565b60007f01ffc9a7000000000000000000000000000000000000000000000000000000007bffffffffffffffffffffffffffffffffffffffffffffffffffffffff1916827bffffffffffffffffffffffffffffffffffffffffffffffffffffffff1916149050919050565b60008073ffffffffffffffffffffffffffffffffffffffff166002600084815260200190815260200160002060009054906101000a900473ffffffffffffffffffffffffffffffffffffffff1673ffffffffffffffffffffffffffffffffffffffff1614159050919050565b600033905090565b816004600083815260200190815260200160002060006101000a81548173ffffffffffffffffffffffffffffffffffffffff021916908373ffffffffffffffffffffffffffffffffffffffff160217905550808273ffffffffffffffffffffffffffffffffffffffff166128af836111e1565b73ffffffffffffffffffffffffffffffffffffffff167f8c5be1e5ebec7d5bd14f71427d1e84f3dd0314c0f7b2291e5b200ac8c7c3b92560405160405180910390a45050565b6000612900826127c8565b61293f576040517f08c379a0000000000000000000000000000000000000000000000000000000008152600401612936906146d9565b60405180910390fd5b600061294a836111e1565b90508073ffffffffffffffffffffffffffffffffffffffff168473ffffffffffffffffffffffffffffffffffffffff1614806129b957508373ffffffffffffffffffffffffffffffffffffffff166129a1846107be565b73ffffffffffffffffffffffffffffffffffffffff16145b806129ca57506129c981856126ca565b5b91505092915050565b8273ffffffffffffffffffffffffffffffffffffffff166129f3826111e1565b73ffffffffffffffffffffffffffffffffffffffff1614612a49576040517f08c379a0000000000000000000000000000000000000000000000000000000008152600401612a4090614819565b60405180910390fd5b600073ffffffffffffffffffffffffffffffffffffffff168273ffffffffffffffffffffffffffffffffffffffff161415612ab9576040517f08c379a0000000000000000000000000000000000000000000000000000000008152600401612ab090614699565b60405180910390fd5b612ac48383836130e6565b612acf60008261283c565b6001600360008573ffffffffffffffffffffffffffffffffffffffff1673ffffffffffffffffffffffffffffffffffffffff1681526020019081526020016000206000828254612b1f9190614aa3565b925050819055506001600360008473ffffffffffffffffffffffffffffffffffffffff1673ffffffffffffffffffffffffffffffffffffffff1681526020019081526020016000206000828254612b769190614a1c565b92505081905550816002600083815260200190815260200160002060006101000a81548173ffffffffffffffffffffffffffffffffffffffff021916908373ffffffffffffffffffffffffffffffffffffffff160217905550808273ffffffffffffffffffffffffffffffffffffffff168473ffffffffffffffffffffffffffffffffffffffff167fddf252ad1be2c89b69c2b068fc378daa952ba7f163c4a11628f55a4df523b3ef60405160405180910390a4505050565b600081600001549050919050565b60606000821415612c85576040518060400160405280600181526020017f30000000000000000000000000000000000000000000000000000000000000008152509050612de5565b600082905060005b60008214612cb7578080612ca090614c0c565b915050600a82612cb09190614a72565b9150612c8d565b60008167ffffffffffffffff811115612cf9577f4e487b7100000000000000000000000000000000000000000000000000000000600052604160045260246000fd5b6040519080825280601f01601f191660200182016040528015612d2b5781602001600182028036833780820191505090505b5090505b60008514612dde57600182612d449190614aa3565b9150600a85612d539190614c55565b6030612d5f9190614a1c565b60f81b818381518110612d9b577f4e487b7100000000000000000000000000000000000000000000000000000000600052603260045260246000fd5b60200101907effffffffffffffffffffffffffffffffffffffffffffffffffffffffffffff1916908160001a905350600a85612dd79190614a72565b9450612d2f565b8093505050505b919050565b6000612df660086134ba565b6000612e026008612c2f565b9050612e0e33826134d9565b612e1881866136a7565b6000604051806101200160405280612e306008612c2f565b81526020018a81526020013373ffffffffffffffffffffffffffffffffffffffff168152602001600073ffffffffffffffffffffffffffffffffffffffff1681526020018881526020018b8152602001898152602001868152602001851515815250905080600c6000848152602001908152602001600020600082015181600001556020820151816001019080519060200190612ece9291906138c5565b5060408201518160020160006101000a81548173ffffffffffffffffffffffffffffffffffffffff021916908373ffffffffffffffffffffffffffffffffffffffff16021790555060608201518160030160006101000a81548173ffffffffffffffffffffffffffffffffffffffff021916908373ffffffffffffffffffffffffffffffffffffffff1602179055506080820151816004015560a0820151816005015560c0820151816006019080519060200190612f8d9291906138c5565b5060e082015181600701556101008201518160080160006101000a81548160ff0219169083151502179055509050508192505050979650505050505050565b612fd78484846129d3565b612fe38484848461371b565b613022576040517f08c379a000000000000000000000000000000000000000000000000000000000815260040161301990614639565b60405180910390fd5b50505050565b606060405180602001604052806000815250905090565b606061304a826127c8565b613089576040517f08c379a000000000000000000000000000000000000000000000000000000000815260040161308090614859565b60405180910390fd5b6000613093613028565b905060008151116130b357604051806020016040528060008152506130de565b806130bd84612c3d565b6040516020016130ce929190614481565b6040516020818303038152906040525b915050919050565b6000600c6000838152602001908152602001600020604051806101200160405290816000820154815260200160018201805461312190614ba9565b80601f016020809104026020016040519081016040528092919081815260200182805461314d90614ba9565b801561319a5780601f1061316f5761010080835404028352916020019161319a565b820191906000526020600020905b81548152906001019060200180831161317d57829003601f168201915b505050505081526020016002820160009054906101000a900473ffffffffffffffffffffffffffffffffffffffff1673ffffffffffffffffffffffffffffffffffffffff1673ffffffffffffffffffffffffffffffffffffffff1681526020016003820160009054906101000a900473ffffffffffffffffffffffffffffffffffffffff1673ffffffffffffffffffffffffffffffffffffffff1673ffffffffffffffffffffffffffffffffffffffff168152602001600482015481526020016005820154815260200160068201805461327390614ba9565b80601f016020809104026020016040519081016040528092919081815260200182805461329f90614ba9565b80156132ec5780601f106132c1576101008083540402835291602001916132ec565b820191906000526020600020905b8154815290600101906020018083116132cf57829003601f168201915b50505050508152602001600782015481526020016008820160009054906101000a900460ff161515151581525050905083816060019073ffffffffffffffffffffffffffffffffffffffff16908173ffffffffffffffffffffffffffffffffffffffff168152505082816040019073ffffffffffffffffffffffffffffffffffffffff16908173ffffffffffffffffffffffffffffffffffffffff168152505080600c60008481526020019081526020016000206000820151816000015560208201518160010190805190602001906133c69291906138c5565b5060408201518160020160006101000a81548173ffffffffffffffffffffffffffffffffffffffff021916908373ffffffffffffffffffffffffffffffffffffffff16021790555060608201518160030160006101000a81548173ffffffffffffffffffffffffffffffffffffffff021916908373ffffffffffffffffffffffffffffffffffffffff1602179055506080820151816004015560a0820151816005015560c08201518160060190805190602001906134859291906138c5565b5060e082015181600701556101008201518160080160006101000a81548160ff02191690831515021790555090505050505050565b60018160000160008282546134cf9190614a1c565b9250508190555050565b600073ffffffffffffffffffffffffffffffffffffffff168273ffffffffffffffffffffffffffffffffffffffff161415613549576040517f08c379a000000000000000000000000000000000000000000000000000000000815260040161354090614799565b60405180910390fd5b613552816127c8565b15613592576040517f08c379a000000000000000000000000000000000000000000000000000000000815260040161358990614659565b60405180910390fd5b61359e600083836130e6565b6001600360008473ffffffffffffffffffffffffffffffffffffffff1673ffffffffffffffffffffffffffffffffffffffff16815260200190815260200160002060008282546135ee9190614a1c565b92505081905550816002600083815260200190815260200160002060006101000a81548173ffffffffffffffffffffffffffffffffffffffff021916908373ffffffffffffffffffffffffffffffffffffffff160217905550808273ffffffffffffffffffffffffffffffffffffffff16600073ffffffffffffffffffffffffffffffffffffffff167fddf252ad1be2c89b69c2b068fc378daa952ba7f163c4a11628f55a4df523b3ef60405160405180910390a45050565b6136b0826127c8565b6136ef576040517f08c379a00000000000000000000000000000000000000000000000000000000081526004016136e690614759565b60405180910390fd5b806006600084815260200190815260200160002090805190602001906137169291906138c5565b505050565b600061373c8473ffffffffffffffffffffffffffffffffffffffff166138b2565b156138a5578373ffffffffffffffffffffffffffffffffffffffff1663150b7a02613765612834565b8786866040518563ffffffff1660e01b81526004016137879493929190614506565b602060405180830381600087803b1580156137a157600080fd5b505af19250505080156137d257506040513d601f19601f820116820180604052508101906137cf9190613d29565b60015b613855573d8060008114613802576040519150601f19603f3d011682016040523d82523d6000602084013e613807565b606091505b5060008151141561384d576040517f08c379a000000000000000000000000000000000000000000000000000000000815260040161384490614639565b60405180910390fd5b805181602001fd5b63150b7a0260e01b7bffffffffffffffffffffffffffffffffffffffffffffffffffffffff1916817bffffffffffffffffffffffffffffffffffffffffffffffffffffffff1916149150506138aa565b600190505b949350505050565b600080823b905060008111915050919050565b8280546138d190614ba9565b90600052602060002090601f0160209004810192826138f3576000855561393a565b82601f1061390c57805160ff191683800117855561393a565b8280016001018555821561393a579182015b8281111561393957825182559160200191906001019061391e565b5b50905061394791906139c5565b5090565b6040518061012001604052806000815260200160608152602001600073ffffffffffffffffffffffffffffffffffffffff168152602001600073ffffffffffffffffffffffffffffffffffffffff168152602001600081526020016000815260200160608152602001600081526020016000151581525090565b5b808211156139de5760008160009055506001016139c6565b5090565b60006139f56139f08461495b565b614936565b905082815260208101848484011115613a0d57600080fd5b613a18848285614b67565b509392505050565b6000613a33613a2e8461498c565b614936565b905082815260208101848484011115613a4b57600080fd5b613a56848285614b67565b509392505050565b600081359050613a6d816152f3565b92915050565b600081359050613a828161530a565b92915050565b600081519050613a9781615321565b92915050565b600081359050613aac81615338565b92915050565b600081519050613ac181615338565b92915050565b600082601f830112613ad857600080fd5b8135613ae88482602086016139e2565b91505092915050565b600082601f830112613b0257600080fd5b8135613b12848260208601613a20565b91505092915050565b600081359050613b2a8161534f565b92915050565b600060208284031215613b4257600080fd5b6000613b5084828501613a5e565b91505092915050565b60008060408385031215613b6c57600080fd5b6000613b7a85828601613a5e565b9250506020613b8b85828601613a5e565b9150509250929050565b600080600060608486031215613baa57600080fd5b6000613bb886828701613a5e565b9350506020613bc986828701613a5e565b9250506040613bda86828701613b1b565b9150509250925092565b60008060008060808587031215613bfa57600080fd5b6000613c0887828801613a5e565b9450506020613c1987828801613a5e565b9350506040613c2a87828801613b1b565b925050606085013567ffffffffffffffff811115613c4757600080fd5b613c5387828801613ac7565b91505092959194509250565b60008060408385031215613c7257600080fd5b6000613c8085828601613a5e565b9250506020613c9185828601613a73565b9150509250929050565b60008060408385031215613cae57600080fd5b6000613cbc85828601613a5e565b9250506020613ccd85828601613b1b565b9150509250929050565b600060208284031215613ce957600080fd5b6000613cf784828501613a88565b91505092915050565b600060208284031215613d1257600080fd5b6000613d2084828501613a9d565b91505092915050565b600060208284031215613d3b57600080fd5b6000613d4984828501613ab2565b91505092915050565b600060208284031215613d6457600080fd5b600082013567ffffffffffffffff811115613d7e57600080fd5b613d8a84828501613af1565b91505092915050565b600060208284031215613da557600080fd5b6000613db384828501613b1b565b91505092915050565b60008060008060008060c08789031215613dd557600080fd5b6000613de389828a01613b1b565b965050602087013567ffffffffffffffff811115613e0057600080fd5b613e0c89828a01613af1565b955050604087013567ffffffffffffffff811115613e2957600080fd5b613e3589828a01613af1565b945050606087013567ffffffffffffffff811115613e5257600080fd5b613e5e89828a01613af1565b9350506080613e6f89828a01613b1b565b92505060a0613e8089828a01613a73565b9150509295509295509295565b60008060408385031215613ea057600080fd5b6000613eae85828601613b1b565b9250506020613ebf85828601613b1b565b9150509250929050565b613ed281614ae9565b82525050565b613ee181614ad7565b82525050565b613ef081614afb565b82525050565b613eff81614afb565b82525050565b613f0e81614b07565b82525050565b6000613f1f826149bd565b613f2981856149d3565b9350613f39818560208601614b76565b613f4281614d42565b840191505092915050565b6000613f58826149bd565b613f6281856149e4565b9350613f72818560208601614b76565b80840191505092915050565b6000613f89826149c8565b613f9381856149ef565b9350613fa3818560208601614b76565b613fac81614d42565b840191505092915050565b6000613fc2826149c8565b613fcc8185614a00565b9350613fdc818560208601614b76565b613fe581614d42565b840191505092915050565b6000613ffb826149c8565b6140058185614a11565b9350614015818560208601614b76565b80840191505092915050565b600061402e601583614a00565b915061403982614d53565b602082019050919050565b6000614051603283614a00565b915061405c82614d7c565b604082019050919050565b6000614074601c83614a00565b915061407f82614dcb565b602082019050919050565b6000614097601683614a00565b91506140a282614df4565b602082019050919050565b60006140ba602483614a00565b91506140c582614e1d565b604082019050919050565b60006140dd601983614a00565b91506140e882614e6c565b602082019050919050565b6000614100602c83614a00565b915061410b82614e95565b604082019050919050565b6000614123603883614a00565b915061412e82614ee4565b604082019050919050565b6000614146602a83614a00565b915061415182614f33565b604082019050919050565b6000614169602983614a00565b915061417482614f82565b604082019050919050565b600061418c602e83614a00565b915061419782614fd1565b604082019050919050565b60006141af601383614a00565b91506141ba82615020565b602082019050919050565b60006141d2602083614a00565b91506141dd82615049565b602082019050919050565b60006141f5603183614a00565b915061420082615072565b604082019050919050565b6000614218602c83614a00565b9150614223826150c1565b604082019050919050565b600061423b601483614a00565b915061424682615110565b602082019050919050565b600061425e602983614a00565b915061426982615139565b604082019050919050565b6000614281601183614a00565b915061428c82615188565b602082019050919050565b60006142a4602f83614a00565b91506142af826151b1565b604082019050919050565b60006142c7602183614a00565b91506142d282615200565b604082019050919050565b60006142ea6000836149e4565b91506142f58261524f565b600082019050919050565b600061430d603183614a00565b915061431882615252565b604082019050919050565b6000614330600c83614a00565b915061433b826152a1565b602082019050919050565b6000614353601f83614a00565b915061435e826152ca565b602082019050919050565b6000610120830160008301516143826000860182614435565b506020830151848203602086015261439a8282613f7e565b91505060408301516143af6040860182613ec9565b5060608301516143c26060860182613ec9565b5060808301516143d56080860182614435565b5060a08301516143e860a0860182614435565b5060c083015184820360c08601526144008282613f7e565b91505060e083015161441560e0860182614435565b5061010083015161442a610100860182613ee7565b508091505092915050565b61443e81614b5d565b82525050565b61444d81614b5d565b82525050565b600061445f8284613f4d565b915081905092915050565b60006144768284613ff0565b915081905092915050565b600061448d8285613ff0565b91506144998284613ff0565b91508190509392505050565b60006144b18286613ff0565b91506144bd8285613ff0565b91506144c98284613ff0565b9150819050949350505050565b60006144e1826142dd565b9150819050919050565b60006020820190506145006000830184613ed8565b92915050565b600060808201905061451b6000830187613ed8565b6145286020830186613ed8565b6145356040830185614444565b81810360608301526145478184613f14565b905095945050505050565b60006020820190506145676000830184613ef6565b92915050565b60006060820190506145826000830186613ef6565b61458f6020830185613f05565b61459c6040830184614444565b949350505050565b600060208201905081810360008301526145be8184613fb7565b905092915050565b600060808201905081810360008301526145e08187613fb7565b90506145ef6020830186614444565b81810360408301526146018185613fb7565b90506146106060830184614444565b95945050505050565b6000602082019050818103600083015261463281614021565b9050919050565b6000602082019050818103600083015261465281614044565b9050919050565b6000602082019050818103600083015261467281614067565b9050919050565b600060208201905081810360008301526146928161408a565b9050919050565b600060208201905081810360008301526146b2816140ad565b9050919050565b600060208201905081810360008301526146d2816140d0565b9050919050565b600060208201905081810360008301526146f2816140f3565b9050919050565b6000602082019050818103600083015261471281614116565b9050919050565b6000602082019050818103600083015261473281614139565b9050919050565b600060208201905081810360008301526147528161415c565b9050919050565b600060208201905081810360008301526147728161417f565b9050919050565b60006020820190508181036000830152614792816141a2565b9050919050565b600060208201905081810360008301526147b2816141c5565b9050919050565b600060208201905081810360008301526147d2816141e8565b9050919050565b600060208201905081810360008301526147f28161420b565b9050919050565b600060208201905081810360008301526148128161422e565b9050919050565b6000602082019050818103600083015261483281614251565b9050919050565b6000602082019050818103600083015261485281614274565b9050919050565b6000602082019050818103600083015261487281614297565b9050919050565b60006020820190508181036000830152614892816142ba565b9050919050565b600060208201905081810360008301526148b281614300565b9050919050565b600060208201905081810360008301526148d281614323565b9050919050565b600060208201905081810360008301526148f281614346565b9050919050565b600060208201905081810360008301526149138184614369565b905092915050565b60006020820190506149306000830184614444565b92915050565b6000614940614951565b905061494c8282614bdb565b919050565b6000604051905090565b600067ffffffffffffffff82111561497657614975614d13565b5b61497f82614d42565b9050602081019050919050565b600067ffffffffffffffff8211156149a7576149a6614d13565b5b6149b082614d42565b9050602081019050919050565b600081519050919050565b600081519050919050565b600082825260208201905092915050565b600081905092915050565b600082825260208201905092915050565b600082825260208201905092915050565b600081905092915050565b6000614a2782614b5d565b9150614a3283614b5d565b9250827fffffffffffffffffffffffffffffffffffffffffffffffffffffffffffffffff03821115614a6757614a66614c86565b5b828201905092915050565b6000614a7d82614b5d565b9150614a8883614b5d565b925082614a9857614a97614cb5565b5b828204905092915050565b6000614aae82614b5d565b9150614ab983614b5d565b925082821015614acc57614acb614c86565b5b828203905092915050565b6000614ae282614b3d565b9050919050565b6000614af482614b3d565b9050919050565b60008115159050919050565b6000819050919050565b60007fffffffff0000000000000000000000000000000000000000000000000000000082169050919050565b600073ffffffffffffffffffffffffffffffffffffffff82169050919050565b6000819050919050565b82818337600083830152505050565b60005b83811015614b94578082015181840152602081019050614b79565b83811115614ba3576000848401525b50505050565b60006002820490506001821680614bc157607f821691505b60208210811415614bd557614bd4614ce4565b5b50919050565b614be482614d42565b810181811067ffffffffffffffff82111715614c0357614c02614d13565b5b80604052505050565b6000614c1782614b5d565b91507fffffffffffffffffffffffffffffffffffffffffffffffffffffffffffffffff821415614c4a57614c49614c86565b5b600182019050919050565b6000614c6082614b5d565b9150614c6b83614b5d565b925082614c7b57614c7a614cb5565b5b828206905092915050565b7f4e487b7100000000000000000000000000000000000000000000000000000000600052601160045260246000fd5b7f4e487b7100000000000000000000000000000000000000000000000000000000600052601260045260246000fd5b7f4e487b7100000000000000000000000000000000000000000000000000000000600052602260045260246000fd5b7f4e487b7100000000000000000000000000000000000000000000000000000000600052604160045260246000fd5b6000601f19601f8301169050919050565b7f546f6c6572616e63652063616e6e6f7420626520300000000000000000000000600082015250565b7f4552433732313a207472616e7366657220746f206e6f6e20455243373231526560008201527f63656976657220696d706c656d656e7465720000000000000000000000000000602082015250565b7f4552433732313a20746f6b656e20616c7265616479206d696e74656400000000600082015250565b7f6f6e6c79207468652068617368696d61206f776e657200000000000000000000600082015250565b7f4552433732313a207472616e7366657220746f20746865207a65726f2061646460008201527f7265737300000000000000000000000000000000000000000000000000000000602082015250565b7f4552433732313a20617070726f766520746f2063616c6c657200000000000000600082015250565b7f4552433732313a206f70657261746f7220717565727920666f72206e6f6e657860008201527f697374656e7420746f6b656e0000000000000000000000000000000000000000602082015250565b7f4552433732313a20617070726f76652063616c6c6572206973206e6f74206f7760008201527f6e6572206e6f7220617070726f76656420666f7220616c6c0000000000000000602082015250565b7f4552433732313a2062616c616e636520717565727920666f7220746865207a6560008201527f726f206164647265737300000000000000000000000000000000000000000000602082015250565b7f4552433732313a206f776e657220717565727920666f72206e6f6e657869737460008201527f656e7420746f6b656e0000000000000000000000000000000000000000000000602082015250565b7f45524337323155524953746f726167653a2055524920736574206f66206e6f6e60008201527f6578697374656e7420746f6b656e000000000000000000000000000000000000602082015250565b7f746f6c6572616e63652069732065787069726500000000000000000000000000600082015250565b7f4552433732313a206d696e7420746f20746865207a65726f2061646472657373600082015250565b7f45524337323155524953746f726167653a2055524920717565727920666f722060008201527f6e6f6e6578697374656e7420746f6b656e000000000000000000000000000000602082015250565b7f4552433732313a20617070726f76656420717565727920666f72206e6f6e657860008201527f697374656e7420746f6b656e0000000000000000000000000000000000000000602082015250565b7f70726963652068617320746f2062652068696768000000000000000000000000600082015250565b7f4552433732313a207472616e73666572206f6620746f6b656e2074686174206960008201527f73206e6f74206f776e0000000000000000000000000000000000000000000000602082015250565b7f7374617273206d6f7265207468616e2030000000000000000000000000000000600082015250565b7f4552433732314d657461646174613a2055524920717565727920666f72206e6f60008201527f6e6578697374656e7420746f6b656e0000000000000000000000000000000000602082015250565b7f4552433732313a20617070726f76616c20746f2063757272656e74206f776e6560008201527f7200000000000000000000000000000000000000000000000000000000000000602082015250565b50565b7f4552433732313a207472616e736665722063616c6c6572206973206e6f74206f60008201527f776e6572206e6f7220617070726f766564000000000000000000000000000000602082015250565b7f6e616d6520697320627573790000000000000000000000000000000000000000600082015250565b7f5265656e7472616e637947756172643a207265656e7472616e742063616c6c00600082015250565b6152fc81614ad7565b811461530757600080fd5b50565b61531381614afb565b811461531e57600080fd5b50565b61532a81614b07565b811461533557600080fd5b50565b61534181614b11565b811461534c57600080fd5b50565b61535881614b5d565b811461536357600080fd5b5056fea264697066735822122091f25a9d25a02f4fb33546c46b500f0618db9f17287fcb579eaf93a59a131bac64736f6c63430008030033",
  "immutableReferences": {},
  "source": "// SPDX-License-Identifier: MIT\n\npragma solidity ^0.8.0;\n\nimport \"@openzeppelin/contracts/token/ERC721/ERC721.sol\";\nimport \"@openzeppelin/contracts/utils/Counters.sol\";\nimport \"@openzeppelin/contracts/utils/Context.sol\";\nimport \"./ERC721Hashima.sol\";\n\n\ncontract NoHashima is ERC721Hashima{\n\n    constructor() ERC721(\"NotHashima\", \"NOTHASHIMA\") {}\n\n\n\n}",
  "sourcePath": "/Users/aarontolentino/Desktop/Contratos_1/hashima/contracts/NoHashima.sol",
  "compiler": {
    "name": "solc",
    "version": "0.8.3+commit.8d00100c.Emscripten.clang"
  },
  "schemaVersion": "3.4.1",
  "updatedAt": "2022-06-17T18:46:08.074Z",
  "devdoc": {
    "kind": "dev",
    "methods": {
      "approve(address,uint256)": {
        "details": "See {IERC721-approve}."
      },
      "balanceOf(address)": {
        "details": "See {IERC721-balanceOf}."
      },
      "getApproved(uint256)": {
        "details": "See {IERC721-getApproved}."
      },
      "isApprovedForAll(address,address)": {
        "details": "See {IERC721-isApprovedForAll}."
      },
      "name()": {
        "details": "See {IERC721Metadata-name}."
      },
      "ownerOf(uint256)": {
        "details": "See {IERC721-ownerOf}."
      },
      "safeTransferFrom(address,address,uint256)": {
        "details": "See {IERC721-safeTransferFrom}."
      },
      "safeTransferFrom(address,address,uint256,bytes)": {
        "details": "See {IERC721-safeTransferFrom}."
      },
      "setApprovalForAll(address,bool)": {
        "details": "See {IERC721-setApprovalForAll}."
      },
      "supportsInterface(bytes4)": {
        "details": "See {IERC165-supportsInterface}."
      },
      "symbol()": {
        "details": "See {IERC721Metadata-symbol}."
      },
      "tokenURI(uint256)": {
        "details": "See {IERC721Metadata-tokenURI}."
      },
      "transferFrom(address,address,uint256)": {
        "details": "See {IERC721-transferFrom}."
      }
    },
    "version": 1
  },
  "userdoc": {
    "kind": "user",
    "methods": {},
    "version": 1
  }
}