{
  "contractName": "OtherSide",
  "abi": [
    {
      "inputs": [
        {
          "internalType": "contract Hashi",
          "name": "HASHI_contract",
          "type": "address"
        }
      ],
      "stateMutability": "nonpayable",
      "type": "constructor"
    },
    {
      "anonymous": false,
      "inputs": [
        {
          "indexed": true,
          "internalType": "address",
          "name": "owner",
          "type": "address"
        },
        {
          "indexed": true,
          "internalType": "address",
          "name": "spender",
          "type": "address"
        },
        {
          "indexed": false,
          "internalType": "uint256",
          "name": "value",
          "type": "uint256"
        }
      ],
      "name": "Approval",
      "type": "event"
    },
    {
      "anonymous": false,
      "inputs": [
        {
          "indexed": false,
          "internalType": "uint256",
          "name": "amount",
          "type": "uint256"
        },
        {
          "indexed": false,
          "internalType": "bool",
          "name": "free",
          "type": "bool"
        },
        {
          "indexed": false,
          "internalType": "bytes32",
          "name": "result_hash",
          "type": "bytes32"
        }
      ],
      "name": "ExchangeComplete",
      "type": "event"
    },
    {
      "anonymous": false,
      "inputs": [
        {
          "indexed": true,
          "internalType": "address",
          "name": "from",
          "type": "address"
        },
        {
          "indexed": true,
          "internalType": "address",
          "name": "to",
          "type": "address"
        },
        {
          "indexed": false,
          "internalType": "uint256",
          "name": "value",
          "type": "uint256"
        }
      ],
      "name": "Transfer",
      "type": "event"
    },
    {
      "inputs": [
        {
          "internalType": "address",
          "name": "owner",
          "type": "address"
        },
        {
          "internalType": "address",
          "name": "spender",
          "type": "address"
        }
      ],
      "name": "allowance",
      "outputs": [
        {
          "internalType": "uint256",
          "name": "",
          "type": "uint256"
        }
      ],
      "stateMutability": "view",
      "type": "function",
      "constant": true
    },
    {
      "inputs": [
        {
          "internalType": "address",
          "name": "spender",
          "type": "address"
        },
        {
          "internalType": "uint256",
          "name": "amount",
          "type": "uint256"
        }
      ],
      "name": "approve",
      "outputs": [
        {
          "internalType": "bool",
          "name": "",
          "type": "bool"
        }
      ],
      "stateMutability": "nonpayable",
      "type": "function"
    },
    {
      "inputs": [
        {
          "internalType": "address",
          "name": "account",
          "type": "address"
        }
      ],
      "name": "balanceOf",
      "outputs": [
        {
          "internalType": "uint256",
          "name": "",
          "type": "uint256"
        }
      ],
      "stateMutability": "view",
      "type": "function",
      "constant": true
    },
    {
      "inputs": [
        {
          "internalType": "uint256",
          "name": "amount",
          "type": "uint256"
        }
      ],
      "name": "burn",
      "outputs": [],
      "stateMutability": "nonpayable",
      "type": "function"
    },
    {
      "inputs": [
        {
          "internalType": "address",
          "name": "account",
          "type": "address"
        },
        {
          "internalType": "uint256",
          "name": "amount",
          "type": "uint256"
        }
      ],
      "name": "burnFrom",
      "outputs": [],
      "stateMutability": "nonpayable",
      "type": "function"
    },
    {
      "inputs": [],
      "name": "decimals",
      "outputs": [
        {
          "internalType": "uint8",
          "name": "",
          "type": "uint8"
        }
      ],
      "stateMutability": "view",
      "type": "function",
      "constant": true
    },
    {
      "inputs": [
        {
          "internalType": "address",
          "name": "spender",
          "type": "address"
        },
        {
          "internalType": "uint256",
          "name": "subtractedValue",
          "type": "uint256"
        }
      ],
      "name": "decreaseAllowance",
      "outputs": [
        {
          "internalType": "bool",
          "name": "",
          "type": "bool"
        }
      ],
      "stateMutability": "nonpayable",
      "type": "function"
    },
    {
      "inputs": [
        {
          "internalType": "address",
          "name": "spender",
          "type": "address"
        },
        {
          "internalType": "uint256",
          "name": "addedValue",
          "type": "uint256"
        }
      ],
      "name": "increaseAllowance",
      "outputs": [
        {
          "internalType": "bool",
          "name": "",
          "type": "bool"
        }
      ],
      "stateMutability": "nonpayable",
      "type": "function"
    },
    {
      "inputs": [],
      "name": "name",
      "outputs": [
        {
          "internalType": "string",
          "name": "",
          "type": "string"
        }
      ],
      "stateMutability": "view",
      "type": "function",
      "constant": true
    },
    {
      "inputs": [],
      "name": "symbol",
      "outputs": [
        {
          "internalType": "string",
          "name": "",
          "type": "string"
        }
      ],
      "stateMutability": "view",
      "type": "function",
      "constant": true
    },
    {
      "inputs": [],
      "name": "totalSupply",
      "outputs": [
        {
          "internalType": "uint256",
          "name": "",
          "type": "uint256"
        }
      ],
      "stateMutability": "view",
      "type": "function",
      "constant": true
    },
    {
      "inputs": [
        {
          "internalType": "address",
          "name": "recipient",
          "type": "address"
        },
        {
          "internalType": "uint256",
          "name": "amount",
          "type": "uint256"
        }
      ],
      "name": "transfer",
      "outputs": [
        {
          "internalType": "bool",
          "name": "",
          "type": "bool"
        }
      ],
      "stateMutability": "nonpayable",
      "type": "function"
    },
    {
      "inputs": [
        {
          "internalType": "address",
          "name": "sender",
          "type": "address"
        },
        {
          "internalType": "address",
          "name": "recipient",
          "type": "address"
        },
        {
          "internalType": "uint256",
          "name": "amount",
          "type": "uint256"
        }
      ],
      "name": "transferFrom",
      "outputs": [
        {
          "internalType": "bool",
          "name": "",
          "type": "bool"
        }
      ],
      "stateMutability": "nonpayable",
      "type": "function"
    },
    {
      "inputs": [
        {
          "internalType": "uint256",
          "name": "amount",
          "type": "uint256"
        }
      ],
      "name": "deposit",
      "outputs": [],
      "stateMutability": "nonpayable",
      "type": "function"
    },
    {
      "inputs": [
        {
          "internalType": "bool",
          "name": "positive",
          "type": "bool"
        },
        {
          "internalType": "uint256",
          "name": "amount",
          "type": "uint256"
        }
      ],
      "name": "vote",
      "outputs": [],
      "stateMutability": "nonpayable",
      "type": "function"
    }
  ],
  "bytecode": "0x608060405260006005556000600655600160075560016008553480156200002557600080fd5b50604051620025663803806200256683398181016040528101906200004b9190620001fa565b6040518060400160405280600781526020017f506574756e6961000000000000000000000000000000000000000000000000008152506040518060400160405280600481526020017f50455455000000000000000000000000000000000000000000000000000000008152508160039080519060200190620000cf92919062000133565b508060049080519060200190620000e892919062000133565b50505080600960006101000a81548173ffffffffffffffffffffffffffffffffffffffff021916908373ffffffffffffffffffffffffffffffffffffffff16021790555050620002ed565b82805462000141906200026e565b90600052602060002090601f016020900481019282620001655760008555620001b1565b82601f106200018057805160ff1916838001178555620001b1565b82800160010185558215620001b1579182015b82811115620001b057825182559160200191906001019062000193565b5b509050620001c09190620001c4565b5090565b5b80821115620001df576000816000905550600101620001c5565b5090565b600081519050620001f481620002d3565b92915050565b6000602082840312156200020d57600080fd5b60006200021d84828501620001e3565b91505092915050565b600062000233826200024e565b9050919050565b6000620002478262000226565b9050919050565b600073ffffffffffffffffffffffffffffffffffffffff82169050919050565b600060028204905060018216806200028757607f821691505b602082108114156200029e576200029d620002a4565b5b50919050565b7f4e487b7100000000000000000000000000000000000000000000000000000000600052602260045260246000fd5b620002de816200023a565b8114620002ea57600080fd5b50565b61226980620002fd6000396000f3fe608060405234801561001057600080fd5b50600436106100f55760003560e01c806342966c6811610097578063a457c2d711610066578063a457c2d714610286578063a9059cbb146102b6578063b6b55f25146102e6578063dd62ed3e14610302576100f5565b806342966c681461020057806370a082311461021c57806379cc67901461024c57806395d89b4114610268576100f5565b806318160ddd116100d357806318160ddd1461016457806323b872dd14610182578063313ce567146101b257806339509351146101d0576100f5565b806306fdde03146100fa578063095ea7b31461011857806310e6e06c14610148575b600080fd5b610102610332565b60405161010f9190611940565b60405180910390f35b610132600480360381019061012d919061154d565b6103c4565b60405161013f9190611925565b60405180910390f35b610162600480360381019061015d9190611589565b6103e2565b005b61016c61042d565b6040516101799190611ac2565b60405180910390f35b61019c600480360381019061019791906114fe565b610437565b6040516101a99190611925565b60405180910390f35b6101ba61052f565b6040516101c79190611b14565b60405180910390f35b6101ea60048036038101906101e5919061154d565b610538565b6040516101f79190611925565b60405180910390f35b61021a600480360381019061021591906115ee565b6105e4565b005b61023660048036038101906102319190611499565b6105f8565b6040516102439190611ac2565b60405180910390f35b6102666004803603810190610261919061154d565b610640565b005b6102706106bb565b60405161027d9190611940565b60405180910390f35b6102a0600480360381019061029b919061154d565b61074d565b6040516102ad9190611925565b60405180910390f35b6102d060048036038101906102cb919061154d565b610838565b6040516102dd9190611925565b60405180910390f35b61030060048036038101906102fb91906115ee565b610856565b005b61031c600480360381019061031791906114c2565b610957565b6040516103299190611ac2565b60405180910390f35b60606003805461034190611d13565b80601f016020809104026020016040519081016040528092919081815260200182805461036d90611d13565b80156103ba5780601f1061038f576101008083540402835291602001916103ba565b820191906000526020600020905b81548152906001019060200180831161039d57829003601f168201915b5050505050905090565b60006103d86103d16109de565b84846109e6565b6001905092915050565b6103eb816105e4565b811561040f5780600660008282546104039190611b6c565b92505081905550610429565b80600560008282546104219190611b6c565b925050819055505b5050565b6000600254905090565b6000610444848484610bb1565b6000600160008673ffffffffffffffffffffffffffffffffffffffff1673ffffffffffffffffffffffffffffffffffffffff168152602001908152602001600020600061048f6109de565b73ffffffffffffffffffffffffffffffffffffffff1673ffffffffffffffffffffffffffffffffffffffff1681526020019081526020016000205490508281101561050f576040517f08c379a0000000000000000000000000000000000000000000000000000000008152600401610506906119e2565b60405180910390fd5b6105238561051b6109de565b8584036109e6565b60019150509392505050565b60006012905090565b60006105da6105456109de565b8484600160006105536109de565b73ffffffffffffffffffffffffffffffffffffffff1673ffffffffffffffffffffffffffffffffffffffff16815260200190815260200160002060008873ffffffffffffffffffffffffffffffffffffffff1673ffffffffffffffffffffffffffffffffffffffff168152602001908152602001600020546105d59190611b6c565b6109e6565b6001905092915050565b6105f56105ef6109de565b82610e32565b50565b60008060008373ffffffffffffffffffffffffffffffffffffffff1673ffffffffffffffffffffffffffffffffffffffff168152602001908152602001600020549050919050565b60006106538361064e6109de565b610957565b905081811015610698576040517f08c379a000000000000000000000000000000000000000000000000000000000815260040161068f90611a02565b60405180910390fd5b6106ac836106a46109de565b8484036109e6565b6106b68383610e32565b505050565b6060600480546106ca90611d13565b80601f01602080910402602001604051908101604052809291908181526020018280546106f690611d13565b80156107435780601f1061071857610100808354040283529160200191610743565b820191906000526020600020905b81548152906001019060200180831161072657829003601f168201915b5050505050905090565b6000806001600061075c6109de565b73ffffffffffffffffffffffffffffffffffffffff1673ffffffffffffffffffffffffffffffffffffffff16815260200190815260200160002060008573ffffffffffffffffffffffffffffffffffffffff1673ffffffffffffffffffffffffffffffffffffffff16815260200190815260200160002054905082811015610819576040517f08c379a000000000000000000000000000000000000000000000000000000000815260040161081090611a82565b60405180910390fd5b61082d6108246109de565b858584036109e6565b600191505092915050565b600061084c6108456109de565b8484610bb1565b6001905092915050565b600080610861611009565b915091506000600754846108759190611bf3565b9050610881338261112e565b7f0193fd4d672ea1b9355e18f00c75c2cdcefcb0df74875ae73aa338b3690b801d8184846040516108b493929190611add565b60405180910390a18261095157600960009054906101000a900473ffffffffffffffffffffffffffffffffffffffff1673ffffffffffffffffffffffffffffffffffffffff166379cc679033866040518363ffffffff1660e01b815260040161091e9291906118fc565b600060405180830381600087803b15801561093857600080fd5b505af115801561094c573d6000803e3d6000fd5b505050505b50505050565b6000600160008473ffffffffffffffffffffffffffffffffffffffff1673ffffffffffffffffffffffffffffffffffffffff16815260200190815260200160002060008373ffffffffffffffffffffffffffffffffffffffff1673ffffffffffffffffffffffffffffffffffffffff16815260200190815260200160002054905092915050565b600033905090565b600073ffffffffffffffffffffffffffffffffffffffff168373ffffffffffffffffffffffffffffffffffffffff161415610a56576040517f08c379a0000000000000000000000000000000000000000000000000000000008152600401610a4d90611a62565b60405180910390fd5b600073ffffffffffffffffffffffffffffffffffffffff168273ffffffffffffffffffffffffffffffffffffffff161415610ac6576040517f08c379a0000000000000000000000000000000000000000000000000000000008152600401610abd906119a2565b60405180910390fd5b80600160008573ffffffffffffffffffffffffffffffffffffffff1673ffffffffffffffffffffffffffffffffffffffff16815260200190815260200160002060008473ffffffffffffffffffffffffffffffffffffffff1673ffffffffffffffffffffffffffffffffffffffff168152602001908152602001600020819055508173ffffffffffffffffffffffffffffffffffffffff168373ffffffffffffffffffffffffffffffffffffffff167f8c5be1e5ebec7d5bd14f71427d1e84f3dd0314c0f7b2291e5b200ac8c7c3b92583604051610ba49190611ac2565b60405180910390a3505050565b600073ffffffffffffffffffffffffffffffffffffffff168373ffffffffffffffffffffffffffffffffffffffff161415610c21576040517f08c379a0000000000000000000000000000000000000000000000000000000008152600401610c1890611a42565b60405180910390fd5b600073ffffffffffffffffffffffffffffffffffffffff168273ffffffffffffffffffffffffffffffffffffffff161415610c91576040517f08c379a0000000000000000000000000000000000000000000000000000000008152600401610c8890611962565b60405180910390fd5b610c9c83838361128e565b60008060008573ffffffffffffffffffffffffffffffffffffffff1673ffffffffffffffffffffffffffffffffffffffff16815260200190815260200160002054905081811015610d22576040517f08c379a0000000000000000000000000000000000000000000000000000000008152600401610d19906119c2565b60405180910390fd5b8181036000808673ffffffffffffffffffffffffffffffffffffffff1673ffffffffffffffffffffffffffffffffffffffff16815260200190815260200160002081905550816000808573ffffffffffffffffffffffffffffffffffffffff1673ffffffffffffffffffffffffffffffffffffffff1681526020019081526020016000206000828254610db59190611b6c565b925050819055508273ffffffffffffffffffffffffffffffffffffffff168473ffffffffffffffffffffffffffffffffffffffff167fddf252ad1be2c89b69c2b068fc378daa952ba7f163c4a11628f55a4df523b3ef84604051610e199190611ac2565b60405180910390a3610e2c848484611293565b50505050565b600073ffffffffffffffffffffffffffffffffffffffff168273ffffffffffffffffffffffffffffffffffffffff161415610ea2576040517f08c379a0000000000000000000000000000000000000000000000000000000008152600401610e9990611a22565b60405180910390fd5b610eae8260008361128e565b60008060008473ffffffffffffffffffffffffffffffffffffffff1673ffffffffffffffffffffffffffffffffffffffff16815260200190815260200160002054905081811015610f34576040517f08c379a0000000000000000000000000000000000000000000000000000000008152600401610f2b90611982565b60405180910390fd5b8181036000808573ffffffffffffffffffffffffffffffffffffffff1673ffffffffffffffffffffffffffffffffffffffff168152602001908152602001600020819055508160026000828254610f8b9190611c4d565b92505081905550600073ffffffffffffffffffffffffffffffffffffffff168373ffffffffffffffffffffffffffffffffffffffff167fddf252ad1be2c89b69c2b068fc378daa952ba7f163c4a11628f55a4df523b3ef84604051610ff09190611ac2565b60405180910390a361100483600084611293565b505050565b60008060006002433361101d600854611298565b60405160200161102f939291906118c3565b60405160208183030381529060405260405161104b91906118ac565b602060405180830381855afa158015611068573d6000803e3d6000fd5b5050506040513d601f19601f8201168201806040525081019061108b91906115c5565b905060006001905060005b60085481101561112157600060f81b8382602081106110de577f4e487b7100000000000000000000000000000000000000000000000000000000600052603260045260246000fd5b1a60f81b7effffffffffffffffffffffffffffffffffffffffffffffffffffffffffffff19161461110e57600091505b808061111990611d45565b915050611096565b5080829350935050509091565b600073ffffffffffffffffffffffffffffffffffffffff168273ffffffffffffffffffffffffffffffffffffffff16141561119e576040517f08c379a000000000000000000000000000000000000000000000000000000000815260040161119590611aa2565b60405180910390fd5b6111aa6000838361128e565b80600260008282546111bc9190611b6c565b92505081905550806000808473ffffffffffffffffffffffffffffffffffffffff1673ffffffffffffffffffffffffffffffffffffffff16815260200190815260200160002060008282546112119190611b6c565b925050819055508173ffffffffffffffffffffffffffffffffffffffff16600073ffffffffffffffffffffffffffffffffffffffff167fddf252ad1be2c89b69c2b068fc378daa952ba7f163c4a11628f55a4df523b3ef836040516112769190611ac2565b60405180910390a361128a60008383611293565b5050565b505050565b505050565b606060008214156112e0576040518060400160405280600181526020017f30000000000000000000000000000000000000000000000000000000000000008152509050611440565b600082905060005b600082146113125780806112fb90611d45565b915050600a8261130b9190611bc2565b91506112e8565b60008167ffffffffffffffff811115611354577f4e487b7100000000000000000000000000000000000000000000000000000000600052604160045260246000fd5b6040519080825280601f01601f1916602001820160405280156113865781602001600182028036833780820191505090505b5090505b600085146114395760018261139f9190611c4d565b9150600a856113ae9190611dbc565b60306113ba9190611b6c565b60f81b8183815181106113f6577f4e487b7100000000000000000000000000000000000000000000000000000000600052603260045260246000fd5b60200101907effffffffffffffffffffffffffffffffffffffffffffffffffffffffffffff1916908160001a905350600a856114329190611bc2565b945061138a565b8093505050505b919050565b600081359050611454816121d7565b92915050565b600081359050611469816121ee565b92915050565b60008151905061147e81612205565b92915050565b6000813590506114938161221c565b92915050565b6000602082840312156114ab57600080fd5b60006114b984828501611445565b91505092915050565b600080604083850312156114d557600080fd5b60006114e385828601611445565b92505060206114f485828601611445565b9150509250929050565b60008060006060848603121561151357600080fd5b600061152186828701611445565b935050602061153286828701611445565b925050604061154386828701611484565b9150509250925092565b6000806040838503121561156057600080fd5b600061156e85828601611445565b925050602061157f85828601611484565b9150509250929050565b6000806040838503121561159c57600080fd5b60006115aa8582860161145a565b92505060206115bb85828601611484565b9150509250929050565b6000602082840312156115d757600080fd5b60006115e58482850161146f565b91505092915050565b60006020828403121561160057600080fd5b600061160e84828501611484565b91505092915050565b61162081611c81565b82525050565b61163761163282611c81565b611d8e565b82525050565b61164681611c93565b82525050565b61165581611c9f565b82525050565b600061166682611b2f565b6116708185611b45565b9350611680818560208601611ce0565b80840191505092915050565b600061169782611b3a565b6116a18185611b50565b93506116b1818560208601611ce0565b6116ba81611e7a565b840191505092915050565b60006116d082611b3a565b6116da8185611b61565b93506116ea818560208601611ce0565b80840191505092915050565b6000611703602383611b50565b915061170e82611e98565b604082019050919050565b6000611726602283611b50565b915061173182611ee7565b604082019050919050565b6000611749602283611b50565b915061175482611f36565b604082019050919050565b600061176c602683611b50565b915061177782611f85565b604082019050919050565b600061178f602883611b50565b915061179a82611fd4565b604082019050919050565b60006117b2602483611b50565b91506117bd82612023565b604082019050919050565b60006117d5602183611b50565b91506117e082612072565b604082019050919050565b60006117f8602583611b50565b9150611803826120c1565b604082019050919050565b600061181b602483611b50565b915061182682612110565b604082019050919050565b600061183e602583611b50565b91506118498261215f565b604082019050919050565b6000611861601f83611b50565b915061186c826121ae565b602082019050919050565b61188081611cc9565b82525050565b61189761189282611cc9565b611db2565b82525050565b6118a681611cd3565b82525050565b60006118b8828461165b565b915081905092915050565b60006118cf8286611886565b6020820191506118df8285611626565b6014820191506118ef82846116c5565b9150819050949350505050565b60006040820190506119116000830185611617565b61191e6020830184611877565b9392505050565b600060208201905061193a600083018461163d565b92915050565b6000602082019050818103600083015261195a818461168c565b905092915050565b6000602082019050818103600083015261197b816116f6565b9050919050565b6000602082019050818103600083015261199b81611719565b9050919050565b600060208201905081810360008301526119bb8161173c565b9050919050565b600060208201905081810360008301526119db8161175f565b9050919050565b600060208201905081810360008301526119fb81611782565b9050919050565b60006020820190508181036000830152611a1b816117a5565b9050919050565b60006020820190508181036000830152611a3b816117c8565b9050919050565b60006020820190508181036000830152611a5b816117eb565b9050919050565b60006020820190508181036000830152611a7b8161180e565b9050919050565b60006020820190508181036000830152611a9b81611831565b9050919050565b60006020820190508181036000830152611abb81611854565b9050919050565b6000602082019050611ad76000830184611877565b92915050565b6000606082019050611af26000830186611877565b611aff602083018561163d565b611b0c604083018461164c565b949350505050565b6000602082019050611b29600083018461189d565b92915050565b600081519050919050565b600081519050919050565b600081905092915050565b600082825260208201905092915050565b600081905092915050565b6000611b7782611cc9565b9150611b8283611cc9565b9250827fffffffffffffffffffffffffffffffffffffffffffffffffffffffffffffffff03821115611bb757611bb6611ded565b5b828201905092915050565b6000611bcd82611cc9565b9150611bd883611cc9565b925082611be857611be7611e1c565b5b828204905092915050565b6000611bfe82611cc9565b9150611c0983611cc9565b9250817fffffffffffffffffffffffffffffffffffffffffffffffffffffffffffffffff0483118215151615611c4257611c41611ded565b5b828202905092915050565b6000611c5882611cc9565b9150611c6383611cc9565b925082821015611c7657611c75611ded565b5b828203905092915050565b6000611c8c82611ca9565b9050919050565b60008115159050919050565b6000819050919050565b600073ffffffffffffffffffffffffffffffffffffffff82169050919050565b6000819050919050565b600060ff82169050919050565b60005b83811015611cfe578082015181840152602081019050611ce3565b83811115611d0d576000848401525b50505050565b60006002820490506001821680611d2b57607f821691505b60208210811415611d3f57611d3e611e4b565b5b50919050565b6000611d5082611cc9565b91507fffffffffffffffffffffffffffffffffffffffffffffffffffffffffffffffff821415611d8357611d82611ded565b5b600182019050919050565b6000611d9982611da0565b9050919050565b6000611dab82611e8b565b9050919050565b6000819050919050565b6000611dc782611cc9565b9150611dd283611cc9565b925082611de257611de1611e1c565b5b828206905092915050565b7f4e487b7100000000000000000000000000000000000000000000000000000000600052601160045260246000fd5b7f4e487b7100000000000000000000000000000000000000000000000000000000600052601260045260246000fd5b7f4e487b7100000000000000000000000000000000000000000000000000000000600052602260045260246000fd5b6000601f19601f8301169050919050565b60008160601b9050919050565b7f45524332303a207472616e7366657220746f20746865207a65726f206164647260008201527f6573730000000000000000000000000000000000000000000000000000000000602082015250565b7f45524332303a206275726e20616d6f756e7420657863656564732062616c616e60008201527f6365000000000000000000000000000000000000000000000000000000000000602082015250565b7f45524332303a20617070726f766520746f20746865207a65726f20616464726560008201527f7373000000000000000000000000000000000000000000000000000000000000602082015250565b7f45524332303a207472616e7366657220616d6f756e742065786365656473206260008201527f616c616e63650000000000000000000000000000000000000000000000000000602082015250565b7f45524332303a207472616e7366657220616d6f756e742065786365656473206160008201527f6c6c6f77616e6365000000000000000000000000000000000000000000000000602082015250565b7f45524332303a206275726e20616d6f756e74206578636565647320616c6c6f7760008201527f616e636500000000000000000000000000000000000000000000000000000000602082015250565b7f45524332303a206275726e2066726f6d20746865207a65726f2061646472657360008201527f7300000000000000000000000000000000000000000000000000000000000000602082015250565b7f45524332303a207472616e736665722066726f6d20746865207a65726f20616460008201527f6472657373000000000000000000000000000000000000000000000000000000602082015250565b7f45524332303a20617070726f76652066726f6d20746865207a65726f2061646460008201527f7265737300000000000000000000000000000000000000000000000000000000602082015250565b7f45524332303a2064656372656173656420616c6c6f77616e63652062656c6f7760008201527f207a65726f000000000000000000000000000000000000000000000000000000602082015250565b7f45524332303a206d696e7420746f20746865207a65726f206164647265737300600082015250565b6121e081611c81565b81146121eb57600080fd5b50565b6121f781611c93565b811461220257600080fd5b50565b61220e81611c9f565b811461221957600080fd5b50565b61222581611cc9565b811461223057600080fd5b5056fea2646970667358221220119529d33b9187aa1749589157987ef605aac7948b47865190844e1d65cf3c3264736f6c63430008030033",
  "immutableReferences": {},
  "source": "// SPDX-License-Identifier: MIT\npragma solidity ^0.8.0;\n\n\nimport '@openzeppelin/contracts/token/ERC20/extensions/ERC20Burnable.sol';\nimport \"./Hashi.sol\";\nimport \"./IHashima.sol\";\n\ncontract OtherSide is ERC20Burnable{\n    uint256 negative_votes=0;\n    uint256 positive_votes=0;\n\n    uint256 current_rate=1;\n    uint256 dificultad=1;\n\n    Hashi private hashiContract;\n\n    constructor(Hashi HASHI_contract) ERC20(\"Petunia\", \"PETU\"){\n        hashiContract=HASHI_contract;\n        \n    }\n\n    event ExchangeComplete(uint256 amount,bool free,bytes32 result_hash);\n\n\n    function deposit(uint256 amount) public \n    // returns(bool,bytes32)\n    {\n        (bool free,bytes32 result_hash)=coldProofOfWork();\n        \n        uint256 amounToMint=amount*current_rate;\n        _mint(msg.sender,amounToMint);\n        emit ExchangeComplete(amounToMint,free,result_hash);\n        if(!free)hashiContract.burnFrom(msg.sender, amount);\n\n     \n\n   }\n\n    //Los usuarios votan la direccion de la tasa de cambio $HASHI/$PETU\n    function vote(bool positive,uint256 amount) external{\n        burn(amount);\n        if(positive){\n            positive_votes+=amount;\n        }else{\n            negative_votes+=amount;\n        }\n    }\n\n\n    function restartCycle()internal{\n        if(positive_votes>negative_votes){\n            current_rate=current_rate+1;\n        }else{\n            if(current_rate>1)current_rate=current_rate-1;\n            \n        }\n        negative_votes=0;\n        positive_votes=0;\n    }\n\n    function coldProofOfWork()private view returns(bool,bytes32){\n        \n      bytes32 _hashFinal=sha256(abi.encodePacked(block.number,msg.sender,Strings.toString(dificultad)));\n      bool respuesta=true;\n\n      for (uint256 index = 0; index < dificultad; index++) {\n        if (_hashFinal[index]!=0x00) {\n                respuesta=false;  \n            }\n      \n      }\n      return (respuesta,_hashFinal);\n    }\n\n\n}\n\n",
  "sourcePath": "/Users/aarontolentino/Desktop/Contratos_1/hashima/contracts/OtherSide.sol",
  "compiler": {
    "name": "solc",
    "version": "0.8.3+commit.8d00100c.Emscripten.clang"
  },
  "schemaVersion": "3.4.1",
  "updatedAt": "2022-06-17T18:56:46.015Z",
  "networkType": "ethereum",
  "devdoc": {
    "kind": "dev",
    "methods": {
      "allowance(address,address)": {
        "details": "See {IERC20-allowance}."
      },
      "approve(address,uint256)": {
        "details": "See {IERC20-approve}. Requirements: - `spender` cannot be the zero address."
      },
      "balanceOf(address)": {
        "details": "See {IERC20-balanceOf}."
      },
      "burn(uint256)": {
        "details": "Destroys `amount` tokens from the caller. See {ERC20-_burn}."
      },
      "burnFrom(address,uint256)": {
        "details": "Destroys `amount` tokens from `account`, deducting from the caller's allowance. See {ERC20-_burn} and {ERC20-allowance}. Requirements: - the caller must have allowance for ``accounts``'s tokens of at least `amount`."
      },
      "decimals()": {
        "details": "Returns the number of decimals used to get its user representation. For example, if `decimals` equals `2`, a balance of `505` tokens should be displayed to a user as `5.05` (`505 / 10 ** 2`). Tokens usually opt for a value of 18, imitating the relationship between Ether and Wei. This is the value {ERC20} uses, unless this function is overridden; NOTE: This information is only used for _display_ purposes: it in no way affects any of the arithmetic of the contract, including {IERC20-balanceOf} and {IERC20-transfer}."
      },
      "decreaseAllowance(address,uint256)": {
        "details": "Atomically decreases the allowance granted to `spender` by the caller. This is an alternative to {approve} that can be used as a mitigation for problems described in {IERC20-approve}. Emits an {Approval} event indicating the updated allowance. Requirements: - `spender` cannot be the zero address. - `spender` must have allowance for the caller of at least `subtractedValue`."
      },
      "increaseAllowance(address,uint256)": {
        "details": "Atomically increases the allowance granted to `spender` by the caller. This is an alternative to {approve} that can be used as a mitigation for problems described in {IERC20-approve}. Emits an {Approval} event indicating the updated allowance. Requirements: - `spender` cannot be the zero address."
      },
      "name()": {
        "details": "Returns the name of the token."
      },
      "symbol()": {
        "details": "Returns the symbol of the token, usually a shorter version of the name."
      },
      "totalSupply()": {
        "details": "See {IERC20-totalSupply}."
      },
      "transfer(address,uint256)": {
        "details": "See {IERC20-transfer}. Requirements: - `recipient` cannot be the zero address. - the caller must have a balance of at least `amount`."
      },
      "transferFrom(address,address,uint256)": {
        "details": "See {IERC20-transferFrom}. Emits an {Approval} event indicating the updated allowance. This is not required by the EIP. See the note at the beginning of {ERC20}. Requirements: - `sender` and `recipient` cannot be the zero address. - `sender` must have a balance of at least `amount`. - the caller must have allowance for ``sender``'s tokens of at least `amount`."
      }
    },
    "version": 1
  },
  "userdoc": {
    "kind": "user",
    "methods": {},
    "version": 1
  }
}