{
  "contractName": "Server",
  "abi": [
    {
      "inputs": [
        {
          "internalType": "contract IHashima",
          "name": "hashima_contract",
          "type": "address"
        }
      ],
      "stateMutability": "nonpayable",
      "type": "constructor"
    },
    {
      "anonymous": false,
      "inputs": [
        {
          "indexed": true,
          "internalType": "address",
          "name": "previousOwner",
          "type": "address"
        },
        {
          "indexed": true,
          "internalType": "address",
          "name": "newOwner",
          "type": "address"
        }
      ],
      "name": "OwnershipTransferred",
      "type": "event"
    },
    {
      "inputs": [],
      "name": "owner",
      "outputs": [
        {
          "internalType": "address",
          "name": "",
          "type": "address"
        }
      ],
      "stateMutability": "view",
      "type": "function",
      "constant": true
    },
    {
      "inputs": [],
      "name": "renounceOwnership",
      "outputs": [],
      "stateMutability": "nonpayable",
      "type": "function"
    },
    {
      "inputs": [
        {
          "internalType": "address",
          "name": "newOwner",
          "type": "address"
        }
      ],
      "name": "transferOwnership",
      "outputs": [],
      "stateMutability": "nonpayable",
      "type": "function"
    },
    {
      "inputs": [
        {
          "internalType": "address",
          "name": "_serv",
          "type": "address"
        }
      ],
      "name": "setServer",
      "outputs": [],
      "stateMutability": "nonpayable",
      "type": "function"
    },
    {
      "inputs": [
        {
          "internalType": "uint256",
          "name": "_stars",
          "type": "uint256"
        },
        {
          "internalType": "string",
          "name": "_uri",
          "type": "string"
        }
      ],
      "name": "payServer",
      "outputs": [],
      "stateMutability": "payable",
      "type": "function",
      "payable": true
    },
    {
      "inputs": [
        {
          "internalType": "uint256",
          "name": "tokenId",
          "type": "uint256"
        },
        {
          "internalType": "address",
          "name": "clientUser",
          "type": "address"
        }
      ],
      "name": "depositHashima",
      "outputs": [],
      "stateMutability": "nonpayable",
      "type": "function"
    },
    {
      "inputs": [
        {
          "internalType": "address",
          "name": "_user",
          "type": "address"
        }
      ],
      "name": "checkPayment",
      "outputs": [
        {
          "internalType": "bool",
          "name": "",
          "type": "bool"
        },
        {
          "internalType": "uint256",
          "name": "",
          "type": "uint256"
        },
        {
          "internalType": "string",
          "name": "",
          "type": "string"
        }
      ],
      "stateMutability": "view",
      "type": "function",
      "constant": true
    },
    {
      "inputs": [
        {
          "internalType": "uint256",
          "name": "tokenId",
          "type": "uint256"
        }
      ],
      "name": "claimHashima",
      "outputs": [],
      "stateMutability": "nonpayable",
      "type": "function"
    },
    {
      "inputs": [
        {
          "internalType": "uint256",
          "name": "_minPrice",
          "type": "uint256"
        }
      ],
      "name": "setMinPrice",
      "outputs": [],
      "stateMutability": "nonpayable",
      "type": "function"
    }
  ],
  "bytecode": "0x6080604052655af3107a40006005553480156200001b57600080fd5b506040516200161c3803806200161c83398181016040528101906200004191906200018c565b6200006162000055620000a960201b60201c565b620000b160201b60201c565b80600260006101000a81548173ffffffffffffffffffffffffffffffffffffffff021916908373ffffffffffffffffffffffffffffffffffffffff160217905550506200021a565b600033905090565b60008060009054906101000a900473ffffffffffffffffffffffffffffffffffffffff169050816000806101000a81548173ffffffffffffffffffffffffffffffffffffffff021916908373ffffffffffffffffffffffffffffffffffffffff1602179055508173ffffffffffffffffffffffffffffffffffffffff168173ffffffffffffffffffffffffffffffffffffffff167f8be0079c531659141344cd1fd0a4f28419497f9722a3daafe3b4186f6b6457e060405160405180910390a35050565b600081519050620001868162000200565b92915050565b6000602082840312156200019f57600080fd5b6000620001af8482850162000175565b91505092915050565b6000620001c582620001e0565b9050919050565b6000620001d982620001b8565b9050919050565b600073ffffffffffffffffffffffffffffffffffffffff82169050919050565b6200020b81620001cc565b81146200021757600080fd5b50565b6113f2806200022a6000396000f3fe6080604052600436106100865760003560e01c80638da5cb5b116100595780638da5cb5b14610133578063cbc16f191461015e578063d1a4a6101461017a578063f19a0b54146101a3578063f2fde38b146101cc57610086565b806326cce6c81461008b5780633b56fdc6146100b45780635ea8cd12146100f3578063715018a61461011c575b600080fd5b34801561009757600080fd5b506100b260048036038101906100ad9190610e4d565b6101f5565b005b3480156100c057600080fd5b506100db60048036038101906100d69190610dfb565b6104ba565b6040516100ea9392919061106b565b60405180910390f35b3480156100ff57600080fd5b5061011a60048036038101906101159190610e24565b61062d565b005b34801561012857600080fd5b506101316106b3565b005b34801561013f57600080fd5b5061014861073b565b6040516101559190611019565b60405180910390f35b61017860048036038101906101739190610e89565b610764565b005b34801561018657600080fd5b506101a1600480360381019061019c9190610e24565b6108e2565b005b3480156101af57600080fd5b506101ca60048036038101906101c59190610dfb565b610a60565b005b3480156101d857600080fd5b506101f360048036038101906101ee9190610dfb565b610b20565b005b600160008273ffffffffffffffffffffffffffffffffffffffff1673ffffffffffffffffffffffffffffffffffffffff16815260200190815260200160002060020160009054906101000a900460ff16610284576040517f08c379a000000000000000000000000000000000000000000000000000000000815260040161027b90611149565b60405180910390fd5b600260009054906101000a900473ffffffffffffffffffffffffffffffffffffffff1673ffffffffffffffffffffffffffffffffffffffff166323b872dd3383856040518463ffffffff1660e01b81526004016102e393929190611034565b600060405180830381600087803b1580156102fd57600080fd5b505af1158015610311573d6000803e3d6000fd5b505050506000600160008373ffffffffffffffffffffffffffffffffffffffff1673ffffffffffffffffffffffffffffffffffffffff1681526020019081526020016000206040518060600160405290816000820154815260200160018201805461037b90611200565b80601f01602080910402602001604051908101604052809291908181526020018280546103a790611200565b80156103f45780601f106103c9576101008083540402835291602001916103f4565b820191906000526020600020905b8154815290600101906020018083116103d757829003601f168201915b505050505081526020016002820160009054906101000a900460ff1615151515815250509050600081604001901515908115158152505080600160008473ffffffffffffffffffffffffffffffffffffffff1673ffffffffffffffffffffffffffffffffffffffff168152602001908152602001600020600082015181600001556020820151816001019080519060200190610491929190610ce4565b5060408201518160020160006101000a81548160ff021916908315150217905550905050505050565b6000806060600160008573ffffffffffffffffffffffffffffffffffffffff1673ffffffffffffffffffffffffffffffffffffffff16815260200190815260200160002060020160009054906101000a900460ff16600160008673ffffffffffffffffffffffffffffffffffffffff1673ffffffffffffffffffffffffffffffffffffffff16815260200190815260200160002060000154600160008773ffffffffffffffffffffffffffffffffffffffff1673ffffffffffffffffffffffffffffffffffffffff1681526020019081526020016000206001018080546105a090611200565b80601f01602080910402602001604051908101604052809291908181526020018280546105cc90611200565b80156106195780601f106105ee57610100808354040283529160200191610619565b820191906000526020600020905b8154815290600101906020018083116105fc57829003601f168201915b505050505090509250925092509193909250565b610635610c18565b73ffffffffffffffffffffffffffffffffffffffff1661065361073b565b73ffffffffffffffffffffffffffffffffffffffff16146106a9576040517f08c379a00000000000000000000000000000000000000000000000000000000081526004016106a090611129565b60405180910390fd5b8060058190555050565b6106bb610c18565b73ffffffffffffffffffffffffffffffffffffffff166106d961073b565b73ffffffffffffffffffffffffffffffffffffffff161461072f576040517f08c379a000000000000000000000000000000000000000000000000000000000815260040161072690611129565b60405180910390fd5b6107396000610c20565b565b60008060009054906101000a900473ffffffffffffffffffffffffffffffffffffffff16905090565b6005543410156107a9576040517f08c379a00000000000000000000000000000000000000000000000000000000081526004016107a0906110e9565b60405180910390fd5b600583106107ec576040517f08c379a00000000000000000000000000000000000000000000000000000000081526004016107e390611109565b60405180910390fd5b6000604051806060016040528085815260200184848080601f016020809104026020016040519081016040528093929190818152602001838380828437600081840152601f19601f82011690508083019250505050505050815260200160011515815250905080600160003373ffffffffffffffffffffffffffffffffffffffff1673ffffffffffffffffffffffffffffffffffffffff1681526020019081526020016000206000820151816000015560208201518160010190805190602001906108b8929190610ce4565b5060408201518160020160006101000a81548160ff02191690831515021790555090505050505050565b600160003373ffffffffffffffffffffffffffffffffffffffff1673ffffffffffffffffffffffffffffffffffffffff16815260200190815260200160002060020160009054906101000a900460ff16610971576040517f08c379a0000000000000000000000000000000000000000000000000000000008152600401610968906110a9565b60405180910390fd5b6000600160003373ffffffffffffffffffffffffffffffffffffffff1673ffffffffffffffffffffffffffffffffffffffff16815260200190815260200160002060020160006101000a81548160ff021916908315150217905550600260009054906101000a900473ffffffffffffffffffffffffffffffffffffffff1673ffffffffffffffffffffffffffffffffffffffff166323b872dd3033846040518463ffffffff1660e01b8152600401610a2b93929190611034565b600060405180830381600087803b158015610a4557600080fd5b505af1158015610a59573d6000803e3d6000fd5b5050505050565b610a68610c18565b73ffffffffffffffffffffffffffffffffffffffff16610a8661073b565b73ffffffffffffffffffffffffffffffffffffffff1614610adc576040517f08c379a0000000000000000000000000000000000000000000000000000000008152600401610ad390611129565b60405180910390fd5b80600360006101000a81548173ffffffffffffffffffffffffffffffffffffffff021916908373ffffffffffffffffffffffffffffffffffffffff16021790555050565b610b28610c18565b73ffffffffffffffffffffffffffffffffffffffff16610b4661073b565b73ffffffffffffffffffffffffffffffffffffffff1614610b9c576040517f08c379a0000000000000000000000000000000000000000000000000000000008152600401610b9390611129565b60405180910390fd5b600073ffffffffffffffffffffffffffffffffffffffff168173ffffffffffffffffffffffffffffffffffffffff161415610c0c576040517f08c379a0000000000000000000000000000000000000000000000000000000008152600401610c03906110c9565b60405180910390fd5b610c1581610c20565b50565b600033905090565b60008060009054906101000a900473ffffffffffffffffffffffffffffffffffffffff169050816000806101000a81548173ffffffffffffffffffffffffffffffffffffffff021916908373ffffffffffffffffffffffffffffffffffffffff1602179055508173ffffffffffffffffffffffffffffffffffffffff168173ffffffffffffffffffffffffffffffffffffffff167f8be0079c531659141344cd1fd0a4f28419497f9722a3daafe3b4186f6b6457e060405160405180910390a35050565b828054610cf090611200565b90600052602060002090601f016020900481019282610d125760008555610d59565b82601f10610d2b57805160ff1916838001178555610d59565b82800160010185558215610d59579182015b82811115610d58578251825591602001919060010190610d3d565b5b509050610d669190610d6a565b5090565b5b80821115610d83576000816000905550600101610d6b565b5090565b600081359050610d968161138e565b92915050565b60008083601f840112610dae57600080fd5b8235905067ffffffffffffffff811115610dc757600080fd5b602083019150836001820283011115610ddf57600080fd5b9250929050565b600081359050610df5816113a5565b92915050565b600060208284031215610e0d57600080fd5b6000610e1b84828501610d87565b91505092915050565b600060208284031215610e3657600080fd5b6000610e4484828501610de6565b91505092915050565b60008060408385031215610e6057600080fd5b6000610e6e85828601610de6565b9250506020610e7f85828601610d87565b9150509250929050565b600080600060408486031215610e9e57600080fd5b6000610eac86828701610de6565b935050602084013567ffffffffffffffff811115610ec957600080fd5b610ed586828701610d9c565b92509250509250925092565b610eea81611185565b82525050565b610ef981611197565b82525050565b6000610f0a82611169565b610f148185611174565b9350610f248185602086016111cd565b610f2d81611261565b840191505092915050565b6000610f45600d83611174565b9150610f5082611272565b602082019050919050565b6000610f68602683611174565b9150610f738261129b565b604082019050919050565b6000610f8b601283611174565b9150610f96826112ea565b602082019050919050565b6000610fae601483611174565b9150610fb982611313565b602082019050919050565b6000610fd1602083611174565b9150610fdc8261133c565b602082019050919050565b6000610ff4600b83611174565b9150610fff82611365565b602082019050919050565b611013816111c3565b82525050565b600060208201905061102e6000830184610ee1565b92915050565b60006060820190506110496000830186610ee1565b6110566020830185610ee1565b611063604083018461100a565b949350505050565b60006060820190506110806000830186610ef0565b61108d602083018561100a565b818103604083015261109f8184610eff565b9050949350505050565b600060208201905081810360008301526110c281610f38565b9050919050565b600060208201905081810360008301526110e281610f5b565b9050919050565b6000602082019050818103600083015261110281610f7e565b9050919050565b6000602082019050818103600083015261112281610fa1565b9050919050565b6000602082019050818103600083015261114281610fc4565b9050919050565b6000602082019050818103600083015261116281610fe7565b9050919050565b600081519050919050565b600082825260208201905092915050565b6000611190826111a3565b9050919050565b60008115159050919050565b600073ffffffffffffffffffffffffffffffffffffffff82169050919050565b6000819050919050565b60005b838110156111eb5780820151818401526020810190506111d0565b838111156111fa576000848401525b50505050565b6000600282049050600182168061121857607f821691505b6020821081141561122c5761122b611232565b5b50919050565b7f4e487b7100000000000000000000000000000000000000000000000000000000600052602260045260246000fd5b6000601f19601f8301169050919050565b7f646562742069732066616c736500000000000000000000000000000000000000600082015250565b7f4f776e61626c653a206e6577206f776e657220697320746865207a65726f206160008201527f6464726573730000000000000000000000000000000000000000000000000000602082015250565b7f6d696e207072696365206e6f2072656163680000000000000000000000000000600082015250565b7f6e6f206d6f7265207468616e2034207374617273000000000000000000000000600082015250565b7f4f776e61626c653a2063616c6c6572206973206e6f7420746865206f776e6572600082015250565b7f75736572206e6f20706179000000000000000000000000000000000000000000600082015250565b61139781611185565b81146113a257600080fd5b50565b6113ae816111c3565b81146113b957600080fd5b5056fea2646970667358221220a5345bedcd06a817533724cb24b699179ef9f8c756f4ab393625f0cf9353e03464736f6c63430008030033",
  "immutableReferences": {},
  "source": "// SPDX-License-Identifier: MIT\npragma solidity ^0.8.0;\n\nimport \"./IHashima.sol\";\nimport \"@openzeppelin/contracts/access/Ownable.sol\";\n\n\ncontract Server is Ownable{\n\n    mapping(address=>Payment) debt;\n    // mapping(address=>mapping(uint256=>bool)) hashimaBalance;\n\n    IHashima hashimaContract;\n    address oficialServer;\n    \n    constructor(IHashima hashima_contract){\n        hashimaContract=hashima_contract;\n    \n    }\n\n    struct Payment{\n        uint256 stars;\n        string URI;\n        bool paid;\n    }\n\n    //Modificador\n    modifier onlyServer(){\n        require(msg.sender==oficialServer,'only server');\n        _;\n    }\n    address [] ACCEPTED_COINS;  \n    uint256 minPrice=0.0001 ether;\n\n    function setServer(address _serv)public onlyOwner{\n        oficialServer=_serv;\n    }\n\n    function payServer(uint256 _stars,string calldata _uri)external payable{\n        require(msg.value>=minPrice,'min price no reach');\n        require(_stars<5,'no more than 4 stars');\n\n        Payment memory paymentInput=Payment(\n            _stars,\n            _uri,\n            true\n\n        );\n        debt[msg.sender]=paymentInput;\n    }\n\n    //cuando el servidor tenga listo el hashima lo deposita\n    function depositHashima(uint256 tokenId,address clientUser)external{\n        require(debt[clientUser].paid,'user no pay');\n        hashimaContract.transferFrom(msg.sender, clientUser, tokenId);\n        Payment memory newPay=debt[clientUser];\n        newPay.paid=false;\n        debt[clientUser]=newPay;\n    }\n    \n    //Esta funciona la llama el servidor para ver si el usuario pago su Hashima\n    //devuelve si pago y cuantas estrellas junto con la URI\n    function checkPayment(address _user)public view returns(bool,uint256,string memory){\n        return (debt[_user].paid,debt[_user].stars,debt[_user].URI);\n    }\n\n    function claimHashima(uint256 tokenId)public{\n        require(debt[msg.sender].paid,'debt is false');\n        debt[msg.sender].paid=false;\n        hashimaContract.transferFrom(address(this), msg.sender, tokenId);\n        \n    }\n\n    //Funcion para que el dueo cambie el precio\n    function setMinPrice(uint256 _minPrice)public onlyOwner{\n        minPrice=_minPrice;\n    }\n\n\n\n}",
  "sourcePath": "/Users/aarontolentino/Desktop/Contratos_1/hashima/contracts/Server.sol",
  "compiler": {
    "name": "solc",
    "version": "0.8.3+commit.8d00100c.Emscripten.clang"
  },
  "schemaVersion": "3.4.1",
  "updatedAt": "2022-06-17T18:56:46.022Z",
  "networkType": "ethereum",
  "devdoc": {
    "kind": "dev",
    "methods": {
      "owner()": {
        "details": "Returns the address of the current owner."
      },
      "renounceOwnership()": {
        "details": "Leaves the contract without owner. It will not be possible to call `onlyOwner` functions anymore. Can only be called by the current owner. NOTE: Renouncing ownership will leave the contract without an owner, thereby removing any functionality that is only available to the owner."
      },
      "transferOwnership(address)": {
        "details": "Transfers ownership of the contract to a new account (`newOwner`). Can only be called by the current owner."
      }
    },
    "version": 1
  },
  "userdoc": {
    "kind": "user",
    "methods": {},
    "version": 1
  }
}