{
  "contractName": "SimpleAuction",
  "abi": [
    {
      "inputs": [
        {
          "internalType": "uint256",
          "name": "_biddingBlocks",
          "type": "uint256"
        },
        {
          "internalType": "address payable",
          "name": "_beneficiary",
          "type": "address"
        }
      ],
      "stateMutability": "nonpayable",
      "type": "constructor"
    },
    {
      "anonymous": false,
      "inputs": [
        {
          "indexed": false,
          "internalType": "address",
          "name": "winner",
          "type": "address"
        },
        {
          "indexed": false,
          "internalType": "uint256",
          "name": "amount",
          "type": "uint256"
        }
      ],
      "name": "AuctionEnded",
      "type": "event"
    },
    {
      "anonymous": false,
      "inputs": [
        {
          "indexed": false,
          "internalType": "address",
          "name": "bidder",
          "type": "address"
        },
        {
          "indexed": false,
          "internalType": "uint256",
          "name": "amount",
          "type": "uint256"
        }
      ],
      "name": "HighestBidIncreased",
      "type": "event"
    },
    {
      "inputs": [],
      "name": "auctionEndTime",
      "outputs": [
        {
          "internalType": "uint256",
          "name": "",
          "type": "uint256"
        }
      ],
      "stateMutability": "view",
      "type": "function"
    },
    {
      "inputs": [],
      "name": "beneficiary",
      "outputs": [
        {
          "internalType": "address payable",
          "name": "",
          "type": "address"
        }
      ],
      "stateMutability": "view",
      "type": "function"
    },
    {
      "inputs": [],
      "name": "highestBid",
      "outputs": [
        {
          "internalType": "uint256",
          "name": "",
          "type": "uint256"
        }
      ],
      "stateMutability": "view",
      "type": "function"
    },
    {
      "inputs": [],
      "name": "highestBidder",
      "outputs": [
        {
          "internalType": "address",
          "name": "",
          "type": "address"
        }
      ],
      "stateMutability": "view",
      "type": "function"
    },
    {
      "inputs": [],
      "name": "bid",
      "outputs": [],
      "stateMutability": "payable",
      "type": "function"
    },
    {
      "inputs": [],
      "name": "withdraw",
      "outputs": [
        {
          "internalType": "bool",
          "name": "",
          "type": "bool"
        }
      ],
      "stateMutability": "nonpayable",
      "type": "function"
    },
    {
      "inputs": [],
      "name": "auctionEnd",
      "outputs": [],
      "stateMutability": "nonpayable",
      "type": "function"
    }
  ],
  "bytecode": "0x60806040523480156200001157600080fd5b5060405162000c4d38038062000c4d8339818101604052810190620000379190620000c1565b806000806101000a81548173ffffffffffffffffffffffffffffffffffffffff021916908373ffffffffffffffffffffffffffffffffffffffff160217905550814362000085919062000102565b600181905550505062000200565b600081519050620000a481620001cc565b92915050565b600081519050620000bb81620001e6565b92915050565b60008060408385031215620000d557600080fd5b6000620000e585828601620000aa565b9250506020620000f88582860162000093565b9150509250929050565b60006200010f8262000193565b91506200011c8362000193565b9250827fffffffffffffffffffffffffffffffffffffffffffffffffffffffffffffffff038211156200015457620001536200019d565b5b828201905092915050565b60006200016c8262000173565b9050919050565b600073ffffffffffffffffffffffffffffffffffffffff82169050919050565b6000819050919050565b7f4e487b7100000000000000000000000000000000000000000000000000000000600052601160045260246000fd5b620001d7816200015f565b8114620001e357600080fd5b50565b620001f18162000193565b8114620001fd57600080fd5b50565b610a3d80620002106000396000f3fe6080604052600436106100705760003560e01c80633ccfd60b1161004e5780633ccfd60b146100c15780634b449cba146100ec57806391f9015714610117578063d57bde791461014257610070565b80631998aeef146100755780632a24f46c1461007f57806338af3eed14610096575b600080fd5b61007d61016d565b005b34801561008b57600080fd5b506100946102fe565b005b3480156100a257600080fd5b506100ab610476565b6040516100b89190610745565b60405180910390f35b3480156100cd57600080fd5b506100d661049a565b6040516100e39190610789565b60405180910390f35b3480156100f857600080fd5b506101016105f8565b60405161010e9190610824565b60405180910390f35b34801561012357600080fd5b5061012c6105fe565b604051610139919061072a565b60405180910390f35b34801561014e57600080fd5b50610157610624565b6040516101649190610824565b60405180910390f35b6001544211156101b2576040517f08c379a00000000000000000000000000000000000000000000000000000000081526004016101a9906107a4565b60405180910390fd5b60035434116101f6576040517f08c379a00000000000000000000000000000000000000000000000000000000081526004016101ed906107c4565b60405180910390fd5b60006003541461027b5760035460046000600260009054906101000a900473ffffffffffffffffffffffffffffffffffffffff1673ffffffffffffffffffffffffffffffffffffffff1673ffffffffffffffffffffffffffffffffffffffff1681526020019081526020016000206000828254610273919061085b565b925050819055505b33600260006101000a81548173ffffffffffffffffffffffffffffffffffffffff021916908373ffffffffffffffffffffffffffffffffffffffff160217905550346003819055507ff4757a49b326036464bec6fe419a4ae38c8a02ce3e68bf0809674f6aab8ad30033346040516102f4929190610760565b60405180910390a1565b600154421015610343576040517f08c379a000000000000000000000000000000000000000000000000000000000815260040161033a906107e4565b60405180910390fd5b600560009054906101000a900460ff1615610393576040517f08c379a000000000000000000000000000000000000000000000000000000000815260040161038a90610804565b60405180910390fd5b6001600560006101000a81548160ff0219169083151502179055507fdaec4582d5d9595688c8c98545fdd1c696d41c6aeaeb636737e84ed2f5c00eda600260009054906101000a900473ffffffffffffffffffffffffffffffffffffffff16600354604051610403929190610760565b60405180910390a160008054906101000a900473ffffffffffffffffffffffffffffffffffffffff1673ffffffffffffffffffffffffffffffffffffffff166108fc6003549081150290604051600060405180830381858888f19350505050158015610473573d6000803e3d6000fd5b50565b60008054906101000a900473ffffffffffffffffffffffffffffffffffffffff1681565b600080600460003373ffffffffffffffffffffffffffffffffffffffff1673ffffffffffffffffffffffffffffffffffffffff16815260200190815260200160002054905060008111156105ef576000600460003373ffffffffffffffffffffffffffffffffffffffff1673ffffffffffffffffffffffffffffffffffffffff1681526020019081526020016000208190555060003373ffffffffffffffffffffffffffffffffffffffff168260405161055390610715565b60006040518083038185875af1925050503d8060008114610590576040519150601f19603f3d011682016040523d82523d6000602084013e610595565b606091505b50509050806105ed5781600460003373ffffffffffffffffffffffffffffffffffffffff1673ffffffffffffffffffffffffffffffffffffffff168152602001908152602001600020819055506000925050506105f5565b505b60019150505b90565b60015481565b600260009054906101000a900473ffffffffffffffffffffffffffffffffffffffff1681565b60035481565b610633816108c3565b82525050565b610642816108b1565b82525050565b610651816108d5565b82525050565b600061066460168361084a565b915061066f8261093a565b602082019050919050565b6000610687601e8361084a565b915061069282610963565b602082019050919050565b60006106aa60168361084a565b91506106b58261098c565b602082019050919050565b60006106cd60238361084a565b91506106d8826109b5565b604082019050919050565b60006106f060008361083f565b91506106fb82610a04565b600082019050919050565b61070f81610901565b82525050565b6000610720826106e3565b9150819050919050565b600060208201905061073f6000830184610639565b92915050565b600060208201905061075a600083018461062a565b92915050565b60006040820190506107756000830185610639565b6107826020830184610706565b9392505050565b600060208201905061079e6000830184610648565b92915050565b600060208201905081810360008301526107bd81610657565b9050919050565b600060208201905081810360008301526107dd8161067a565b9050919050565b600060208201905081810360008301526107fd8161069d565b9050919050565b6000602082019050818103600083015261081d816106c0565b9050919050565b60006020820190506108396000830184610706565b92915050565b600081905092915050565b600082825260208201905092915050565b600061086682610901565b915061087183610901565b9250827fffffffffffffffffffffffffffffffffffffffffffffffffffffffffffffffff038211156108a6576108a561090b565b5b828201905092915050565b60006108bc826108e1565b9050919050565b60006108ce826108e1565b9050919050565b60008115159050919050565b600073ffffffffffffffffffffffffffffffffffffffff82169050919050565b6000819050919050565b7f4e487b7100000000000000000000000000000000000000000000000000000000600052601160045260246000fd5b7f41756374696f6e20616c726561647920656e6465642e00000000000000000000600082015250565b7f546865726520616c7265616479206973206120686967686572206269642e0000600082015250565b7f41756374696f6e206e6f742079657420656e6465642e00000000000000000000600082015250565b7f61756374696f6e456e642068617320616c7265616479206265656e2063616c6c60008201527f65642e0000000000000000000000000000000000000000000000000000000000602082015250565b5056fea26469706673582212207bd86b2d7c71658baf2272b8ed81b3f1e150a946fde85895ee726e00a248a86a64736f6c63430008030033",
  "immutableReferences": {},
  "source": "// SPDX-License-Identifier: MIT\npragma solidity ^0.8.0;\n\n\ncontract SimpleAuction {\n  \n    address payable public beneficiary;\n    uint256 public auctionEndTime;\n\n    // Current state of the auction.\n    address public highestBidder;\n    uint public highestBid;\n\n    // Allowed withdrawals of previous bids\n    mapping(address => uint) pendingReturns;\n\n    // Set to true at the end, disallows any change.\n    // By default initialized to `false`.\n    bool ended;\n\n    // Events that will be emitted on changes.\n    event HighestBidIncreased(address bidder, uint amount);\n    event AuctionEnded(address winner, uint amount);\n\n    // The following is a so-called natspec comment,\n    // recognizable by the three slashes.\n    // It will be shown when the user is asked to\n    // confirm a transaction.\n\n    /// Create a simple auction with `_biddingTime`\n    /// seconds bidding time on behalf of the\n    /// beneficiary address `_beneficiary`.\n    constructor(\n        uint256 _biddingBlocks,\n        address payable _beneficiary\n    ){\n        beneficiary = _beneficiary;\n        auctionEndTime = block.number + _biddingBlocks;\n    }\n\n    /// Bid on the auction with the value sent\n    /// together with this transaction.\n    /// The value will only be refunded if the\n    /// auction is not won.\n    function bid() public payable {\n        // No arguments are necessary, all\n        // information is already part of\n        // the transaction. The keyword payable\n        // is required for the function to\n        // be able to receive Ether.\n\n        // Revert the call if the bidding\n        // period is over.\n        require(\n            block.timestamp <= auctionEndTime,\n            \"Auction already ended.\"\n        );\n\n        // If the bid is not higher, send the\n        // money back.\n        require(\n            msg.value > highestBid,\n            \"There already is a higher bid.\"\n        );\n\n        if (highestBid != 0) {\n            // Sending back the money by simply using\n            // highestBidder.send(highestBid) is a security risk\n            // because it could execute an untrusted contract.\n            // It is always safer to let the recipients\n            // withdraw their money themselves.\n            pendingReturns[highestBidder] += highestBid;\n        }\n        highestBidder = msg.sender;\n        highestBid = msg.value;\n        emit HighestBidIncreased(msg.sender, msg.value);\n    }\n\n    /// Withdraw a bid that was overbid.\n    function withdraw() public returns (bool) {\n        uint amount = pendingReturns[msg.sender];\n        if (amount > 0) {\n            // It is important to set this to zero because the recipient\n            // can call this function again as part of the receiving call\n            // before `send` returns.\n            pendingReturns[msg.sender] = 0;\n            (bool _answer,)=payable(msg.sender).call{value:amount}(\"\");\n            if (!_answer) {\n                // No need to call throw here, just reset the amount owing\n                pendingReturns[msg.sender] = amount;\n                return false;\n            }\n        }\n        return true;\n    }\n\n    /// End the auction and send the highest bid\n    /// to the beneficiary.\n    function auctionEnd() public {\n        // It is a good guideline to structure functions that interact\n        // with other contracts (i.e. they call functions or send Ether)\n        // into three phases:\n        // 1. checking conditions\n        // 2. performing actions (potentially changing conditions)\n        // 3. interacting with other contracts\n        // If these phases are mixed up, the other contract could call\n        // back into the current contract and modify the state or cause\n        // effects (ether payout) to be performed multiple times.\n        // If functions called internally include interaction with external\n        // contracts, they also have to be considered interaction with\n        // external contracts.\n\n        // 1. Conditions\n        require(block.timestamp >= auctionEndTime, \"Auction not yet ended.\");\n        require(!ended, \"auctionEnd has already been called.\");\n\n        // 2. Effects\n        ended = true;\n        emit AuctionEnded(highestBidder, highestBid);\n\n        // 3. Interaction\n        beneficiary.transfer(highestBid);\n    }\n}",
  "sourcePath": "/Users/aarontolentino/Desktop/hashima/contracts/Auction.sol",
  "compiler": {
    "name": "solc",
    "version": "0.8.3+commit.8d00100c.Emscripten.clang"
  },
  "schemaVersion": "3.4.1",
  "updatedAt": "2022-01-18T21:19:10.287Z",
  "devdoc": {
    "kind": "dev",
    "methods": {},
    "version": 1
  },
  "userdoc": {
    "kind": "user",
    "methods": {
      "auctionEnd()": {
        "notice": "End the auction and send the highest bid to the beneficiary."
      },
      "bid()": {
        "notice": "Bid on the auction with the value sent together with this transaction. The value will only be refunded if the auction is not won."
      },
      "constructor": {
        "notice": "Create a simple auction with `_biddingTime` seconds bidding time on behalf of the beneficiary address `_beneficiary`."
      },
      "withdraw()": {
        "notice": "Withdraw a bid that was overbid."
      }
    },
    "version": 1
  }
}